:020000040000fa
:080000000002040000000000f2
:020000040000fa
:10000800c8020000c8020000c8020000c8020000c0
:10001800c8020000c8020000c8020000c8020000b0
:10002800c8020000c8020000c8020000c8020000a0
:10003800c8020000c8020000c8020000c802000090
:10004800c8020000c80200003e030000c802000009
:10005800c8020000c8020000c8020000c802000070
:10006800c8020000c8020000c8020000c802000060
:10007800c8020000c8020000c8020000c802000050
:10008800c8020000c8020000c8020000c802000040
:020000040000fa
:100400006f0021000eff21000e0188000000000097
:100410000c000700203a2000010020000f00070018
:10042000000020000000e000020032000000020096
:100430000000000066030200000000000040da0037
:100440000000fe00000020000000e000020032007a
:10045000000020009001880000000600a102880032
:10046000800078000000eb001a003700e2804000b6
:1004700054a0b4009101ba00e280400054a0b4003e
:100480009102ba00e280400054a0b4000002eb00e8
:10049000472bde00f507b200a6018800602ce100c2
:1004a00008003a000049eb000201e80002003900b0
:1004b0003420ec0002f0a0008301e900f9ff3e00c7
:1004c000040037006128e100010032000082eb00e7
:1004d000040007001101ba000200e000e3ff3a0047
:1004e0000000060004d0a300e20f49001c00390000
:1004f000810278003549ba000201e80002003900a3
:100500003420ec0002f0a0008301e9000f0032006b
:100510002549ba000201e800020039003420ec004d
:1005200002f0a0008301e900080032000400e000ae
:100530000600320015c9ba000201e80002003900c5
:100540003420ec0002f0a0008301e9008180e80083
:1005500054a0b4000300e000e2ff3a0000000600ef
:100560009102ba00055978008301e900f7ff3200d3
:10057000c82ade00055978008301e900f3ff320044
:100580000400e000f1ff320011d9ba00eeff37009d
:080590000040da000000fe004b
:020000040000fa
:100598000000fa000000eb005008880013e1a900f1
:1005a80091088000f0fc2f0000806000900888000f
:1005b8000000eb00004888000000eb0010488800ad
:1005c80001488000f03f2e0080806000004020003d
:1005d80000807000004888000148800080ff2f00dc
:1005e800008060006000b300004888001048800068
:1005f800f001b3001048880000808000204888007f
:10060800c0032000304888002134800000fc2f00ff
:10061800008060000040a0002034880013e1a8009a
:100628000080fa00000006000000fa000000eb005d
:10063800401288000148a9002148a9004382a80067
:100648004362a9004342a9004322a9004302a8002b
:1006580042e2a80042c2a90042a2a90040c2a900e1
:1006680041e2a8000148a9002148a8000080fa003a
:1006780000000600801f78003200f800000020000b
:1006880090018800000000000000fa00401280007d
:100698001080880010c0b30004f0b7000148a9001a
:1006a8000080fa003200f9004f0078000040060090
:1006b8000000fa001e2ea900102ea9000080fa00e2
:1006c800000006000200fa00f9ff0700b0ff07006b
:1006d800d5ff0700122ea800010037000000000017
:1006e80004d0bf00e04f5000fcff320010808000b3
:1006f8008040780000cfb30000cf600010808000f9
:10070800004078006f406000104798009e00fb0092
:10071800008080008008b80080007800a0002000d9
:1007280000017800110009008200d80030488800d4
:0c0738000040eb0004f0b700e9ff3700c0
:020000040000fa
:100744000010000006000000820000004a000000c3
:0807540000000000000000009d
:020000040000fa
:04afe000cfff00009f
:020000040000fa
:04afe400ffff00006b
:020000040000fa
:04afe8007fff0000e7
:020000040000fa
:04afec00bfff0000a3
:020000040000fa
:04aff000ffff00005f
:020000040000fa
:04aff400ffff00005b
:00000001FF
