:020000040000fa
:080000000002040000000000f2
:020000040000fa
:10000800be030000be030000be030000be030000e4
:10001800be030000be030000be030000be030000d4
:10002800be03000058060000be030000be03000027
:10003800be0300006c060000be030000be03000003
:10004800be030000be030000c8020000be0300009b
:10005800be030000be030000be030000be03000094
:10006800be030000be030000be030000be03000084
:10007800be030000be030000be030000be03000074
:10008800be030000be030000be030000be03000064
:10009800be030000be030000be030000be03000054
:1000a800be030000be030000be030000be03000044
:1000b800be0300008006000094060000be03000096
:1000c800be030000be030000be030000be03000024
:1000d800be030000be030000be030000be03000014
:1000e800be030000be030000be030000be03000004
:1000f800be030000be030000be030000be030000f4
:10010800be030000be030000be030000be030000e3
:10011800be030000be030000be030000be030000d3
:10012800be030000be030000be030000be030000c3
:10013800be030000be030000be030000be030000b3
:10014800be030000be030000be030000be030000a3
:10015800be030000be030000be030000be03000093
:10016800be030000be030000be030000be03000083
:10017800be030000be030000be030000be03000073
:10018800be030000be030000be030000be03000063
:10019800be030000be030000be030000be03000053
:1001a800be030000be030000be030000be03000043
:1001b800be030000be030000be030000be03000033
:1001c800be030000be030000be030000be03000023
:1001d800be030000be030000be030000be03000013
:1001e800be030000be030000be030000be03000003
:1001f800be030000be030000be030000be030000f3
:10020800be030000be030000be030000be030000e2
:10021800be030000be030000be030000be030000d2
:10022800be030000be030000be030000be030000c2
:10023800be030000be030000be030000be030000b2
:10024800be030000be030000be030000be030000a2
:10025800be030000be030000be030000be03000092
:10026800be030000be030000be030000be03000082
:0c027800be030000be030000be03000037
:020000040000fa
:100400004f4121000eff21000e0188000000000076
:100410000c000700806a2000010020000f00070088
:10042000000020000000e000020032000000020096
:1004300000000000c2030200000000000040da00db
:100440000000fe00000020000000e000020032007a
:10045000000020009001880000000600a102880032
:10046000800078000000eb001a003700e2804000b6
:1004700054a0b4009101ba00e280400054a0b4003e
:100480009102ba00e280400054a0b4000002eb00e8
:10049000472bde00f507b200a6018800602ce100c2
:1004a00008003a000049eb000201e80002003900b0
:1004b0003420ec0002f0a0008301e900f9ff3e00c7
:1004c000040037006128e100010032000082eb00e7
:1004d000040007001101ba000200e000e3ff3a0047
:1004e0000000060004d0a300e20f49001c00390000
:1004f000810278003549ba000201e80002003900a3
:100500003420ec0002f0a0008301e9000f0032006b
:100510002549ba000201e800020039003420ec004d
:1005200002f0a0008301e900080032000400e000ae
:100530000600320015c9ba000201e80002003900c5
:100540003420ec0002f0a0008301e9008180e80083
:1005500054a0b4000300e000e2ff3a0000000600ef
:100560009102ba00055978008301e900f7ff3200d3
:10057000c82ade00055978008301e900f3ff320044
:100580000400e000f1ff320011d9ba00eeff37009d
:10059000809fbe00829fbe003200f8000000200055
:1005a00090018800000000000000fa004112800065
:1005b0004000210031009800400021001000780028
:1005c000010020004200200003002000820f5000a4
:1005d000838f58004e003e000006010004003700e3
:1005e000220037002b003700380037004200370068
:1005f000400021003000900071052000810f500064
:100600000700320051552500810f500010003200c4
:1006100041042000810f5000070032000f00370016
:100620004000210011002000010878007005200022
:10063000401288000c0037004000210031002000eb
:1006400001087800400420004012880006003700ae
:100650008081210040128800030037000080eb00f9
:10066000401288002a00370029003700400021008e
:100670003000900090a088004000210030009000e1
:10068000401288004000210021002000010878006d
:100690001f00370090a0800041002100b1009000b1
:1006a000f00fb00000014000c00021000000410038
:1006b00001087800900520004012880040002100c9
:1006c0008000eb0001087800110037004000210095
:1006d0003000900080004000c000210000804000f9
:1006e00010007800401288004000210041002000e6
:1006f00001087800060037009005200040128800ad
:10070000400021008000eb0001087800000000009c
:100710000148a9000080fa003200f9004f01be0034
:100720004f00be00004006000000fa000000eb0091
:10073000401288000148a9002148a9004382a9006d
:100740004362a9004342a8004322a9004302a80033
:1007500042e2a80042c2a90042a2a90040c2a900e8
:1007600041e2a80090052000401288000148a9003d
:100770002148a8000080fa00000006000040da00ce
:040780000000fe0077
:020000040000fa
:100784000600fa00a80007005f000700e5ff070065
:10079400136ea80060042000304888000000eb00bd
:1007a4008048880010c0b3000cf4b700509080005b
:1007b400000f7800024ea800026ea800128ea80056
:1007c400028ea80001003700000000005090800055
:1007d4009e0f5000fcff320052908000020f780000
:1007e4001e007800004078006f40600020479800a9
:1007f400000f20001e0060004480de003047980097
:100804009e00780000002f00008060004800de0099
:10081400404798001e0078006101b90000002000e4
:10082400f1002000020278000301780080017800c2
:100834000100780003026200000061000100200052
:10084400c000dd00000020000001be006120b800ef
:100854000001710081817100441add004c10de003a
:1008640000007200cc98de00504798002e409000a3
:10087400e14f500004003a00026ea900026ea90084
:10088400024ea80003003700024ea900024ea90040
:10089400026ea8004e409000e14f500003003a0061
:1008a400028ea900128ea80002003700128ea90041
:1008b400028ea8003e4090008000fb0040a0800013
:1008c4008008b80080007800a000200000017800b3
:1008d400110009008200d800304888005e40900072
:1008e4008000fb0040a080008008b80080007800f1
:1008f400a000200000027800110009008400d80044
:1009040080488800b1ff37000000fa000000eb00c7
:100914005008880013e1a90091088000f0fc2f0022
:1009240000806000900888000000eb003008880018
:1009340011e1a90081088000f0fc2f000080600014
:10094400800888000000eb00004888000000eb00ed
:100954001048880001488000f03f2e00808060002d
:10096400004020000080700000488800014880009a
:1009740080ff2f00008060006000b3000048880002
:1009840010488000f001b3001048880040a08000a7
:10099400204888000000eb003048880011348000b3
:1009a400f00f2c00808060000000210000807000a7
:1009b400103488000000eb00504888000000eb0071
:1009c4006048880051488000f03f2e00008060009d
:1009d400504888005148800080ff2f00008060004c
:1009e4006000b3005048880060488000f001b30004
:1009f4006048880040a08000704888000000eb0038
:100a0400804888002134800000fc2f0000806000b2
:100a14001001b3002034880013e1a80011e1a800fc
:100a24000080fa00000006000000fa00116ea90020
:100a34000e8ea900004ea900006ea900008ea90028
:100a4400108ea9000080fa00000006000000fa00e1
:100a54000000eb00a00888001fe1a900f108800055
:100a6400f0fc2f0000806000f008880011eea80060
:100a74007135800000f82f0080806000f0022000b3
:100a840000807000703588000000eb00300a880098
:100a94000000eb00000a88000000eb00100a880048
:100aa40001428000f0f82f00008060000040a000a8
:100ab400004288000028a900010a8000f03f2e00af
:100ac400808060000080200000807000000a8800a0
:100ad400010a8000f0f92f0000806000000a8800fd
:100ae400010a800080ff2f00008060000000a00049
:100af400000a880011cea80071358000f00f28008c
:100b04008080600000e02200008070007035880062
:100b14000000eb00700a88000000eb00400a880027
:100b24000000eb00500a880011428000f0f82f000a
:100b3400008060000040a0001042880000a8a900c6
:100b4400410a8000f03f2e00808060000080200079
:100b540000807000400a8800410a8000f0f92f00ec
:100b640000806000400a8800410a800080ff2f0056
:100b7400008060000000a000400a880011aea800b8
:100b84008135800000f82f0080806000d0022000b2
:100b940000807000803588000000eb00b00a8800f7
:100ba4000000eb00800a88000000eb00900a880037
:100bb40091428000f0f82f00008060000040a00007
:100bc4009042880004a8a900810a8000f03f2e000a
:100bd400808060000080200000807000800a88000f
:100be400810a8000f0f92f0000806000800a8800ec
:100bf400810a800080ff2f00008060000000a000b8
:100c0400800a8800118ea80081358000f00f28002a
:100c14008080600000d02200008070008035880051
:100c24000000eb00f00a88000000eb00c00a880016
:100c34000000eb00d00a880091428000f08f2f0062
:100c440080806000001020000080700090428800c6
:100c540004c8a900c10a8000f03f2e008080600013
:100c64000080200000807000c00a8800c10a800053
:100c7400f0f92f0000806000c00a8800c10a8000db
:100c840080ff2f00008060000000a000c00a8800e0
:100c94002028a80020a8a80024a8a80024c8a800e8
:100ca4001fe1a8000080fa00000006003200f800ee
:100cb400881f7800080020009801880000000000c8
:100cc4004f0478000000fa000080fa003200f900b6
:100cd400004006003200f800881f78000800200059
:100ce40098018800000000004f0478000000fa001a
:100cf4000080fa003200f900004006003200f800db
:100d0400881f780008002000980188000000000077
:100d14004f0478000000fa000080fa003200f90065
:100d2400004006003200f800881f78000800200008
:100d340098018800000000004f0478000000fa00c9
:0c0d44000080fa003200f90000400600b8
:020000040000fa
:100d5000081400000a000000820000006400000087
:100d60000000000000000000000000000010000073
:100d700008040000800000001214000002000000bf
:0c0d8000820000000000000000000000e5
:020000040000fa
:04afe000cfff00009f
:020000040000fa
:04afe400ffff00006b
:020000040000fa
:04afe8007fff0000e7
:020000040000fa
:04afec00bbff0000a7
:020000040000fa
:04aff000ffff00005f
:020000040000fa
:04aff400ffff00005b
:00000001FF
