:020000040000fa
:080000000002040000000000f2
:020000040000fa
:100008001a0300001a0300001a0300001a03000074
:100018001a0300001a0300001a0300001a03000064
:100028001a0300001a0300001a0300001a03000054
:100038001a0300001a0300001a0300001a03000044
:100048001a0300001a030000c80200001a03000087
:100058001a0300001a0300001a0300001a03000024
:100068001a0300001a0300001a0300001a03000014
:100078001a0300001a0300001a0300001a03000004
:100088001a0300001a0300001a0300001a030000f4
:020000040000fa
:10040000af0021000eff21000e0188000000000057
:100410000c000700c0472000010020000f0007006b
:10042000000020000000e000020032000000020096
:1004300000000000c6030200000000000040da00d7
:100440000000fe00000020000000e000020032007a
:10045000000020009001880000000600a102880032
:10046000800078000000eb001a003700e2804000b6
:1004700054a0b4009101ba00e280400054a0b4003e
:100480009102ba00e280400054a0b4000002eb00e8
:10049000472bde00f507b200a6018800602ce100c2
:1004a00008003a000049eb000201e80002003900b0
:1004b0003420ec0002f0a0008301e900f9ff3e00c7
:1004c000040037006128e100010032000082eb00e7
:1004d000040007001101ba000200e000e3ff3a0047
:1004e0000000060004d0a300e20f49001c00390000
:1004f000810278003549ba000201e80002003900a3
:100500003420ec0002f0a0008301e9000f0032006b
:100510002549ba000201e800020039003420ec004d
:1005200002f0a0008301e900080032000400e000ae
:100530000600320015c9ba000201e80002003900c5
:100540003420ec0002f0a0008301e9008180e80083
:1005500054a0b4000300e000e2ff3a0000000600ef
:100560009102ba00055978008301e900f7ff3200d3
:10057000c82ade00055978008301e900f3ff320044
:100580000400e000f1ff320011d9ba00eeff37009d
:100590003200f800881f78000800200098018800c9
:1005a000000000004f0478000000fa000148a90094
:1005b0000080fa003200f900004006000000fa0056
:1005c0000000eb00401288000148a9002148a90062
:1005d0004382a9004362a9004342a8004322a90024
:1005e0004302a80042e2a80042c2a90042a2a90018
:1005f00040c2a90041e2a8000148a9002148a80082
:100600000080fa00000006000200fa00004f7800a7
:100610001e00fb0040128800000000000012800055
:1006200062006000e00f5000fcff3a000080fa001a
:0c063000000006000040da000000fe00a0
:020000040000fa
:10063c000000fa000000eb005008880013e1a9004c
:10064c0091088000f0fc2f0000806000900888006a
:10065c000000eb003008880011e1a900810880003f
:10066c00f0fc2f0000806000800888000000eb0088
:10067c00004888000000eb0010488800014880000a
:10068c00f03f2e0080806000004020000080700051
:10069c00004888000148800080ff2f000080600027
:1006ac006000b3000048880010488000f001b300df
:1006bc001048880000808000204888000000eb0073
:1006cc003048880011348000f00f2c0080806000ce
:1006dc000000210000807000103488000000eb0046
:1006ec00504888000000eb006048880051488000aa
:1006fc00f03f2e0000806000504888005148800078
:10070c0080ff2f00008060006000b300504888001c
:10071c0060488000f001b3006048880000808000d1
:10072c00704888000000eb0080488800213480006d
:10073c0000fc2f00008060001001b3002034880002
:10074c0013e1a80011e1a8000080fa0000000600e7
:10075c000000fa000e0ea9000e2ea9001e0ea90014
:10076c001e2ea900000ea900002ea900100ea90033
:10077c00102ea900116ea9000080fa0000000600de
:10078c000400fa00f2ff0700a9ff070088ff07002a
:10079c00136ea80060042000304888000000eb00b5
:1007ac008048880010c0b30004f0b700f00a2000a5
:1007bc0010808800010037000000000004d0bf004a
:1007cc00e04f5000fcff32001080800000407800a9
:1007dc006f4f600011808000000f200000806000cf
:1007ec004480de0010479800108080008000780064
:1007fc0000002f00008060004800de0020479800b9
:10080c00108080006101b90000002000f100200080
:10081c000202780003017800800178000100780062
:10082c00030262000000610001002000c000dd0036
:10083c00000020000001be006120b8000001710022
:10084c0081817100441add004c10de000000720042
:10085c00cc98de00304798001e407800ef4f5000d7
:10086c0003003a00022ea900020ea8000200370075
:10087c00020ea900022ea8002e409000ef4f50004f
:10088c0003003a00122ea900120ea8000200370035
:10089c00120ea900122ea8001e4090008000fb0032
:1008ac00008080008008b80080007800a000200044
:1008bc0000017800110009008200d800304888003f
:1008cc003e4090008000fb00008080008008b80053
:1008dc0080007800a00020000002780011000900c0
:0c08ec008400d80080488800b4ff37006a
:020000040000fa
:1008f8000010000006000000820000004a0000000e
:100908000000000006100000040000008000000045
:0409180000000000db
:020000040000fa
:04afe000cfff00009f
:020000040000fa
:04afe400ffff00006b
:020000040000fa
:04afe8007fff0000e7
:020000040000fa
:04afec00bfff0000a3
:020000040000fa
:04aff000ffff00005f
:020000040000fa
:04aff400ffff00005b
:00000001FF
