:020000040000fa
:080000000002040000000000f2
:020000040000fa
:10000800c8020000c8020000c8020000c8020000c0
:10001800c8020000c8020000c8020000c8020000b0
:10002800c80200006e030000c8020000c8020000f9
:10003800c8020000c8020000c8020000c802000090
:10004800c8020000c8020000c8020000c802000080
:10005800c8020000c8020000c8020000c802000070
:10006800c8020000c8020000c8020000c802000060
:020000040000fa
:100400004f0121000eff21000e01880000000000b6
:100410000c000700c03f2000010020000f00070073
:10042000000020000000e000020032000000020096
:1004300000000000c2030200000000000040da00db
:100440000000fe00000020000000e000020032007a
:10045000000020009001880000000600a102880032
:10046000800078000000eb001a003700e2804000b6
:1004700054a0b4009101ba00e280400054a0b4003e
:100480009102ba00e280400054a0b4000002eb00e8
:10049000472bde00f507b200a6018800602ce100c2
:1004a00008003a000049eb000201e80002003900b0
:1004b0003420ec0002f0a0008301e900f9ff3e00c7
:1004c000040037006128e100010032000082eb00e7
:1004d000040007001101ba000200e000e3ff3a0047
:1004e0000000060004d0a300e20f49001c00390000
:1004f000810278003549ba000201e80002003900a3
:100500003420ec0002f0a0008301e9000f0032006b
:100510002549ba000201e800020039003420ec004d
:1005200002f0a0008301e900080032000400e000ae
:100530000600320015c9ba000201e80002003900c5
:100540003420ec0002f0a0008301e9008180e80083
:1005500054a0b4000300e000e2ff3a0000000600ef
:100560009102ba00055978008301e900f7ff3200d3
:10057000c82ade00055978008301e900f3ff320044
:100580000400e000f1ff320011d9ba00eeff37009d
:080590000040da000000fe004b
:020000040000fa
:100598000000fa000134800000fc2f000080600099
:1005a8000040a000003488002134800000fc2f00a7
:1005b800008060000040a0002034880011eea800f0
:1005c8007135800000f82f0080806000f002200064
:1005d80000807000703588000000eb00500888002b
:1005e80013e1a90091088000f0fc2f000080600052
:1005f8000040a000900888000000eb000048880038
:100608000000eb001048880001488000f03f2e00f1
:100618008080600000402000008070000048880052
:100628000148800080ff2f00008060006000b30058
:100638000048880010488000f001b3001048880086
:1006480000352c0020488800803821003048880078
:10065800010a800080ff2f0000806000000a8800e7
:100668000000eb00300a88000000eb00000a880058
:100678000000eb00100a880001428000f0f82f000b
:10068800008060000040a000004288000028a90007
:10069800010a8000f03f2e0000806000000a8800f8
:1006a800010a8000f0f92f0000806000000a88002d
:1006b800010a800080ff2f00008060000000a00079
:1006c800000a88002028a80013e1a8000080fa008a
:1006d80000000600809fbe00829fbe003200f80026
:1006e8000000200090018800000000000000fa00cf
:1006f8000028a90000808000e10f50000c003a009b
:10070800917080000000280000806000e00f500019
:1007180007003200200a8000010020006080880065
:10072800718088000000eb00008088000e00370010
:10073800200a8000010020008080880091808800c5
:100748001000200000808800828080009380800054
:100758006080800071808000000051008180590015
:1007680010808800218088000080fa003200f9009b
:100778004f01be004f00be00004006000200fa0014
:100788000000eb00807088000000eb00907088008b
:100798007fff070012aea9000000eb00000f7800f1
:1007a8000000eb00000f7800020037000000000096
:1007b8001e0fe800f07022009e007800808f500025
:1007c800faff34001280800023808000004020005f
:1007d80001002000800f5100818f59000200340071
:1007e80012aea800eeff370012aea900ecff3700ea
:020000040000fa
:1007f8000c1000000800000080000000001000003d
:100808000c00000082000000010000000000000051
:0c081800010000000000000000000000d3
:020000040000fa
:04afe000cfff00009f
:020000040000fa
:04afe400ffff00006b
:020000040000fa
:04afe8007fff0000e7
:020000040000fa
:04afec00bfff0000a3
:020000040000fa
:04aff000ffff00005f
:020000040000fa
:04aff400ffff00005b
:00000001FF
