:020000040000fa
:080000000002040000000000f2
:020000040000fa
:10000800c8020000c8020000c8020000c8020000c0
:10001800c8020000c8020000c8020000c8020000b0
:10002800c8020000f40e0000c8020000c802000068
:10003800c8020000500f0000c8020000c8020000fb
:10004800c8020000c8020000c8020000c802000080
:10005800c8020000c8020000c8020000c802000070
:10006800c8020000c8020000c8020000c802000060
:10007800c8020000c8020000c8020000c802000050
:020000040000fa
:10040000af0121000eff21000e0188000000000056
:100410000c000700c0262100010020000f0007008b
:10042000000020000000e000020032000000020096
:100430000000000096120200000000000040da00f8
:100440000000fe00000020000000e000020032007a
:10045000000020009001880000000600a102880032
:10046000800078000000eb001a003700e2804000b6
:1004700054a0b4009101ba00e280400054a0b4003e
:100480009102ba00e280400054a0b4000002eb00e8
:10049000472bde00f507b200a6018800602ce100c2
:1004a00008003a000049eb000201e80002003900b0
:1004b0003420ec0002f0a0008301e900f9ff3e00c7
:1004c000040037006128e100010032000082eb00e7
:1004d000040007001101ba000200e000e3ff3a0047
:1004e0000000060004d0a300e20f49001c00390000
:1004f000810278003549ba000201e80002003900a3
:100500003420ec0002f0a0008301e9000f0032006b
:100510002549ba000201e800020039003420ec004d
:1005200002f0a0008301e900080032000400e000ae
:100530000600320015c9ba000201e80002003900c5
:100540003420ec0002f0a0008301e9008180e80083
:1005500054a0b4000300e000e2ff3a0000000600ef
:100560009102ba00055978008301e900f7ff3200d3
:10057000c82ade00055978008301e900f3ff320044
:100580000400e000f1ff320011d9ba00eeff37009d
:100590000040da000000fe0003f0a200889fbe00c9
:1005a0008a9fbe008c1f7800bc010700c301330086
:1005b0006450e1004f0032006420e100520032003c
:1005c00003826c0007003b000905d0000306d00041
:1005d000820f54000c065d00020039000200320058
:1005e00089017800030678008582550004003d00eb
:1005f0000003fd008103fd008502ea008b854200b7
:10060000840f720002003b0060001000e0801800c0
:100610006011b8000005eb007a28e1000a003900fb
:1006200006007800c75ddd00f707b200878075001f
:100630002d003700828171000a0178006105600099
:100640008180d1000080d3008502e900f9ff3b00e2
:10065000060440008784480002003b006004140048
:10066000e0841c000988a300070032008a81710021
:1006700082817100610164008904d1000884d30083
:100680008b05e800170037000978a30013003a0033
:100690000b00e000130034008b05e900080444005f
:1006a00089844c000a4474000978a3000d003a00c4
:1006b0000b00e000070034008b05e900080444004b
:1006c00089844c0001003a000b0020000978a30047
:1006d000f7ff32000001eb00020037008281710059
:1006e0000a017800320107000cf0a70001f0a00019
:1006f0007b0137006420e10002003a00838f6c0028
:100700007b0133000801be000200be007401370007
:100710000001eb0028023700889fbe008a9fbe00c0
:100720008c1f78005d0107001002200002003b00d2
:10073000c0808800610137008a0062006408e1001f
:1007400002003a00c0808800690137006108e100ba
:10075000fcff32000800be000304780072000700ae
:1007600001f0a1000900070008f0a600040037000e
:100770000001be0091042400b0fd200086ff0700a8
:1007800009f0a70001f0a20055013700889fbe00c4
:100790008a9fbe008c9fbe000004be002a01070095
:1007a0000800be00890678006420e10008003900d6
:1007b000040032000160a00012022000c280880004
:1007c0005300370091fc2300b0fd20004e0037009d
:1007d0000006eb0009f0a10003f82300020020004e
:1007e0000800be00a10007000600340001f8230045
:1007f000000020000801be004b0007000004be00fe
:100800002c0020000800be0093e82300320a2300d9
:1008100096000700120034000801be00d1fd23003d
:10082000703d2b005dff07000005be00b3f3230001
:10083000f27a26000800be003001070003f823000a
:100840000200200054ff07000801be0053ff07000c
:100850000a01be00340007000004be000c06e800d8
:100860000800be0001f0a100020020000398230050
:100870007e0007000800be00160035000801be001b
:100880001e0107000005be0032cd2c0043fb2300f3
:1008900042ff0700809fbe001269280003d52b008d
:1008a0000a00be0015010700620f210013ef2b00a4
:1008b0003aff07000a01be00100107004f01be0009
:1008c000190007000801be000c0107000801be0066
:1008d00032ff07000c00e0000b0032000c10a700f4
:1008e00001f0a200b2fd200093fc23006260e10051
:1008f0000400320022a9200063f023000c10a7009e
:1009000063f8230025ff07000df0a70001f0a20007
:100910004f06be004f05be004f04be00000006009b
:100920000081eb0029013700889fbe008a9fbe002e
:100930008c1f7800d9000700e000330003866c00ac
:100940006450e1002e0032006420e10033003200e8
:100950006150e1002f0032006120e10031003200df
:1009600085855500eb07b000090020000804200031
:10097000050037000804440089844c000a00310057
:100980000603430087834b000001530081815b0015
:10099000f8ff33000203be000800a0000804440072
:1009a00089844c00f6ff3900c639dd0083017300ed
:1009b00001003200130020008904d1000884d30014
:1009c0000998a300050032000800a7000300a0005a
:1009d0008904d1000884d3008b05e8008904d10084
:1009e0000884d3000001eb000281d20070000700f0
:1009f00001f0a1000cf0a70001f0a000b800370042
:100a00006420e100ba0032000801be000200be000e
:100a1000f7ff37006120e100b50032006000b80048
:100a2000f3ff37000000200001f82700f0ff370037
:100a3000839f68000100e00002003d00600010009c
:100a4000e08018000300e00002003d00600111009a
:100a5000e0811900480107004f00e00002003b0060
:100a600060001000e0801800000006001400200064
:100a7000b80137000001be00730007000470a70032
:100a800003f0a1006509b100160032000d00350029
:100a90006828e10006003500f0ff2f00f1ff270075
:100aa0000300e00013003b000100280000000500e7
:100ab00000004000818048008502e900fcff3a0008
:100ac00008003700f88f420002003c008000eb0075
:100ad000000005008100d1000080d3008502e800fd
:100ae000fcff3a000300e00002003b006000100041
:100af000e080180000000600881f780001047800dc
:100b00000100e00005003d0060001000e0801800da
:100b100002003b0001f02c00030037000400070036
:100b200008f0a70001f0a0004f04780000000600c4
:100b3000889fbe008a9fbe00010578000000e0008b
:100b4000180032000004be006011b8006b092000dc
:100b50000982cf00020039000882cf000441b000b2
:100b6000694252000e00320008003b008281710091
:100b7000610164008904d1000884d3008b05e8007a
:100b80000442e800f9ff3a00050037000804440079
:100b900089844c008b05e9000442e900fbff3a0020
:100ba000030007004f05be004f04be000000060012
:100bb00081002000618055000b003d000b002000eb
:100bc00061fe2f000100e1001d00340082817100f0
:100bd000610164008904d1000884d3000000e800aa
:100be000faff3a0071002000610064000300700009
:100bf000020060000900320061044400e0844c00ff
:100c00000988a500050032008b05e8006808e100ae
:100c100002003a008904d1000884d300f20f2000ba
:100c20000258e10005003d00c75ddd00f907b20094
:100c30008980750008007800000006000bf8270086
:100c40008b00780000000500c70ade00f107b20043
:100c5000f50fb20008003200e1cf4200020032007e
:100c60000170a00024000500810f70000100320017
:100c70000408050044000500810f700002003a00de
:100c8000140005008502e9000000400081c0480012
:100c9000fcff3b000170a000240005000004be0022
:100ca000e9ff07000003be000405be000200be000d
:100cb000e5ff0700844f7500000006000200be003b
:100cc0006450e100050036006420e10002003600b7
:100cd0000968a30001003a000800be000160a000fe
:100ce0004f0678004f05be004f04be00000006000e
:100cf000f0ff2f00f1ff2700f9ff3700889fbe00ab
:100d00008a9fbe008c1f7800e4ff0700ebff3300d2
:100d100003866c006450e100240032006420e1008e
:100d2000270032006150e100220032006120e10022
:100d3000210032008b854200eb07b1000134b8007e
:100d4000003ab8000804420089844a00013ab80019
:100d50000030b8008880400009014a0004003300d8
:100d60000000400081804800020149008b05e90035
:100d7000c909dd008301700001003200130020006a
:100d8000c814de004814dd004709de001200b2007e
:100d9000c808de000884700085ff070001f0a1008c
:100da0000cf0a70001f0a000cdff37006120e100aa
:100db000cfff32000801be000200be00f7ff37007f
:100dc0006150e100fcff3a00c9ff3700889fbe0078
:100dd0008a9fbe008c9fbe00820578000004be0082
:100de00099ff07000800be006420e10007003900f9
:100df00002003a00f1ff2700f0ff2f000160a00081
:100e000012022000c2808800550037006120e100f6
:100e100003003a000b00a70001f823005000370040
:100e200001f0a10002002100936424000fff0700dd
:100e30000800be0004003500b2fd2000930c240021
:100e4000e10007000004be000005eb000b00a60057
:100e50004f0dde0001f0a1000004be0032982f000b
:100e600023ea2300a5ff07000001eb0003f02300a5
:100e70000b00a70003f82300c8fd0700fdfe0700d4
:100e80000000a7000a00a2001bff07000b00e00003
:100e9000030032000200200003f02300befd070023
:100ea00001f0a2000006be0002002000930424000e
:100eb00092ff07000801be00b8fd0700809fbe003a
:100ec0000c00be0022a22a00d3a723008bff07003c
:100ed0004f01be00b1fd07000004be0001f0a100fb
:100ee0000200200003982300e0fe07000800be0077
:100ef000190035000001be0080ff07000006be009b
:100f0000b2c52900e36223007cff070022222b00e8
:100f1000f3942b00a1fd07000c01be0077ff070032
:100f2000e273280083c023009cfd07000c01be0073
:100f300072ff070042aa2a00a3e22b0097fd0700d8
:100f40000c01be006dff07000801be006bff07002b
:100f50000801be0091fd07000a00a70001f0a200f1
:100f60004f06be004f05be004f04be000000060045
:100f70000001eb0095ff37006022b8000602200058
:100f80000000d0008180d2000482d2008582d2008d
:100f90000000a0000202520083825a0003003100c8
:100fa0000202420083824a000000a1000603e90019
:100fb000f3ff3a0000000600889fbe008a9fbe0033
:100fc0008c9fbe000206780001f0a7000cf0a00084
:100fd0000004be001cff07000800be006420e10002
:100fe0000700390002003a00f1ff2700f0ff2f0050
:100ff0000160a00012022000c2808800510037006a
:1010000009f0a1000800be000200200003f8230040
:101010006b000700f4ff3c000800be000200200047
:101020000398230091fe07000800be003000350041
:101030000200200003f023006100070005003c00cf
:101040000800be000801be002cff07000005be001e
:101050000e0037000c10a2000000200001f8230051
:101060000801be004cfd07000200200003f0230031
:1010700022ff07000005be00a400070002002000b8
:1010800003002c001dff07000004be000a00be0084
:10109000b2d02800130b2c0040fd07000a01be004f
:1010a00016ff0700020f2500330b24003bfd07004d
:1010b000809fbe000a00be005206220013f02b00e3
:1010c0000eff0700b2662100f3f6230033fd070090
:1010d0000a01be0009ff07004f01be0012fe070013
:1010e0000801be0005ff07000801be002bfd070038
:1010f0000c00a70007003700b2fd200093fc23007e
:101100000c10a70025fd07000cf0a70001f0a200bd
:101110000c0037000cf0a7000200370001f0a2001d
:1011200004003700b2fd2000930424000c10a60038
:1011300003003700b2fd200093fc23000c10a70031
:1011400016fd07004f06be004f05be004f04be004f
:1011500000000600889fbe008a9fbe00841f7800a2
:10116000cefe07004f00780011003300f0ff2f0083
:10117000838f6c0006003b00040565000a00a70091
:101180000800370009f0a600100020000800370012
:10119000820f5400838f5c00030039001000200090
:1011a00001003e000000200009f0a7000000ea0056
:1011b0004f05be004f04be000000e0000000060026
:1011c000f4ff2f00e3ff3700040020000000370089
:1011d000889fbe008a9fbe008c1f78004f26dd00ce
:1011e000aefe0700b5fe33006120e100430032008f
:1011f0006250e10041003e003e0039006420e10001
:101200003c003200058255000f003b000402e8005c
:1012100038003a00800f5300818f5b0035003400a6
:101220000800be0003f0a10001f0a60003f0a0003a
:101230000cf0a700d9fc0700a9fe37000603430005
:1012400087834b000c4646000005530081855b00f8
:10125000020033000a03be000c00a0000402e900f3
:10126000f6ff3b00850578000602430087824b00ad
:1012700004003a006000b80009f0a70001f0a000e7
:1012800097fe37000002520081825a000704e000f6
:10129000040033000603430087834b008b05e900fd
:1012a000faff3700090578000604be000203be00fd
:1012b0006011b8003efe0700e00f5200e08f5a00b8
:1012c0000700350002003c000c08a30004003200b7
:1012d0000601be0003f0a0000cf0a700affc070061
:1012e0000a85680001f0a1000af0a70001f0a00043
:1012f0007bfe37000800be0079fe37001002200098
:101300000cf0a600c080880079fe3700889fbe00e0
:101310008a9fbe008c1f78000004be004afe0700b2
:101320000478a30026003a006120e1002500320085
:1013300009f8a30025003a006420e10021003200f2
:10134000f507b1000508a3000200320000004000cc
:10135000818048006044b800031020000200200093
:1013600000004000818048000805440089854c0049
:101370000a0541008b8549000a0550008b855800fd
:10138000030033000a00be0002047400838474006a
:101390008301d1000281d300830f7100f0ff3a0076
:1013a0008904d1000884d3006001490082017800db
:1013b000c1adde00fb07b000fdfd070048fe3700b1
:1013c0000960a0000800be0045fe370012022000a0
:1013d000c2808800f0ff2f00f1ff270040fe370099
:020000040000fa
:1013e0000000fa007f030700930307008040eb0032
:1013f00000c3b300ba03070000c2b300a403070090
:10140000f0c2b300a20307008b0307008040eb008b
:10141000c0c3b300b20307000040eb009c03070009
:1014200080c0b3009a030700830307008040eb00ed
:10143000c0c3b300aa03070010c0b30094030700a1
:1014400000c6b300920307007b0307008040eb0057
:10145000c0c3b300a203070020c0b3008c03070081
:101460000040eb008a030700730307008040eb0095
:1014700000cdb3009a03070060c1b30084030700e6
:1014800080c1b300820307006b0307000080fa00ed
:10149000000006000e00fa00600798008040eb0094
:1014a000c0c3b3008e03070030c0b3007803070049
:1014b00011c0b300c0c3b300bb030700af030700f4
:1014c0000080fb00000f78005b0307008040eb000a
:1014d000c0c3b3008203070040c0b3006c03070021
:1014e00011c0b300c0c3b300af030700a3030700dc
:1014f0000080fb00100798004f0307008040eb00be
:10150000c0c3b3007603070050c0b30060030700f8
:1015100011c0b300c0c3b300a303070097030700c3
:101520000080fb0020079800430307008040eb0089
:10153000c0c3b3006a03070060c0b30054030700d0
:1015400011c0b300c0c3b300970307008b030700ab
:101550000080fb0030079800370307008040eb0055
:10156000c0c3b3005e03070070c0b30048030700a8
:1015700011c0b300c0c3b3008b0307007f03070093
:101580000080fb00400798002b0307008040eb0021
:10159000c0c3b3005203070080c0b3003c03070080
:1015a00011c0b300c0c3b3007f030700730307007b
:1015b0000080fb00500798001f0307001e00780002
:1015c000c800dd001e0090000080700080007800e0
:1015d0006e009000010878006e0090000080e80026
:1015e000ae0090004809dd00be009000810071004f
:1015f000010878006e00900064004000ce0090006a
:101600004809dd00de0090008100710001087800cb
:101610000080fa00000006000e00fa006007980043
:101620008040eb0000c3b3002d03070090c2b3005d
:101630001703070011c0b30000c3b3005a0307002b
:101640004e0307000080fb00000f7800fa0207003d
:101650008040eb0000c3b3002103070080c2b30049
:101660000b03070011c0b30000c3b3004e03070013
:10167000420307000080fb0010079800ee020700fd
:101680008040eb0000c3b30015030700b0c2b300f5
:10169000ff02070011c0b30000c3b30042030700fc
:1016a000360307000080fb0020079800e2020700d5
:1016b0008040eb0000c3b30009030700a0c2b300e1
:1016c000f302070011c0b30000c3b30036030700e4
:1016d0002a0307000080fb0030079800d6020700ad
:1016e0008040eb0000c3b300fd020700d0c2b3008e
:1016f000e702070011c0b30000c3b3002a030700cc
:101700001e0307000080fb0040079800ca02070084
:101710008040eb0000c3b300f1020700c0c2b30079
:10172000db02070011c0b30000c3b3001e030700b3
:10173000120307000080fb0050079800be0207005c
:101740001e007800c800dd001e00900000804000f0
:10175000800078006e009000010878006e00900014
:101760000080e800ae0090004809dd00be00900057
:1017700081004100010878006e0090006400400084
:10178000ce0090004809dd00de009000810041009d
:10179000010878000080fa00000006000e00fa0040
:1017a000600798008040eb0000cdb300cc0207003a
:1017b000d0c1b300b602070011c0b30000cdb30022
:1017c000f9020700ed0207000080fb00000f78001f
:1017d000990207008040eb0000cdb300c002070073
:1017e000e0c1b300aa02070011c0b30000cdb300ee
:1017f000ed020700e10207000080fb0010079800df
:101800008d0207008040eb0000cdb300b40207005a
:10181000f0c1b3009e02070011c0b30000cdb300b9
:10182000e1020700d50207000080fb0020079800b6
:10183000810207008040eb0000cdb300a802070042
:1018400000c2b3009202070011c0b30000cdb30084
:10185000d5020700c90207000080fb00300798008e
:10186000750207008040eb0000cdb3009c0207002a
:1018700010c2b3008602070011c0b30000cdb30050
:10188000c9020700bd0207000080fb004007980066
:10189000690207008040eb0000cdb3009002070012
:1018a00020c2b3007a02070011c0b30000cdb3001c
:1018b000bd020700b10207000080fb00500798003e
:1018c0005d0207001e007800c800dd001e009000c9
:1018d00000807000800078006e00900001087800a1
:1018e0006e0090000080e800ae0090004809dd0026
:1018f000be00900081007100010878006e00900029
:1019000064004000ce0090004809dd00de00900039
:1019100081007100010878000080fa0000000600d4
:101920004400fa00889fbe00000220000e00400024
:1019300039ff0700600220000e004000d5fe0700be
:10194000000220000e00400010007800cf80de0072
:1019500069fc07000200200003702400f2fb07006e
:101960000001be000dfb0700c20220000e01410075
:101970000089be00000220000e0040001000900010
:10198000cf80de005cfc0700020020000370240012
:10199000e5fb07000001be0000fb0700c2022000bb
:1019a0000e01410020019800310198000002200042
:1019b0000e00400020009000cf80de004efc0700ab
:1019c0000200200003702400d7fb07000001be00c6
:1019d000f2fa0700c20220000e0141004001980007
:1019e00051019800600220000e00400010007800b5
:1019f000cf80de0040fc07000200200003702400be
:101a0000c9fb07000200200003022400bbfc070002
:101a1000820320000e0141000089be006002200008
:101a20000e00400010009000cf80de0032fc070066
:101a30000200200003702400bbfb0700020020000e
:101a400003022400adfc0700820320000e014100c8
:101a50002001980031019800600220000e00400033
:101a600020009000cf80de0023fc07000200200051
:101a700003702400acfb07000200200003022400d6
:101a80009efc0700820320000e01410040019800e7
:101a900051019800c00220000e0040001000be005e
:101aa0001bfb0700008fbe00c00220000e0040009c
:101ab000b00090002000900015fb07002007980060
:101ac000310798002e009000be00900094fb0700a4
:101ad00040079800510798002e009000be0090002b
:101ae00023fd070060079800710798001e00be00e4
:101af0008bfb0700000f9800110f98001e00be001e
:101b00001bfd0700200f9800310f98008003200074
:101b10000e0040001000be000e0990009e099000cb
:101b200076fc07000004be00800320000e00400089
:101b3000d0009000400090002e099000be09900057
:101b40006efc07000001be000800be0093fa07000b
:101b5000400f9800510f9800800320000e004000b5
:101b60001000be006e019000fe01900063fc0700b3
:101b70002e099000be09900060fc07000004be0022
:101b8000800320000e004000b00090002000900074
:101b90004e019000de01900058fc07000001be00dd
:101ba0000800be007dfa07000004be00800320008c
:101bb0000e004000d0009000400090006e019000a8
:101bc000fe0190004dfc07000e0990009e09900058
:101bd0004afc07000001be000800be006efa0700c4
:101be000600f9800710f98004e099000de09900078
:101bf0006e089000fe089000c7fa07004f04be0070
:101c00000080fa00000006000000fa0010eea900b3
:101c1000110ea9000134800000fc2f00008060003c
:101c20000040a000003488002134800000fc2f0018
:101c3000008060000040a0002034880011eea80061
:101c400011cea8007135800000f82f008080600060
:101c5000f00220000080700070358800713580002f
:101c6000f00f28008080600000e0220000807000fb
:101c7000703588000000eb005008880013e1a900cf
:101c800091088000f0fc2f00008060000040a00060
:101c9000900888000000eb00004888000000eb007e
:101ca0001048880001488000f03f2e0080806000ce
:101cb000004020000080700000488800014880003b
:101cc00080ff2f00008060006000b30000488800a3
:101cd00010488000f001b3001048880000352c0047
:101ce000204888008038210030488800010a8000a0
:101cf00080ff2f0000806000000a88000000eb00d9
:101d0000300a88000000eb00000a88000000eb00a9
:101d1000100a880001428000f0f82f000080600067
:101d20000040a000004288000028a900010a8000ad
:101d3000f03f2e0000806000000a8800010a800049
:101d4000f0f92f0000806000000a8800410a80003e
:101d500080ff2f0000806000400a88000000eb0038
:101d6000700a88000000eb00400a88000000eb00c9
:101d7000500a880011428000f0f82f0000806000b7
:101d80000040a0001042880000a8a900410a80007d
:101d9000f03f2e0000806000400a8800410a800069
:101da000f0f92f0000806000400a8800010a8000de
:101db00080ff2f00008060000000a000000a880063
:101dc0002028a800410a800080ff2f0000806000ca
:101dd0000000a000400a880020a8a80013e1a80085
:101de0000080fa0000000600809fbe00829fbe00b7
:101df0003200f80000002000900188000000000080
:101e00000000fa000028a90000808000e10f5000c7
:101e10000a003a00917080000000280000806000f5
:101e2000e00f500005003200200a8000608088002a
:101e30000000eb00008088000a003700200a8000c4
:101e40007080880010002000008088007180800071
:101e50006080800000805000cf80de00108088000d
:101e6000218088001280800023808000b012200032
:101e700001002000800f5100818f590002003c00ba
:101e800012eea8000100370012eea9000080fa004f
:101e90003200f9004f01be004f00be0000400600b6
:101ea000809fbe00829fbe003200f800000020002c
:101eb00090018800000000000000fa0000a8a900be
:101ec00030808000e10f50000a003a0091708000dd
:101ed0000000240000806000e00f50000500320088
:101ee000600a8000808088000000eb00308088005d
:101ef0000a003700600a80009080880010002000ef
:101f000030808800918080008080800000805000b8
:101f1000cf80de00408088005180880042808000b1
:101f200053808000b012200001002000800f51007b
:101f3000818f590002003c00130ea80001003700f9
:101f4000130ea9000080fa003200f9004f01be0014
:101f50004f00be00004006000000fa000e0ea80070
:101f60000000eb00001988000000eb001019880049
:101f70000000eb00201988000000eb009019880099
:101f800021e3a90021a3a9002143a9000119800090
:101f9000f0cf2f0000806000001988000119800038
:101fa000000e200000807000001988002043a90066
:101fb0002119800000f021000080700020198800a5
:101fc0004119800000fe2f00008060004019880049
:101fd00021e3a8000080fa00000006000800fa00d3
:101fe000604798002023a80000000000001980002e
:101ff00061006000e00f5000fcff32002003a900e8
:1020000000188000000f78006e4090000000fb0078
:1020100061042000810f500007003200b10420004d
:10202000810f50003700320031042000810f500032
:1020300013003200560037001e007800cf80de000b
:10204000a21420008209b800e002b80084017800e0
:1020500003014100a31420000300b8000101410066
:1020600082007800f23f20000300200070fa070091
:1020700010079800210798001e00900045003700c7
:102080001e007800cf80de00a21420008209b80074
:10209000e002b8008401780003014100a31420008d
:1020a0000300b8000101410082007800f23f2000e7
:1020b000030020005efa0700e509b800e002b8005e
:1020c0008401780003014100530020000300b800a0
:1020d000010141008200780002f62f00f3ff2f007b
:1020e0000000410081804900920020000300200090
:1020f0004ffa070010079800210798001e00900073
:10210000240037001e007800cf80de00a2142000db
:102110008209b800e002b8008401780003014100a0
:10212000a31420000300b8000101410082007800e0
:10213000f23f2000030020003dfa0700e509b80047
:10214000e002b80084017800030141005300200040
:102150000300b800010141008200780002f62f0060
:10216000f3ff2f0000004100818049009200200011
:10217000030020002efa0700f010b0000180b0002c
:1021800010079800210798001e00900001003700fa
:10219000001880000080fa00000006000000fa002d
:1021a00060c4b3008dff0700a08088000080fa00a3
:1021b000000006000200fa00000f78001e00780000
:1021c000e500b80001f62f0080804000900020005c
:1021d00000017800110009008200d8000080fa0098
:1021e000000006000400fa0007e2a900e001200058
:1021f000201088000722a8000228a90007e2a800f2
:102200000742a90000108000100798000000eb00b2
:10221000000f780002003700000000001e0fe800e9
:10222000703821009e007800808f5000faff340043
:102230000080fa00000006000200fa000642a80032
:10224000000000003010800064006000e00f5000cb
:10225000fcff3a000662a9000228a90008e2a900d2
:102260000942a9000000eb00000f780002003700cf
:10227000000000001e0fe800703821009e0078006a
:10228000808f5000faff34000080fa000000060042
:102290000200fa00004f78000000000040108000ab
:1022a00061006000e00f5000fcff3a000228a90026
:1022b0001e00fb001010880000000000411080008c
:1022c0000000240000806000e00f5000fbff3a0097
:1022d00000000000000000000080fa00000006007e
:1022e0000400fa00204798003147980006a2a90090
:1022f0000000eb00000f78000000eb00000f7800fa
:1023000002003700000000001e0fe800703e2000b1
:102310009e007800808f5000faff34000602a8006b
:10232000000000003010800061006000e00f5000ed
:10233000fcff3a00ae4090003e40900000c07000ac
:10234000d3ff07000080fa00000006000000fa003a
:102350000662a800000000004010800062006000db
:10236000e00f5000fcff32000682a8000010800041
:10237000004078000080fa00000006000000fa002b
:102380000662a800000000004010800062006000ab
:10239000e00f5000fcff3200001080000040780089
:1023a0000080fa00000006000200fa00004f7800ea
:1023b000114798000622a80000000000000000005d
:1023c0003010800062006000e00f5000fcff3a0017
:1023d000000000004010800061006000e00f50002d
:1023e000fcff3a000228a9001e4090001e40700029
:1023f0000000fb0010108800000000004110800069
:102400000000240000806000e00f5000fbff3a0055
:102410000080fa00000006000000fa000682a80012
:102420000080fa00000006000000fa0011aea900ca
:1024300001eca900012ca900010ca800300020002b
:102440001060880000e22400206088000000eb009b
:10245000106288000000eb001061880043cca800e7
:10246000438ca9000000eb0000628800404ca900ea
:102470000000eb00406288000065240030628800a4
:102480000000eb005062880001eca8000080fa0018
:10249000000006000200fa00000f780080702000a3
:1024a0009e007800808f500007003c001e007800de
:1024b000e00f500004003500405224001e00400090
:1024c0003062880002003700c0c2240030628800f9
:0824d0000080fa000000060084
:020000040000fa
:1024d8000c10000008000000800000000010000040
:1024e8000c00000082000000010000000000000055
:1024f80001000000000000001410000002000000ad
:102508008200000000000000161000000200000019
:102518008000000018100000020000008000000089
:0425280000000000af
:020000040000fa
:10252c001000fa00abfb070010cea90012cea900d8
:10253c00f8fc0700008fbe001e00be004af9070021
:10254c0000007800e00f500002003a0012cea80004
:0c255c00f7ff370012cea900f5ff370092
:020000040000fa
:04afe000cfff00009f
:020000040000fa
:04afe400efff00007b
:020000040000fa
:04afe8007fff0000e7
:020000040000fa
:04afec00bfff0000a3
:020000040000fa
:04aff000bfff00009f
:020000040000fa
:04aff400ffff00005b
:00000001FF
