:020000040000fa
:080000000002040000000000f2
:020000040000fa
:10000800c8020000c8020000c8020000c8020000c0
:10001800c8020000c8020000c8020000c8020000b0
:10002800c8020000fa030000c8020000c80200006d
:10003800c802000056040000c8020000c802000000
:10004800c8020000c8020000c8020000c802000080
:10005800c8020000c8020000c8020000c802000070
:10006800c8020000c8020000c8020000c802000060
:10007800c8020000c8020000c8020000c802000050
:020000040000fa
:100400008f0121000eff21000e0188000000000076
:100410000c000700a07c2000010020000f00070056
:10042000000020000000e000020032000000020096
:100430000000000006070200000000000040da0093
:100440000000fe00000020000000e000020032007a
:10045000000020009001880000000600a102880032
:10046000800078000000eb001a003700e2804000b6
:1004700054a0b4009101ba00e280400054a0b4003e
:100480009102ba00e280400054a0b4000002eb00e8
:10049000472bde00f507b200a6018800602ce100c2
:1004a00008003a000049eb000201e80002003900b0
:1004b0003420ec0002f0a0008301e900f9ff3e00c7
:1004c000040037006128e100010032000082eb00e7
:1004d000040007001101ba000200e000e3ff3a0047
:1004e0000000060004d0a300e20f49001c00390000
:1004f000810278003549ba000201e80002003900a3
:100500003420ec0002f0a0008301e9000f0032006b
:100510002549ba000201e800020039003420ec004d
:1005200002f0a0008301e900080032000400e000ae
:100530000600320015c9ba000201e80002003900c5
:100540003420ec0002f0a0008301e9008180e80083
:1005500054a0b4000300e000e2ff3a0000000600ef
:100560009102ba00055978008301e900f7ff3200d3
:10057000c82ade00055978008301e900f3ff320044
:100580000400e000f1ff320011d9ba00eeff37009d
:100590000040da000000fe00839f68000100e000d8
:1005a00002003d0060001000e08018000300e00041
:1005b00002003d0060011100e08119000500070004
:1005c0004f00e00002003b0060001000e0801800d7
:1005d000000006006022b800060220000000d000e3
:1005e0008180d2000482d2008582d2000000a00067
:1005f0000202520083825a000300310002024200cc
:1006000083824a000000a1000603e900f3ff3a00dc
:0406100000000600e0
:020000040000fa
:100614000000fa0010eea900110ea90001348000b8
:1006240000fc2f00008060000040a000003488001f
:100634002134800000fc2f00008060000040a000f6
:100644002034880011eea80011cea8007135800076
:1006540000f82f0080806000f0022000008070000d
:100664007035880071358000f00f280080806000ac
:1006740000e0220000807000703588000000eb006c
:100684005008880013e1a90091088000f0fc2f00b5
:10069400008060000040a000900888000000eb008b
:1006a400004888000000eb001048880001488000e2
:1006b400f03f2e0080806000004020000080700029
:1006c400004888000148800080ff2f0000806000ff
:1006d4006000b3000048880010488000f001b300b7
:1006e4001048880000352c002048880080382100fc
:1006f40030488800010a800080ff2f0000806000dd
:10070400000a88000000eb00300a88000000eb00bb
:10071400000a88000000eb00100a880001428000f3
:10072400f0f82f00008060000040a0000042880024
:100734000028a900010a8000f03f2e00008060001c
:10074400000a8800010a8000f0f92f000080600090
:10075400000a8800410a800080ff2f0000806000aa
:10076400400a88000000eb00700a88000000eb00db
:10077400400a88000000eb00500a88001142800003
:10078400f0f82f00008060000040a00010428800b4
:1007940000a8a900410a8000f03f2e0000806000fc
:1007a400400a8800410a8000f0f92f0000806000b0
:1007b400400a8800010a800080ff2f00008060004a
:1007c4000000a000000a88002028a800410a800038
:1007d40080ff2f00008060000000a000400a880015
:1007e40020a8a80013e1a8000080fa000000060079
:1007f400809fbe00829fbe003200f80000002000ef
:1008040090018800000000000000fa000028a90000
:1008140000808000e10f50000a003a0091708000cf
:100824000000280000806000e00f50000500320046
:10083400200a8000608088000000eb0000808800af
:100844000a003700200a8000708088001000200011
:1008540000808800718080006080800000805000eb
:10086400cf80de0010808800218088001280800004
:1008740023808000b012200001002000800f51006e
:10088400818f590002003c0012eea80001003700dd
:1008940012eea9000080fa003200f9004f01be00f8
:1008a4004f00be0000400600809fbe00829fbe0035
:1008b4003200f800000020009001880000000000d1
:1008c4000000fa0000a8a90030808000e10f500069
:1008d4000a003a009170800000002400008060004b
:1008e400e00f500005003200600a8000808088001c
:1008f4000000eb00308088000a003700600a8000a6
:100904009080880010002000308088009180800052
:100914008080800000805000cf80de00408088000e
:10092400518088004280800053808000b0122000f3
:1009340001002000800f5100818f590002003c000b
:10094400130ea80001003700130ea9000080fa005e
:100954003200f9004f01be004f00be000040060007
:100964000000fa000e0ea8000000eb000019880039
:100974000000eb00101988000000eb00201988002b
:100984000000eb009019880021e3a90021a3a9002d
:100994002143a90001198000f0cf2f0000806000de
:1009a4000019880001198000000e200000807000ea
:1009b400001988002043a9002119800000f02100bb
:1009c40000807000201988004119800000fe2f006b
:1009d400008060004019880021e3a8000080fa002c
:1009e400000006000800fa00604798002023a800d1
:1009f400000000000019800061006000e00f50005a
:100a0400fcff32002003a90000188000000f7800ca
:100a14006e4090000000fb0061042000810f500034
:100a240007003200b1042000810f5000370032006b
:100a340031042000810f50001300320056003700ab
:100a44001e007800cf80de00a21420008209b800c6
:100a5400e002b8008401780003014100a3142000df
:100a64000300b8000101410082007800f23f200039
:100a740003002000c7fe0700100798002107980014
:100a84001e009000450037001e007800cf80de0075
:100a9400a21420008209b800e002b80084017800a2
:100aa40003014100a31420000300b8000101410028
:100ab40082007800f23f200003002000b5fe07000a
:100ac400e509b800e002b8008401780003014100a0
:100ad400530020000300b8000101410082007800a7
:100ae40002f62f00f3ff2f0000004100818049002f
:100af4009200200003002000a6fe070010079800c3
:100b0400210798001e009000240037001e00780082
:100b1400cf80de00a21420008209b800e002b800f1
:100b24008401780003014100a31420000300b800ed
:100b34000101410082007800f23f20000300200000
:100b440094fe0700e509b800e002b80084017800cb
:100b540003014100530020000300b80001014100db
:100b64008200780002f62f00f3ff2f0000004100fe
:100b740081804900920020000300200085fe0700c8
:100b8400f010b0000180b000100798002107980011
:100b94001e00900001003700001880000080fa0059
:100ba400000006000000fa0060c4b3008dff0700d7
:100bb400a08088000080fa00000006000200fa000d
:100bc400000f78001e007800e500b80001f62f0041
:100bd400808040009000200000017800110009008e
:100be4008200d8000080fa00000006000400fa0029
:100bf40007e2a90080022000201088000722a80034
:100c04000228a90007e2a8000742a90000108000fa
:100c1400100798000000eb00000f78000200370076
:100c2400000000001e0fe800703821009e007800cc
:100c3400808f5000faff34000080fa0000000600a4
:100c44000200fa000642a8000000000030108000f4
:100c540064006000e00f5000fcff3a000662a90047
:100c64000228a90008e2a9000942a9000000eb003b
:100c7400000f780002003700000000001e0fe8009b
:100c8400703821009e007800808f5000faff3400f5
:100c94000080fa00000006000400fa0020479800d3
:100ca4003147980006a2a9000000eb00000f78006d
:100cb4000000eb00000f7800020037000000000085
:100cc4001e0fe800703e20009e007800808f5000c8
:100cd400faff34000602a800000000003010800073
:100ce40061006000e00f5000fcff3a0000000000cb
:100cf4004010800061006000e00f5000fcff3a00eb
:100d04000228a900ae4090003e40900000c0700050
:100d14000000fb001010880000000000411080005b
:100d24000000240000806000e00f5000fbff3a0048
:100d34000080fa00000006000000fa000662a80025
:100d4400000000004010800062006000e00f5000ce
:100d5400fcff32000682a8000010800000407800ea
:100d64000080fa00000006000200fa00004f78003c
:100d74001e00fb00101088000000000041108000dd
:100d84000000240000806000e00f5000fbff3a00e8
:100d94000080fa00000006000200fa00004f78000c
:100da400114798000622a80000000000000000007f
:100db4003010800062006000e00f5000fcff3a0039
:100dc400000000004010800061006000e00f50004f
:100dd400fcff3a000228a9001e4090001e4070004b
:100de4000000fb001010880000000000411080008b
:100df4000000240000806000e00f5000fbff3a0078
:100e04000080fa00000006000200fa0077ff0700e5
:100e14008bff07008040eb0080c1b3009eff0700fa
:100e240000c2b300d0ff070070c2b300ceff0700ba
:100e340083ff07008040eb0080c1b30096ff0700ea
:100e440030c2b300c8ff070000c4b300c6ff0700e8
:100e54007bff07008040eb00c0c3b3008eff070098
:100e64000040eb00c0ff070080c1b300beff0700d5
:100e740073ff07008040eb00c0c3b30086ff070088
:100e840020c0b300b8ff07000040eb00b6ff070026
:100e94008040eb0080c6b3007fff070060c1b30051
:100ea400b1ff070080c1b300afff070064ff070074
:100eb4008040eb00c0c3b30077ff070030c0b3002d
:100ec400a9ff070011c0b300c0c3b30072ff07003d
:100ed40099ff0700004f780059ff0700f4ff37001f
:100ee4000000fa0011aea90001eca900012ca90030
:100ef400010ca800300020001060880000e22400eb
:100f0400206088000000eb00106288000000eb0005
:100f14001061880043cca800438ca9000000eb00ba
:100f240000628800404ca9000000eb004062880089
:100f340000652400306288000000eb0050628800e5
:100f440001eca8000080fa00000006000200fa008c
:100f5400000f7800807020009e007800808f500081
:100f640007003c001e007800e00f5000040035002c
:100f7400405224001e004000306288000200370006
:100f8400c0c22400306288000080fa00000006001d
:020000040000fa
:100f94000c10000008000000800000000010000099
:100fa4000c000000820000000100000000000000ae
:100fb4000100000000000000141000000200000006
:100fc4008200000000000000161000000200000073
:080fd400800000000000000095
:020000040000fa
:04afe000cfff00009f
:020000040000fa
:04afe400efff00007b
:020000040000fa
:04afe8007fff0000e7
:020000040000fa
:04afec00bfff0000a3
:020000040000fa
:04aff000bfff00009f
:020000040000fa
:04aff400ffff00005b
:00000001FF
