:020000040000fa
:080000000002040000000000f2
:020000040000fa
:10000800c8020000c8020000c8020000c8020000c0
:10001800c8020000c8020000c8020000c8020000b0
:10002800c8020000360800000e080000c8020000e0
:10003800c802000054080000c8020000c8020000fe
:10004800c8020000c8020000c8020000c802000080
:10005800c8020000c8020000c8020000c802000070
:10006800c8020000c8020000c8020000c802000060
:10007800c8020000c8020000c8020000c802000050
:020000040000fa
:10040000af0121000eff21000e0188000000000056
:100410000c00070060b32000010020000f0007005f
:10042000000020000000e000020032000000020096
:100430000000000076090200000000000040da0021
:100440000000fe00000020000000e000020032007a
:10045000000020009001880000000600a102880032
:10046000800078000000eb001a003700e2804000b6
:1004700054a0b4009101ba00e280400054a0b4003e
:100480009102ba00e280400054a0b4000002eb00e8
:10049000472bde00f507b200a6018800602ce100c2
:1004a00008003a000049eb000201e80002003900b0
:1004b0003420ec0002f0a0008301e900f9ff3e00c7
:1004c000040037006128e100010032000082eb00e7
:1004d000040007001101ba000200e000e3ff3a0047
:1004e0000000060004d0a300e20f49001c00390000
:1004f000810278003549ba000201e80002003900a3
:100500003420ec0002f0a0008301e9000f0032006b
:100510002549ba000201e800020039003420ec004d
:1005200002f0a0008301e900080032000400e000ae
:100530000600320015c9ba000201e80002003900c5
:100540003420ec0002f0a0008301e9008180e80083
:1005500054a0b4000300e000e2ff3a0000000600ef
:100560009102ba00055978008301e900f7ff3200d3
:10057000c82ade00055978008301e900f3ff320044
:100580000400e000f1ff320011d9ba00eeff37009d
:100590000040da000000fe00320020005e0037005c
:1005a00003f0a200889fbe008a9fbe008c1f7800c7
:1005b0005e010700650133006450e1004f00320026
:1005c0006420e1005200320003826c0007003b000f
:1005d0000905d0000306d000820f54000c065d0010
:1005e0000200390002003200890178000306780019
:1005f0008582550004003d000003fd008103fd00dd
:100600008502ea008b854200840f720002003b00e5
:1006100060001000e08018006011b8000005eb00d9
:100620007a28e1000a00390006007800c75ddd0085
:10063000f707b200878075002d00370082817100b6
:100640000a017800610560008180d1000080d3003c
:100650008502e900f9ff3b0006044000878448005a
:1006600002003b0060041400e0841c000988a30021
:10067000070032008a81710082817100610164008b
:100680008904d1000884d3008b05e80017003700e7
:100690000978a30013003a000b00e00013003400b7
:1006a0008b05e9000804440089844c000a44740066
:1006b0000978a3000d003a000b00e00007003400a9
:1006c0008b05e9000804440089844c0001003a00cd
:1006d0000b0020000978a300f7ff32000001eb00b7
:1006e00002003700828171000a017800d4000700ff
:1006f0000cf0a70001f0a0001d0137006420e1000c
:1007000002003a00838f6c001d0133000801be0017
:100710000200be0016013700889fbe008a9fbe00ff
:100720008c9fbe000206780001f0a7000cf0a0002c
:100730000004be00e80007000800be006420e100dd
:100740000700390002003a00f1ff2700f0ff2f00f8
:100750000160a00012022000c28088005100370012
:1007600009f0a1000800be000200200003f82300e9
:1007700094000700f4ff3c000800be0002002000c7
:10078000039823008d0007000800be0030003500ec
:100790000200200003f023008a00070005003c004f
:1007a0000800be000801be00f80007000005be00fa
:1007b0000e0037000c10a2000000200001f82300fa
:1007c0000801be0076ff07000200200003f02300ae
:1007d000ee0007000005be00200107000200200017
:1007e00003002c00e90007000004be000a00be0060
:1007f000b2d02800130b2c006aff07000a01be00cc
:10080000e2000700020f2500330b240065ff0700fc
:10081000809fbe000a00be005206220013f02b008b
:10082000da000700b2662100f3f623005dff07003f
:100830000a01be00d50007004f01be001d000700e1
:100840000801be00d10007000801be0055ff0700e7
:100850000c00a70007003700b2fd200093fc230026
:100860000c10a7004fff07000cf0a70001f0a2003a
:100870000c0037000cf0a7000200370001f0a200c6
:1008800004003700b2fd2000930424000c10a600e1
:1008900003003700b2fd200093fc23000c10a700da
:1008a00040ff07004f06be004f05be004f04be00cc
:1008b00000000600889fbe008a9fbe008c1f780043
:1008c0009a000700a100330003866c006450e10029
:1008d0002e0032006420e100330032006150e1005c
:1008e0002f0032006120e100310032008585550083
:1008f000eb07b000090020000804200005003700c5
:100900000804440089844c000a00310006034300b7
:1009100087834b000001530081815b00f8ff3300a7
:100920000203be000800a0000804440089844c00b3
:10093000f6ff3900c639dd00830173000100320083
:10094000130020008904d1000884d3000998a30073
:10095000050032000800a7000300a0008904d100b0
:100960000884d3008b05e8008904d1000884d300f3
:100970000001eb000281d2003100070001f0a1006c
:100980000cf0a70001f0a000790037006420e1001e
:100990007b0032000801be000200be00f7ff3700f6
:1009a0006120e100760032006000b800f3ff3700fc
:1009b0000000200001f82700f0ff3700140020009d
:1009c000db003700f4ff2f00d90037000001be0024
:1009d000410007000470a70003f0a10003f8a30082
:1009e00013003a006509b10010003200090035001b
:1009f0006928e10002003500010028000000050020
:100a000000004000818048008502e900fcff3a00b8
:100a100000000600f88f4200050035008100d1007b
:100a20000080d3008502e800fcff3a0000000600c9
:100a30008000eb00000005006011b800d70037000f
:100a400081002000618055000b003d000b0020005c
:100a500061fe2f000100e1001d0034008281710061
:100a6000610164008904d1000884d3000000e8001b
:100a7000faff3a007100200061006400030070007a
:100a8000020060000900320061044400e0844c0070
:100a90000988a500050032008b05e8006808e10020
:100aa00002003a008904d1000884d300f20f20002c
:100ab0000258e10005003d00c75ddd00f907b20006
:100ac0008980750008007800000006000bf82700f8
:100ad0008b00780000000500c70ade00f107b200b5
:100ae000f50fb20008003200e1cf420002003200f0
:100af0000170a00024000500810f70000100320089
:100b00000408050044000500810f700002003a004f
:100b1000140005008502e9000000400081c0480083
:100b2000fcff3b000170a000240005000004be0093
:100b3000e9ff07000003be000405be000200be007e
:100b4000e5ff0700844f7500000006000200be00ac
:100b50006450e100050036006420e1000200360028
:100b60000968a30001003a000800be000160a0006f
:100b70004f0678004f05be004f04be00000006007f
:100b8000f0ff2f00f1ff2700f9ff3700889fbe001c
:100b90008a9fbe008c1f7800e4ff0700ebff330044
:100ba00003866c006450e100240032006420e10000
:100bb000270032006150e100220032006120e10094
:100bc000210032008b854200eb07b1000134b800f0
:100bd000003ab8000804420089844a00013ab8008b
:100be0000030b8008880400009014a00040033004a
:100bf0000000400081804800020149008b05e900a7
:100c0000c909dd00830170000100320013002000db
:100c1000c814de004814dd004709de001200b200ef
:100c2000c808de000884700085ff070001f0a100fd
:100c30000cf0a70001f0a000cdff37006120e1001b
:100c4000cfff32000801be000200be00f7ff3700f0
:100c50006150e100fcff3a00c9ff3700889fbe00e9
:100c60008a9fbe008c1f78000004be009aff070018
:100c70000478a30026003a006120e100250032003c
:100c800009f8a30025003a006420e10021003200a9
:100c9000f507b1000508a300020032000000400083
:100ca000818048006044b80003102000020020004a
:100cb00000004000818048000805440089854c0000
:100cc0000a0541008b8549000a0550008b855800b4
:100cd000030033000a00be00020474008384740021
:100ce0008301d1000281d300830f7100f0ff3a002d
:100cf0008904d1000884d300600149008201780092
:100d0000c1adde00fb07b0004dff070098ff3700c4
:100d10000960a0000800be0095ff37001202200005
:100d2000c2808800f0ff2f00f1ff270090ff3700fe
:100d3000889fbe008a9fbe00841f78007bff07004b
:100d40004f00780011003300f0ff2f00838f6c00fc
:100d500006003b00040565000a00a70008003700f4
:100d600009f0a6001000200008003700820f540090
:100d7000838f5c00030039001000200001003e005a
:100d80000000200009f0a7000000ea004f05be00a7
:100d90004f04be000000e00000000600889fbe0077
:100da0008a9fbe00008270000402710004827100fc
:100db000260032000004be000200be006011b80030
:100dc0006b092000950220000182cf000a00390043
:100dd0000541b1000082cf00070039000541b10094
:100de0000982cf00040039000541b1000882cf001c
:100df000010039000541b1000542520012003200e5
:100e00000a003b0082817100610164008100d10011
:100e10000080d3008984d3000884d3008b05e800c8
:100e20000442e800f7ff3a000700370008044400d6
:100e300089844c0000004800818048008b05e9004f
:100e40000442e900f9ff3a00fdfe07004f05be002d
:080e50004f04be000000060083
:020000040000fa
:100e58000000fa004134800000fc2f000080600090
:100e68000040a0004034880011eea80011cea80070
:100e78007135800000f82f0080806000f0022000ab
:100e8800008070007035880071358000f00f2800f0
:100e98008080600000e022000080700070358800cb
:100ea8000000eb005008880013e1a90091088000b9
:100eb800f0fc2f00008060000040a000900888002f
:100ec8000000eb00004888000000eb001048880094
:100ed80001488000f03f2e00808060000040200024
:100ee80000807000004888000148800080ff2f00c3
:100ef800008060006000b30000488800104880004f
:100f0800f001b300104888000053270020488800eb
:100f1800007d20003048880001428000f08f2f00bb
:100f2800808060000010200000807000004288006f
:100f38000048a900010a800080ff2f00008060009f
:100f4800000a88000000eb00300a88000000eb006f
:100f5800000a88000000eb00100a880001428000a7
:100f6800f0f82f00008060000040a00000428800d8
:100f78000028a900010a8000f03f2e0000806000d0
:100f8800000a8800410a800080ff2f00008060006e
:100f9800400a88000000eb00700a88000000eb009f
:100fa800400a88000000eb00500a880011428000c7
:100fb800f0f82f00008060000040a0001042880078
:100fc80000a8a900410a8000f03f2e0000806000c0
:100fd800400a8800010a800080ff2f00008060001e
:100fe8003000b300000a88002028a800410a8000c9
:100ff80080ff2f00008060003000b300400a8800a6
:1010080020a8a8002048a80013e1a8000080fa0042
:1010180000000600809fbe003200f800000020009b
:1010280090018800000000000000fa000048a900b4
:10103800917080000000280000806000e00f5000e0
:1010480004003a000000eb00300a88000000eb00c2
:10105800700a88000080fa003200f9004f00be00d4
:1010680000400600801f78003200f80000002000d1
:1010780090018800000000000000fa000028a90084
:10108800200a80002080880010c0b3000cf0b70050
:101098000080fa003200f9004f0078000040060096
:1010a800801f78003200f8000000200090018800be
:1010b800000000000000fa0000a8a900600a8000f3
:1010c8003080880010c0b3000df0b7000080fa002f
:1010d8003200f9004f007800004006000800fa00ce
:1010e80020079800310798000000eb00000f7800f7
:1010f8000080800011808000020020000327240067
:10110800a0fe070002e027001370240023fd07005b
:101118002cfe0700100798001e0090000000d10068
:101128000100200042fe07002e019000be01900041
:1011380094fe070023fe0700000f78001e007800c9
:101148000080fa00000006001a00fa00881f7800e4
:10115800208080000100200035fe0700d27b23009c
:101168006348230087fe0700dcff0700000f7800b4
:1011780030808000010020002dfe0700d27b230074
:10118800634823007ffe0700d4ff0700100798007c
:1011980040808000200798009e0090001e0090006c
:1011a8008008b800800078002e0190002e00900082
:1011b8008010b800808040001e0178001e00780072
:1011c8008010b800808050001e0190002e00900012
:1011d8008010b800000040000001780011000900ec
:1011e8008280d8000100200011fe07003007980017
:1011f800410798003e009000ce009000e4fc0700f4
:1012080050079800610798009e0078001e0078003b
:101218008008b800800078002e0190002e00900011
:101228008010b800808040001e0190001e009000d1
:101238008010b800808050001e0178002e009000b9
:101248008010b8000000400000017800110009007b
:101258008280d80001002000f5fd07007007980083
:10126800010f98007e0090008e089000c8fc0700cf
:10127800100f9800210f98001e099000ae099000e9
:101288005e009000ee009000c3fc0700300f98004d
:10129800410f98003e089000ce08900001f0a10090
:1012a80018c0b30002002000030a2400c1fd070093
:1012b800e00f5000010034000044eb00e04f540000
:1012c8000300320000002000412324000200370000
:1012d8003e089000ce0890004f0478000080fa0085
:1012e800000006000000fa00d9fe070003003700de
:1012f8000000000001003700000000000cd0bf0013
:10130800e04f5000faff32000dd0bf00e04f500010
:10131800f9ff32008cff0700aafd070000007800e3
:10132800508088000000000000000000f3ff370034
:101338000000fa0041348000f00f2c00808060002b
:101348000000210000807000403488004134800093
:1013580000fc2f00008060000040a000403488009e
:101368001134800000fc2f00008060000040a000c5
:101378001034880011348000f00f2c008080600049
:1013880000002100008070001034880011eea800d1
:1013980011cea80011aea800118ea80071358000ea
:1013a80000f82f0080806000f002200000807000ac
:1013b8007035880071358000f00f2800808060004b
:1013c80000e02200008070007035880081358000c0
:1013d80000f82f0080806000d0022000008070009c
:1013e8008035880081358000f00f280080806000fb
:1013f80000c0220000807000803588000000eb00eb
:101408005008880013e1a90091088000f0fc2f0023
:10141800008060000040a000900888000000eb00f9
:10142800004888000000eb00104888000148800050
:10143800f03f2e0080806000004020000080700097
:10144800004888000148800080ff2f00008060006d
:101458006000b3000048880010488000f001b30025
:101468001048880000532700204888000071220097
:1014780030488800010a800080ff2f00008060004b
:10148800000a88000000eb00300a88000000eb002a
:10149800000a88000000eb00100a88000142800062
:1014a800f0f82f00008060000040a0000042880093
:1014b8000028a900010a8000f03f2e00008060008b
:1014c800000a8800010a8000f0f92f0000806000ff
:1014d800000a8800410a800080ff2f000080600019
:1014e800400a88000000eb00700a88000000eb004a
:1014f800400a88000000eb00500a88001142800072
:10150800f0f82f00008060000040a0001042880022
:1015180000a8a900410a8000f03f2e00008060006a
:10152800400a8800410a8000f0f92f00008060001e
:10153800400a8800810a800080ff2f000080600038
:10154800800a88000000eb00b00a88000000eb0069
:10155800800a88000000eb00900a88009142800011
:10156800f0f82f00008060000040a0009042880042
:1015780004a8a900810a8000f03f2e0000806000c6
:10158800800a8800810a8000f0f92f00008060003e
:10159800800a8800c10a800080ff2f000080600058
:1015a800c00a88000000eb00f00a88000000eb0089
:1015b800c00a88000000eb00d00a88009142800031
:1015c800f08f2f00808060000010200000807000e5
:1015d8009042880004c8a900c10a8000f03f2e008c
:1015e80000806000c00a8800c10a8000f0f92f005e
:1015f80000806000c00a8800010a800080ff2f0078
:10160800008060000000a000000a88002028a800d0
:10161800410a800080ff2f00008060000000a000c9
:10162800400a880020a8a800810a800080ff2f00b7
:10163800008060000000a000800a880024a8a8009c
:10164800c10a800080ff2f00008060000000a00019
:10165800c00a880024c8a80013e1a8000080fa0086
:041668000000060078
:020000040000fa
:10166c00001000000e000000820000000000a80026
:10167c004100000000000a00000000000000000013
:10168c000e1000000a0000008200000000000000a4
:10169c000000000000000a0000000000181000000c
:0c16ac00020000008000000000000000b0
:00000001FF
