:020000040000fa
:080000000002040000000000f2
:020000040000fa
:1000080004090000040900000409000004090000b4
:1000180004090000040900000409000004090000a4
:10002800040900002e16000004090000040900005d
:10003800040900008a1600000409000004090000f1
:100048000409000004090000320800000409000047
:100058000409000004090000040900000409000064
:100068000409000004090000040900000409000054
:100078000409000004090000040900000409000044
:10008800040900000409000004090000c802000077
:100098000409000004090000040900000409000024
:1000a8000409000004090000040900000409000014
:1000b8000409000048110000a41100000409000010
:1000c80004090000040900000409000004090000f4
:1000d80004090000040900000409000004090000e4
:1000e80004090000040900000409000004090000d4
:1000f80004090000040900000409000004090000c4
:1001080004090000040900000409000004090000b3
:1001180004090000040900000409000004090000a3
:100128000409000004090000040900000409000093
:100138000409000004090000040900000409000083
:100148000409000004090000040900000409000073
:100158000409000004090000040900000409000063
:100168000409000004090000040900000409000053
:100178000409000004090000040900000409000043
:100188000409000004090000040900000409000033
:100198000409000004090000040900000409000023
:1001a8000409000004090000040900000409000013
:1001b8000409000004090000040900000409000003
:1001c80004090000040900000409000004090000f3
:1001d80004090000040900000409000004090000e3
:1001e80004090000040900000409000004090000d3
:1001f80004090000040900000409000004090000c3
:1002080004090000040900000409000004090000b2
:1002180004090000040900000409000004090000a2
:100228000409000004090000040900000409000092
:100238000409000004090000040900000409000082
:100248000409000004090000040900000409000072
:100258000409000004090000040900000409000062
:100268000409000004090000040900000409000052
:0c02780004090000040900000409000053
:020000040000fa
:10040000ef0521000eff21000e0188000000000012
:100410000c000700e0942100010020000f000700fd
:10042000000020000000e000020032000000020096
:100430000000000046140200000000000040da0046
:100440000000fe00000020000000e000020032007a
:10045000000020009001880000000600a102880032
:10046000800078000000eb001a003700e2804000b6
:1004700054a0b4009101ba00e280400054a0b4003e
:100480009102ba00e280400054a0b4000002eb00e8
:10049000472bde00f507b200a6018800602ce100c2
:1004a00008003a000049eb000201e80002003900b0
:1004b0003420ec0002f0a0008301e900f9ff3e00c7
:1004c000040037006128e100010032000082eb00e7
:1004d000040007001101ba000200e000e3ff3a0047
:1004e0000000060004d0a300e20f49001c00390000
:1004f000810278003549ba000201e80002003900a3
:100500003420ec0002f0a0008301e9000f0032006b
:100510002549ba000201e800020039003420ec004d
:1005200002f0a0008301e900080032000400e000ae
:100530000600320015c9ba000201e80002003900c5
:100540003420ec0002f0a0008301e9008180e80083
:1005500054a0b4000300e000e2ff3a0000000600ef
:100560009102ba00055978008301e900f7ff3200d3
:10057000c82ade00055978008301e900f3ff320044
:100580000400e000f1ff320011d9ba00eeff37009d
:10059000801f78000000fa000368a9001000200006
:1005a000a08288000080fa004f007800004006001a
:1005b0000000fa00a80a0700bc0a07008040eb0010
:1005c00000c3b300e30a070000c2b300cd0a07006e
:1005d000f0c2b300cb0a0700b40a07008040eb006a
:1005e000c0c3b300db0a07000040eb00c50a0700e8
:1005f00080c0b300c30a0700ac0a07008040eb00cc
:10060000c0c3b300d30a070010c0b300bd0a07007f
:1006100000c6b300bb0a0700a40a07008040eb0035
:10062000c0c3b300cb0a070020c0b300b50a07005f
:100630000040eb00b30a07009c0a07008040eb0073
:1006400000cdb300c30a070060c1b300ad0a0700c4
:1006500080c1b300ab0a0700940a07000000eb005a
:10066000a00888000000eb00f0088800f108800076
:100670000003200000807000f008880061428000c4
:10068000f0ff2800808060000000210000807000e2
:10069000604288000368a9002368a8001fe1a80041
:1006a0000080fa00000006000e00fa0060079800c3
:1006b0008040eb00c0c3b300a60a070030c0b300ff
:1006c000900a070011c0b300c0c3b300d30a0700eb
:1006d000c70a07000080fb00000f7800730a0700bc
:1006e0008040eb00c0c3b3009a0a070040c0b300cb
:1006f000840a070011c0b300c0c3b300c70a0700d3
:10070000bb0a07000080fb0010079800670a07007b
:100710008040eb00c0c3b3008e0a070050c0b30096
:10072000780a070011c0b300c0c3b300bb0a0700ba
:10073000af0a07000080fb00200798005b0a070053
:100740008040eb00c0c3b300820a070060c0b30062
:100750006c0a070011c0b300c0c3b300af0a0700a2
:10076000a30a07000080fb00300798004f0a07002b
:100770008040eb00c0c3b300760a070070c0b3002e
:10078000600a070011c0b300c0c3b300a30a07008a
:10079000970a07000080fb0040079800430a070003
:1007a0008040eb00c0c3b3006a0a070080c0b300fa
:1007b000540a070011c0b300c0c3b300970a070072
:1007c0008b0a07000080fb0050079800370a0700db
:1007d0001e007800c800dd001e0090000080700040
:1007e000800078006e009000010878006e00900094
:1007f0000080e800ae0090004809dd00be009000d7
:1008000081007100010878006e00900064004000d3
:10081000ce0090004809dd00de00900081007100ec
:10082000010878000080fa00000006000e00fa00bf
:10083000600798008040eb0000c3b300450a070042
:1008400090c2b3002f0a070011c0b30000c3b30069
:10085000720a0700660a07000080fb00000f78009c
:10086000120a07008040eb0000c3b300390a0700fa
:1008700080c2b300230a070011c0b30000c3b30055
:10088000660a07005a0a07000080fb00100798005c
:10089000060a07008040eb0000c3b3002d0a0700e2
:1008a000b0c2b300170a070011c0b30000c3b30001
:1008b0005a0a07004e0a07000080fb002007980034
:1008c000fa0907008040eb0000c3b300210a0700cb
:1008d000a0c2b3000b0a070011c0b30000c3b300ed
:1008e0004e0a0700420a07000080fb00300798000c
:1008f000ee0907008040eb0000c3b300150a0700b3
:10090000d0c2b300ff09070011c0b30000c3b30099
:10091000420a0700360a07000080fb0040079800e3
:10092000e20907008040eb0000c3b300090a07009a
:10093000c0c2b300f309070011c0b30000c3b30085
:10094000360a07002a0a07000080fb0050079800bb
:10095000d60907001e007800c800dd001e009000c8
:1009600000804000800078006e0090000108780050
:100970006e0090000080e800ae0090004809dd00a5
:10098000be00900081004100010878006e009000d8
:1009900064004000ce0090004809dd00de009000b9
:1009a00081004100010878000080fa000000060084
:1009b0000e00fa00600798008040eb0000cdb30005
:1009c000e4090700d0c1b300ce09070011c0b3008d
:1009d00000cdb300110a0700050a07000080fb00e4
:1009e000000f7800b10907008040eb0000cdb30094
:1009f000d8090700e0c1b300c209070011c0b30065
:100a000000cdb300050a0700f90907000080fb00cc
:100a100010079800a50907008040eb0000cdb30047
:100a2000cc090700f0c1b300b609070011c0b3003c
:100a300000cdb300f9090700ed0907000080fb00b5
:100a400020079800990907008040eb0000cdb30013
:100a5000c009070000c2b300aa09070011c0b30013
:100a600000cdb300ed090700e10907000080fb009d
:100a7000300798008d0907008040eb0000cdb300df
:100a8000b409070010c2b3009e09070011c0b300eb
:100a900000cdb300e1090700d50907000080fb0085
:100aa00040079800810907008040eb0000cdb300ab
:100ab000a809070020c2b3009209070011c0b300c3
:100ac00000cdb300d5090700c90907000080fb006d
:100ad00050079800750907001e007800c800dd0067
:100ae0001e00900000807000800078006e00900072
:100af000010878006e0090000080e800ae009000d1
:100b00004809dd00be0090008100710001087800f6
:100b10006e00900064004000ce0090004809dd00a7
:100b2000de00900081007100010878000080fa006a
:100b3000000006004400fa00889fbe00100020005c
:100b400090828800308080000017980040808000ec
:100b500010179800508080002017980000808000b7
:100b60003017980010808000401798002080800087
:100b7000501798000e109000cf80de00460307004b
:100b80000200200003702400ee0207000001be00f6
:100b9000a201070060179800711798001e109000be
:100ba000cf80de003c030700020020000370240019
:100bb000e40207000001be0098010700001f980032
:100bc000111f98002e109000cf80de003203070026
:100bd0000200200003702400da0207000001be00ba
:100be0008e010700201f9800311f98003e109000d2
:100bf000cf80de00280307000200200003702400dd
:100c0000d00207000200200003022400780307003e
:100c1000401f9800511f98004e109000cf80de00ba
:100c20001d0307000200200003702400c502070016
:100c300002002000030224006d030700601f9800db
:100c4000711f98005e109000cf80de001203070035
:100c50000200200003702400ba02070002002000f6
:100c60000302240062030700002798001127980060
:100c70006e109000fe1090002c020700008fbe0046
:100c80000e1890009e189000280207002007980078
:100c9000310798002e009000be009000a7020700c8
:100ca00040079800510798002e009000be00900069
:100cb000ec03070060079800710798001e00be0053
:100cc0009e020700000f9800110f98001e00be0042
:100cd000e4030700200f9800310f98004e18900091
:100ce000de1890000e0990009e0990004003070056
:100cf0000004be000e2090009e2090002e0990005f
:100d0000be0990003a0307000001be000800be00c3
:100d100042010700400f9800510f98004e189000b4
:100d2000de1890006e019000fe0190003003070075
:100d30002e099000be0990002d0307000004be009c
:100d40006e189000fe1890004e019000de01900099
:100d5000270307000001be000800be002f010700a6
:100d60000004be000e2090009e2090006e019000b6
:100d7000fe0190001e0307000e0990009e099000de
:100d80001b0307000001be000800be00220107008f
:100d9000600f9800710f98000000eb0090828800af
:100da0004e099000de0990006e089000fe08900049
:100db000e00107004f04be000080fa0000000600ba
:100dc0004400fa00889fbe00100020009082880036
:100dd0000000210034fe07006000210093fe0700a0
:100de000c0002100f2fe070030808000001798004c
:100df00040808000101798005080800020179800d5
:100e00000080800030179800108080004017980004
:100e100020808000501798000e109000cf80de00d8
:100e20009d02070002002000037024004502070015
:100e30000001be00f90007006017980071179800c4
:100e40001e109000cf80de009302070002002000f9
:100e5000037024003b0207000001be00ef00070002
:100e6000001f9800111f98002e109000cf80de0008
:100e700089020700020020000370240031020700ed
:100e80000001be00e5000700201f9800311f9800f8
:100e90003e109000cf80de007f020700020020009d
:100ea0000370240027020700020020000302240030
:100eb000cf020700401f9800511f98004e1090006d
:100ec000cf80de00740207000200200003702400bf
:100ed0001c0207000200200003022400c4020700d5
:100ee000601f9800711f98005e109000cf80de0098
:100ef00069020700020020000370240011020700ad
:100f00000200200003022400b90207000027980015
:100f1000112798006e109000fe10900083010700ca
:100f2000008fbe000e1890009e1890007f010700f1
:100f300020079800310798002e009000be00900016
:100f4000fe01070040079800510798002e0090000e
:100f5000be009000430307006007980071079800e7
:100f60001e00be00f5010700000f9800110f980049
:100f70001e00be003b030700200f9800310f9800b1
:100f80004e189000de1890000e0990009e09900007
:100f9000970207000004be000e2090009e209000e3
:100fa0002e099000be099000910207000001be00ca
:100fb0000800be0099000700400f9800510f9800ec
:100fc0004e189000de1890006e019000fe01900017
:100fd000870207002e099000be09900084020700d6
:100fe0000004be006e189000fe1890004e019000a4
:100ff000de0190007e0207000001be000800be0076
:10100000860007000004be000e2090009e20900085
:101010006e019000fe019000750207000e0990001d
:101020009e099000720207000001be000800be0089
:1010300079000700600f9800710f98000000eb0026
:10104000908288004e099000de0990006e089000a2
:10105000fe089000370107004f04be000080fa0030
:1010600000000600809fbe003200f8000000200053
:1010700090018800000000000200fa0060022100d8
:1010800020409000e14f500005003a0040128000df
:10109000000f780000052000401288003d00370056
:1010a0006102210010c0b300a040980040128000ef
:1010b0008000780060022100310098006002210069
:1010c0003000900041052000810f500013003200d5
:1010d00071052000810f50000400320041042000ff
:1010e000810f50000700320012003700600221001b
:1010f00011002000010878007005200040128800cf
:10110000240037006002210021002000010878003f
:1011100040042000401288001e00370060022100b9
:101120008000eb0001087800900520004012880044
:10113000180037006002210010007800e10f500015
:1011400003003200e20f5000050032000b003700b0
:101150006002210030009000401288000d0037002e
:1011600060022100200090004012880060022100ef
:101170008000eb002100980006003700600221008b
:101180008000eb00010878009005200040128800e4
:10119000000000000148a9000080fa003200f900b8
:1011a0004f00be00004006000000fa000000eb0007
:1011b000401288000148a9002148a9004382a900e3
:1011c0004362a9004342a9004322a9004302a800a8
:1011d00042e2a80042c2a90042a2a90040c2a9005e
:1011e00041e2a80090052000401288000148a900b3
:1011f0002148a800610221000040eb00a0409800b7
:101200000080fa00000006000040da000000fe0046
:10121000320020005e00370003f0a200889fbe006d
:101220008a9fbe008c1f7800d9010700e0013300bf
:101230006450e1004f0032006420e10052003200af
:1012400003826c0007003b000905d0000306d000b4
:10125000820f54000c065d000200390002003200cb
:1012600089017800030678008582550004003d005e
:101270000003fd008103fd008502ea008b8542002a
:10128000840f720002003b0060001000e080180034
:101290006011b8000005eb007a28e1000a0039006f
:1012a00006007800c75ddd00f707b2008780750093
:1012b0002d003700828171000a017800610560000d
:1012c0008180d1000080d3008502e900f9ff3b0056
:1012d000060440008784480002003b0060041400bc
:1012e000e0841c000988a300070032008a81710095
:1012f00082817100610164008904d1000884d300f7
:101300008b05e800170037000978a30013003a00a6
:101310000b00e000130034008b05e90008044400d2
:1013200089844c000a4474000978a3000d003a0037
:101330000b00e000070034008b05e90008044400be
:1013400089844c0001003a000b0020000978a300ba
:10135000f7ff32000001eb000200370082817100cc
:101360000a0178004f0107000cf0a70001f0a0006f
:10137000980137006420e10002003a00838f6c007e
:10138000980133000801be000200be009101370041
:10139000889fbe008a9fbe008c9fbe000206780018
:1013a00001f0a7000cf0a0000004be0063010700dc
:1013b0000800be006420e1000700390002003a0086
:1013c000f1ff2700f0ff2f000160a00012022000b3
:1013d000e28288005100370009f0a1000800be0039
:1013e0000200200003f8230029010700f4ff3c005d
:1013f0000800be000200200003982300220107001d
:101400000800be00300035000200200003f0230079
:101410001f01070005003c000800be000801be00d7
:10142000730107000005be000e0037000c10a2007b
:101430000000200001f823000801be0076ff07002d
:101440000200200003f02300690107000005be0030
:10145000060207000200200003002c0064010700c0
:101460000004be000a00be00b2d02800130b2c00fe
:101470006aff07000a01be005d010700020f250098
:10148000330b240065ff0700809fbe000a00be00ea
:101490005206220013f02b0055010700b26621000e
:1014a000f3f623005dff07000a01be0050010700ac
:1014b0004f01be00a30007000801be004c01070059
:1014c0000801be0055ff07000c00a7000700370009
:1014d000b2fd200093fc23000c10a7004fff070073
:1014e0000cf0a70001f0a2000c0037000cf0a700e0
:1014f0000200370001f0a20004003700b2fd200016
:10150000930424000c10a60003003700b2fd200055
:1015100093fc23000c10a70040ff07004f06be00fd
:101520004f05be004f04be00000006000001eb00a6
:1015300097ff3700889fbe008a9fbe008c1f7800ef
:10154000130107001002200002003b00e082880027
:10155000170137008a0062006408e10002003a00c7
:10156000e08288001f0137006108e100fcff3200c3
:101570000800be00030478007200070001f0a1001b
:101580000900070008f0a600040037000001be00b3
:1015900091042400b0fd20001fff070009f0a70000
:1015a00001f0a2000b013700889fbe008a9fbe0099
:1015b0008c9fbe000004be00e00007000800be00d3
:1015c000890678006420e100080039000400320038
:1015d0000160a00012022000e28288005300370060
:1015e00091fc2300b0fd20004e0037000006eb0008
:1015f00009f0a10003f82300020020000800be004b
:10160000a10007000600340001f8230000002000bc
:101610000801be004b0007000004be002c002000a3
:101620000800be0093e82300320a2300960007005a
:10163000120034000801be00d1fd2300703d2b00d4
:10164000f6fe07000005be00b3f32300f27a260081
:101650000800be00e600070003f823000200200097
:10166000edfe07000801be00ecfe07000a01be0007
:10167000340007000004be000c06e8000800be00ad
:1016800001f0a10002002000039823007e00070063
:101690000800be00160035000801be00d400070097
:1016a0000005be0032cd2c0043fb2300dbfe07000b
:1016b000809fbe001269280003d52b000a00be00df
:1016c000cb000700620f210013ef2b00d3fe0700b1
:1016d0000a01be00c60007004f01be001900070046
:1016e0000801be00c20007000801be00cbfe0700d3
:1016f0000c00e0000b0032000c10a70001f0a2006b
:10170000b2fd200093fc23006260e100040032007f
:1017100022a9200063f023000c10a70063f8230027
:10172000befe07000df0a70001f0a2004f06be00ac
:101730004f05be004f04be00000006000081eb0014
:10174000df003700889fbe008a9fbe008c1f780094
:101750008f0007009600330003866c006450e100a0
:101760002e0032006420e100330032006150e100bd
:101770002f0032006120e1003100320085855500e4
:10178000eb07b00009002000080420000500370026
:101790000804440089844c000a0031000603430019
:1017a00087834b000001530081815b00f8ff330009
:1017b0000203be000800a0000804440089844c0015
:1017c000f6ff3900c639dd008301730001003200e5
:1017d000130020008904d1000884d3000998a300d5
:1017e000050032000800a7000300a0008904d10012
:1017f0000884d3008b05e8008904d1000884d30055
:101800000001eb000281d2002600070001f0a100d8
:101810000cf0a70001f0a0006e0037006420e1008a
:10182000700032000801be000200be00f7ff370062
:101830006120e1006b0032006000b800f3ff370068
:101840000000200001f82700f0ff3700839f6800a8
:101850000100e00002003d0060001000e080180080
:101860000300e00002003d0060011100e08119006a
:10187000330107004f00e00002003b006000100051
:10188000e080180000000600140020003c01370032
:10189000f4ff2f003a0137004f89de008201780003
:1018a0007301370081002000618055000b003d006e
:1018b0000b00200061fe2f000100e1001d0034003c
:1018c00082817100610164008904d1000884d30021
:1018d0000000e800faff3a00710020006100640097
:1018e000030070000200600009003200610444003f
:1018f000e0844c000988a500050032008b05e80053
:101900006808e10002003a008904d1000884d3008d
:10191000f20f20000258e10005003d00c75ddd0028
:10192000f907b20089807500080078000000060001
:101930000bf827008b00780000000500c70ade00c6
:10194000f107b200f50fb20008003200e1cf42000b
:10195000020032000170a00024000500810f700019
:10196000010032000408050044000500810f7000ea
:1019700002003a00140005008502e9000000400062
:1019800081c04800fcff3b000170a000240005005e
:101990000004be00e9ff07000003be000405be000e
:1019a0000200be00e5ff0700844f7500000006003e
:1019b0000200be006450e100050036006420e10032
:1019c000020036000968a30001003a000800be00ca
:1019d0000160a0004f0678004f05be004f04be0016
:1019e00000000600f0ff2f00f1ff2700f9ff37008d
:1019f000889fbe008a9fbe008c1f7800e4ff07000e
:101a0000ebff330003866c006450e10024003200d9
:101a10006420e100270032006150e1002200320022
:101a20006120e100210032008b854200eb07b1000c
:101a30000134b800003ab8000804420089844a0022
:101a4000013ab8000030b8008880400009014a001f
:101a5000040033000000400081804800020149007a
:101a60008b05e900c909dd00830170000100320027
:101a700013002000c814de004814dd004709de0012
:101a80001200b200c808de000884700085ff07005d
:101a900001f0a1000cf0a70001f0a000cdff37007d
:101aa0006120e100cfff32000801be000200be004d
:101ab000f7ff37006150e100fcff3a00c9ff370033
:101ac000889fbe008a9fbe008c9fbe008205780062
:101ad0000004be0099ff07000800be006420e1007a
:101ae0000700390002003a00f1ff2700f0ff2f0045
:101af0000160a00012022000e28288005500370039
:101b00006120e10003003a000b00a70001f8230068
:101b10005000370001f0a10002002100936424006e
:101b200059ff07000800be0004003500b2fd200088
:101b3000930c24000d0107000004be000005eb001b
:101b40000b00a6004f0dde0001f0a1000004be0056
:101b500032982f0023ea2300a5ff07000001eb00c5
:101b600003f023000b00a70003f82300abfd0700e0
:101b70009e0007000000a7000a00a20046ff070021
:101b80000b00e000030032000200200003f02300fd
:101b9000a1fd070001f0a2000006be000200200027
:101ba0009304240092ff07000801be009bfd07007c
:101bb000809fbe000c00be0022a22a00d3a72300f3
:101bc0008bff07004f01be0094fd07000004be001c
:101bd00001f0a10002002000039823002aff070063
:101be0000800be00190035000001be0080ff07009c
:101bf0000006be00b2c52900e36223007cff070097
:101c000022222b00f3942b0084fd07000c01be0060
:101c100077ff0700e273280083c023007ffd0700e1
:101c20000c01be0072ff070042aa2a00a3e22b00ab
:101c30007afd07000c01be006dff07000801be0021
:101c40006bff07000801be0074fd07000a00a70033
:101c500001f0a2004f06be004f05be004f04be00bb
:101c6000000006000001eb0095ff3700889fbe00d2
:101c70008a9fbe008c1f78000004be002fff070063
:101c80000478a30026003a006120e100250032001c
:101c900009f8a30025003a006420e1002100320089
:101ca000f507b1000508a300020032000000400063
:101cb000818048006044b80003102000020020002a
:101cc00000004000818048000805440089854c00e0
:101cd0000a0541008b8549000a0550008b85580094
:101ce000030033000a00be00020474008384740001
:101cf0008301d1000281d300830f7100f0ff3a000d
:101d00008904d1000884d300600149008201780071
:101d1000c1adde00fb07b000e2fe07002dff37007b
:101d20000960a0000800be002aff37001202200050
:101d3000e2828800f0ff2f00f1ff270025ff370027
:101d40006022b800060220000000d0008180d2008e
:101d50000482d2008582d2000000a000020252005c
:101d600083825a00030031000202420083824a004b
:101d70000000a1000603e900f3ff3a00000006009e
:101d8000889fbe008a9fbe00841f780000ff070066
:101d90004f00780011003300f0ff2f00838f6c009c
:101da00006003b00040565000a00a7000800370094
:101db00009f0a6001000200008003700820f540030
:101dc000838f5c00030039001000200001003e00fa
:101dd0000000200009f0a7000000ea004f05be0047
:101de0004f04be000000e000000006000001be003d
:101df000d2fe07000470a70003f0a1006509b1003e
:101e0000160032000d0035006828e100060035009c
:101e1000f0ff2f00f1ff27000300e00013003b005c
:101e200001002800000005000000400081804800fb
:101e30008502e900fcff3a0008003700f88f4200f5
:101e400002003c008000eb00000005008100d10092
:101e50000080d3008502e800fcff3a000300e000a8
:101e600002003b0060001000e08018000000060047
:101e7000881f7800030478000300e00007003d009d
:101e800060001000e080180060011900e081190076
:101e900002003b0001f02d000300370004000700a2
:101ea00008f0a70001f0a0004f0478000000060031
:101eb000889fbe008a9fbe000082700004027100ed
:101ec00004827100260032000004be000200be0041
:101ed0006011b8006b092000950220000182cf003c
:101ee0000a0039000541b1000082cf000700390027
:101ef0000541b1000982cf00040039000541b1005d
:101f00000882cf00010039000541b10005425200ae
:101f1000120032000a003b008281710061016400fe
:101f20008100d1000080d3008984d3000884d300cd
:101f30008b05e8000442e800f7ff3a00070037008d
:101f40000804440089844c00000048008180480057
:101f50008b05e9000442e900f9ff3a0051fe070051
:101f60004f05be004f04be00000006000400200024
:101f700000003700889fbe008a9fbe008c1f78003b
:101f80004f26dd0082fe070089fe33006120e1005c
:101f9000430032006250e10041003e003e00390043
:101fa0006420e1003c003200058255000f003b0038
:101fb0000402e80038003a00800f5300818f5b0074
:101fc000350034000800be0003f0a10001f0a600b7
:101fd00003f0a0000cf0a70090fc07007dfe370086
:101fe0000603430087834b000c4646000005530060
:101ff00081855b00020033000a03be000c00a000d4
:102000000402e900f6ff3b00850578000602430064
:1020100087824b0004003a006000b80009f0a70076
:1020200001f0a0006bfe37000002520081825a00ce
:102030000704e000040033000603430087834b00dd
:102040008b05e900faff3700090578000604be0099
:102050000203be006011b80012fe0700e00f52003c
:10206000e08f5a000700350002003c000c08a30076
:10207000040032000601be0003f0a0000cf0a7002f
:1020800066fc07000a85680001f0a1000af0a700bd
:1020900001f0a0004ffe37000800be004dfe3700e3
:1020a000100220000cf0a600e08288004dfe3700f0
:020000040000fa
:1020b0000000fa0010eea900110ea9000134800002
:1020c00000fc2f00008060000040a0000034880069
:1020d0002134800000fc2f00008060000040a00040
:1020e0002034880011eea80011cea80071358000c0
:1020f00000f82f0080806000f00220000080700057
:102100007035880071358000f00f280080806000f5
:1021100000e0220000807000703588000000eb00b5
:102120005008880013e1a90091088000f0fc2f00fe
:10213000008060000040a000900888000000eb00d4
:10214000004888000000eb0010488800014880002b
:10215000f03f2e0080806000004020000080700072
:10216000004888000148800080ff2f000080600048
:102170006000b3000048880010488000f001b30000
:102180001048880000352c00204888008038210045
:1021900030488800010a800080ff2f000080600026
:1021a000000a88000000eb00300a88000000eb0005
:1021b000000a88000000eb00100a8800014280003d
:1021c000f0f82f00008060000040a000004288006e
:1021d0000028a900010a8000f03f2e000080600066
:1021e000000a8800010a8000f0f92f0000806000da
:1021f000000a8800410a800080ff2f0000806000f4
:10220000400a88000000eb00700a88000000eb0024
:10221000400a88000000eb00500a8800114280004c
:10222000f0f82f00008060000040a00010428800fd
:1022300000a8a900410a8000f03f2e000080600045
:10224000400a8800410a8000f0f92f0000806000f9
:10225000400a8800010a800080ff2f000080600093
:102260000000a000000a88002028a800410a800081
:1022700080ff2f00008060000000a000400a88005e
:1022800020a8a80013e1a8000080fa0000000600c2
:10229000809fbe00829fbe003200f8000000200038
:1022a00090018800000000000000fa000028a9004a
:1022b00090808000e10f50000a003a009170800089
:1022c0000000280000806000e00f50000500320090
:1022d000200a8000d08188000000eb0090808800f8
:1022e0000a003700200a8000e081880010002000ea
:1022f00090808800e1818000d081800000805000c3
:10230000cf80de00a0808800b1808800a28080009d
:10231000b3808000b012200001002000800f510027
:10232000818f590002003c0012eea8000100370026
:1023300012eea9000080fa003200f9004f01be0041
:102340004f00be0000400600809fbe00829fbe007e
:102350003200f8000000200090018800000000001a
:102360000000fa0000a8a900c0808000e10f500022
:102370000a003a0091708000000024000080600094
:10238000e00f500005003200600a8000f0818800f4
:102390000000eb00c08088000a003700600a80005f
:1023a0000082880010002000c08088000182800028
:1023b000f081800000805000cf80de00d080880057
:1023c000e1808800d2808000e3808000b01220008d
:1023d00001002000800f5100818f590002003c0055
:1023e000130ea80001003700130ea9000080fa00a8
:1023f0003200f9004f01be004f00be000040060051
:102400000200fa00000f78000000200001122400f2
:102410000080fa00000006002000fa00889fbe003d
:10242000a0808000b180800000007800f4ff0700e9
:10243000008fbe00d0808000e18080000000780026
:10244000efff07002007980031079800f080800018
:102450000181800040079800510798002e019000ec
:10246000be0190002e009000be00900060fd0700ad
:102470000004be004e019000de0190004e0090006e
:10248000de0090005afd07000001be000800be00fb
:1024900062fb07000004be001e01be001e00be005d
:1024a00053fd07000001be000800be005afb0700f4
:1024b0000004be002e009000be0090000001be008f
:1024c00056fb07004e019000de01900048fd07001a
:1024d0000001be000800be009afc070060079800db
:1024e000710798006e009000fe00900048fb070006
:1024f000000f9800110f98001e01be001e00be00c4
:102500003bfd07000004be004e019000de0190007c
:102510004e009000de00900035fd07000001be0077
:102520000800be003dfb07000004be002e01900025
:10253000be0190002e009000be0090002cfd070010
:102540000001be000800be0033fb07000004be000f
:102550001e00be000001be0030fb07004e019000cf
:10256000de01900022fd07000001be000800be0051
:1025700074fc0700200f9800310f98002e0890007f
:10258000be08900022fb0700400f9800510f9800f2
:102590004e099000de0990000e0890009e08900001
:1025a0001dfb0700600f9800710f98006e089000e7
:1025b000fe08900001f0a10018c0b3000200200046
:1025c000030a2400b0fc0700e00f500001003400b3
:1025d0000044eb00e04f54000300320000002000f4
:1025e00041232400020037006e089000fe0890008e
:1025f0004f04be000080fa00000006000200fa004e
:102600000040eb00004f78001082800001002000a5
:102610003200200003002000820f5000838f5800fa
:1026200011003e00000601000300370008003700db
:102630000400370009003700e0c4b300004f780001
:102640000900370030c5b300004f7800060037009e
:1026500050c4b300004f78000300370070c5b300ca
:10266000004f7800000000001e4078000080fa0053
:10267000000006000000fa00881f7800a082800099
:10268000e00f50007e003200cdf907003082880054
:1026900041828800308280004182800018c0b300ef
:1026a0000200200003f42b0079fc0700e00f50002b
:1026b00001003c000044eb00e04f54000e003200eb
:1026c000308280004182800018c0b30002002000e8
:1026d00003f423006cfc0700e00f500001003500fc
:1026e0000044eb00e04f5400030032000000eb0018
:1026f00010828800600037003082800041828000b4
:1027000018c0b3000200200003012c0060fc070089
:10271000e00f500001003c000044eb00e04f54008b
:102720000e003200308280004182800018c0b30069
:102730000200200003f42b0053fc0700e00f5000c0
:10274000010034000044eb00e04f5400030032006d
:10275000100020001082880047003700308280007f
:102760004182800018c0b300020020000301240051
:1027700045fc0700e00f5000010035000044eb006d
:10278000e04f54000e003200308280004182800011
:1027900018c0b3000200200003f423003cfc070033
:1027a000e00f500001003d000044eb00e04f5400fa
:1027b0000300320030002000108288002e00370015
:1027c000308280004182800018c0b300d2cc2c003f
:1027d000c30424002cfc0700e00f5000010035006a
:1027e0000044eb00e04f54000b00320030828000c8
:1027f0004182800018c0b3000200200003012400c1
:1028000023fc0700e00f500001003d000044eb00f6
:10281000e04f540016003a00308280004182800070
:1028200018c0b300d2cc2c00c3042c0018fc070045
:10283000e00f500001003c000044eb00e04f54006a
:102840000d003200308280004182800018c0b30049
:102850000200200003012c000bfc0700e00f5000d9
:10286000010034000044eb00e04f5400020032004d
:1028700020002000108288000000eb00a082880069
:102880004f0478000080fa00000006000000fa0003
:10289000f101070046f7070043fa0700108ea90070
:1028a000128ea90090052000401288000300370016
:1028b00000000000010037000000000020828000be
:1028c000010020004200200003002000820f500081
:1028d000838f5800f6ff3e00000601000400370019
:1028e0001100370024003700410037000a0037008c
:1028f0006002210020409000e04f500003003200b1
:1029000010002000208288000200370040002000d4
:10291000208288005800370056ff07000000eb00b7
:1029200020828800540037006002210010007800e7
:10293000e10f500003003200e20f500004003200ab
:1029400006003700200020002082880006003700a3
:102950003000200020828800030037000000eb00d8
:102960002082880000000000610221000040eb008e
:10297000a0409800400037006002210020409000f5
:10298000e04f50001900320060022100300090003a
:1029900011032000810f5000070032004105200084
:1029a000810f50000800320001032000810f500009
:1029b0000300320007003700128ea800080037001d
:1029c000128ea900060037000000eb00208288006c
:1029d000030037000000eb002082880000000000a8
:1029e000610221000040eb00a04098002200370067
:1029f0006002210020409000e04f5000aeff320006
:102a0000600221003000900021052000810f50005d
:102a10000b00320041052000810f50000c003200f5
:102a200071042000810f50000c003a00f3fe0700f3
:102a30008000fb0060022100210098000a0037009e
:102a4000600221008000eb002100980006003700a2
:102a50000000eb0020828800030037000000eb003c
:102a60002082880000000000610221000040eb008d
:102a7000a040980091ff370090ff37000000fa0057
:102a800010eea900110ea9000134800000fc2f00f7
:102a9000008060000040a0000034880021348000e5
:102aa00000fc2f00008060000040a000203488005f
:102ab00011eea80011cea8007135800000f82f009b
:102ac00080806000f0022000008070007035880077
:102ad00071358000f00f28008080600000e0220047
:102ae00000807000703588000000eb0050088800fe
:102af00013e1a90091088000f0fc2f000080600025
:102b00000040a000900888000000eb00004888000a
:102b10000000eb001048880001488000f03f2e00c4
:102b20008080600000402000008070000048880025
:102b30000148800080ff2f00008060006000b3002b
:102b40000048880010488000f001b3001048880059
:102b500000352c002048880080382100304888004b
:102b6000010a800080ff2f0000806000000a8800ba
:102b70000000eb00300a88000000eb00000a88002b
:102b80000000eb00100a880001428000f0f82f00de
:102b9000008060000040a000004288000028a900da
:102ba000010a8000f03f2e0000806000000a8800cb
:102bb000010a8000f0f92f0000806000000a880000
:102bc000410a800080ff2f0000806000400a8800da
:102bd0000000eb00700a88000000eb00400a88004b
:102be0000000eb00500a880011428000f0f82f002e
:102bf000008060000040a0001042880000a8a900ea
:102c0000410a8000f03f2e0000806000400a8800ea
:102c1000410a8000f0f92f0000806000400a88001f
:102c2000010a800080ff2f00008060000000a000eb
:102c3000000a88002028a800410a800080ff2f0099
:102c4000008060000000a000400a880020a8a800c2
:102c500013e1a8000080fa0000000600809fbe007b
:102c6000829fbe003200f800000020009001880022
:102c7000000000000000fa000028a9007081800018
:102c8000e10f50000a003a00917080000000280017
:102c900000806000e00f500005003200200a800034
:102ca000508288000000eb00708188000a00370025
:102cb000200a800060828800100020007081880057
:102cc000618280005082800000805000cf80de0052
:102cd00080818800918188008281800093818000ba
:102ce000b012200001002000800f5100818f590098
:102cf00002003c0012eea8000100370012eea9000d
:102d00000080fa003200f9004f01be004f00be0003
:102d100000400600809fbe00829fbe003200f80087
:102d20000000200090018800000000000000fa0070
:102d300000a8a900a0818000e10f50000a003a001d
:102d4000917080000000240000806000e00f5000bf
:102d500005003200600a8000708288000000eb00ed
:102d6000a08188000a003700600a80008082880005
:102d700010002000a0818800818280007082800085
:102d800000805000cf80de00b0818800c1818800c3
:102d9000b2818000c3818000b012200001002000b9
:102da000800f5100818f590002003c00130ea800d3
:102db00001003700130ea9000080fa003200f9006c
:102dc0004f01be004f00be00004006000000fa00a8
:102dd0000e0ea8000000eb00001988000000eb00b8
:102de000101988000000eb00201988000000eb009b
:102df0009019880021e3a90021a3a9002143a9007b
:102e000001198000f0cf2f000080600000198800b9
:102e100001198000000e2000008070000019880059
:102e20002043a9002119800000f0210000807000db
:102e3000201988004119800000fe2f0000806000ea
:102e40004019880021e3a8000080fa000000060075
:102e50000800fa00604798002023a8000000000046
:102e60000019800061006000e00f5000fcff32009c
:102e70002003a90000188000000f78006e40900029
:102e80000000fb0061042000810f500007003200a9
:102e9000b1042000810f50003700320031042000bf
:102ea000810f500013003200560037001e007800da
:102eb000cf80de00a21420008209b800e002b80032
:102ec0008401780003014100a31420000300b8002e
:102ed0000101410082007800f23f20000300200041
:102ee0005afa070010079800210798001e0090006a
:102ef000450037001e007800cf80de00a2142000bd
:102f00008209b800e002b8008401780003014100a2
:102f1000a31420000300b8000101410082007800e2
:102f2000f23f20000300200048fa0700e509b8003e
:102f3000e002b80084017800030141005300200042
:102f40000300b800010141008200780002f62f0062
:102f5000f3ff2f0000004100818049009200200013
:102f60000300200039fa0700100798002107980095
:102f70001e009000240037001e007800cf80de0085
:102f8000a21420008209b800e002b8008401780091
:102f900003014100a31420000300b8000101410017
:102fa00082007800f23f20000300200027fa07008b
:102fb000e509b800e002b80084017800030141008f
:102fc000530020000300b800010141008200780096
:102fd00002f62f00f3ff2f0000004100818049001e
:102fe000920020000300200018fa0700f010b00043
:102ff0000180b00010079800210798001e00900083
:1030000001003700001880000080fa000000060070
:103010000000fa0060c4b3008dff0700d082880072
:103020000080fa00000006000200fa00000f78009d
:103030001e007800e500b80001f62f0080804000f7
:103040009000200000017800110009008200d800e3
:103050000080fa00000006000400fa0017e2a90050
:10306000e0012000a01088001722a8000648a9004f
:1030700017e2a8001742a9008010800010079800ee
:103080000000eb00000f7800020037000000000095
:103090001e0fe800703821009e007800808f5000dd
:1030a000faff34000080fa00000006000200fa0077
:1030b0001642a80000000000b0108000640060000c
:1030c000e00f5000fcff3a001662a9000648a90074
:1030d00018e2a9001942a9000000eb00000f7800d7
:1030e00002003700000000001e0fe80070382100c9
:1030f0009e007800808f5000faff34000080fa00b4
:10310000000006000200fa00004f780000000000f6
:10311000c010800061006000e00f5000fcff3a002a
:103120000648a9001e00fb00901088000000000067
:10313000c11080000000240000806000e00f5000fb
:10314000fbff3a0000000000000000000080fa00d1
:10315000000006000400fa0020479800314798005c
:1031600016a2a9000000eb00000f78000000eb00a1
:10317000000f780002003700000000001e0fe8007a
:10318000703e20009e007800808f5000faff3400cf
:103190001602a80000000000b0108000610060006e
:1031a000e00f5000fcff3a00ae4090003e4090001f
:1031b00000c07000d3ff07000080fa000000060086
:1031c0000000fa001662a80000000000c010800095
:1031d00062006000e00f5000fcff32001682a80081
:1031e00080108000004078000080fa000000060097
:1031f0000000fa001662a80000000000c010800065
:1032000062006000e00f5000fcff32008010800080
:10321000004078000080fa00000006000200fa007a
:10322000004f7800114798001622a8000000000007
:1032300000000000b010800062006000e00f50004d
:10324000fcff3a0000000000c01080006100600038
:10325000e00f5000fcff3a000648a9001e40900015
:103260001e4070000000fb0090108800000000006d
:10327000c11080000000240000806000e00f5000ba
:10328000fbff3a000080fa00000006000000fa0090
:0c3290001682a8000080fa000000060072
:020000040000fa
:10329c00001000001200000080000000521000001e
:1032ac00040000008200000000000000000000008c
:1032bc00121000001000000082000000010000004d
:1032cc0000000000010000000000000000002000d1
:1032dc00410000003a1000000800000080000000cf
:1032ec005610000002000000800000005810000082
:1032fc0002000000800000004210000008000000e6
:10330c00820000000000000000000000000000002f
:10331c00221000000c000000800000005a10000079
:10332c000200000082000000000000002e100000cf
:10333c000c000000820000000100000000000000f2
:10334c0001000000000000004a100000080000000e
:10335c00800000005c1000000200000080000000f3
:04336c00000000005d
:020000040000fa
:103370000000fa0011aea90001eca900012ca9007f
:10338000010ca800300020001060880000e224003a
:10339000206088000000eb00106288000000eb0055
:1033a0001061880043cca800438ca9000000eb000a
:1033b00000628800404ca9000000eb0040628800d9
:1033c00000652400306288000000eb005062880035
:1033d00001eca8000080fa00000006000200fa00dc
:1033e000000f7800807020009e007800808f5000d1
:1033f00007003c001e007800e00f5000040035007c
:10340000405224001e004000306288000200370055
:10341000c0c22400306288000080fa00000006006c
:020000040000fa
:04afe000cfff00009f
:020000040000fa
:04afe400dfff00008b
:020000040000fa
:04afe8007fff0000e7
:020000040000fa
:04afec00bfff0000a3
:020000040000fa
:04aff000bfff00009f
:020000040000fa
:04aff400ffff00005b
:00000001FF
