:020000040000fa
:080000000002040000000000f2
:020000040000fa
:10000800ea050000ea050000ea050000ea0500002c
:10001800ea050000ea050000ea050000ea0500001c
:10002800ea050000d6030000ea050000ea05000022
:10003800ea05000006040000ea050000ea050000e1
:10004800ea050000ea050000ea050000ea050000ec
:10005800ea050000ea050000ea050000ea050000dc
:10006800ea050000ea050000ea050000ea050000cc
:10007800ea050000ea050000ea050000ea050000bc
:10008800ea050000ea050000ea050000ea050000ac
:10009800ea050000ea05000090020000ea050000f9
:1000a800ea050000ea050000ea050000ea0500008c
:1000b800ea050000ea050000ea050000ea0500007c
:1000c800ea050000ea050000ea050000ea0500006c
:1000d800ea050000ea050000ea050000ea0500005c
:1000e800ea050000ea050000ea050000ea0500004c
:1000f800ea050000ea050000ea050000ea0500003c
:10010800ea050000ea050000ea050000ea0500002b
:10011800ea050000ea050000ea050000ea0500001b
:10012800ea050000ea050000ea050000ea0500000b
:10013800ea050000ea050000ea050000ea050000fb
:10014800ea050000ea050000ea050000ea050000eb
:10015800ea050000ea050000ea050000ea050000db
:10016800ea050000ea050000ea050000ea050000cb
:10017800ea050000ea050000ea050000ea050000bb
:10018800ea050000ea050000ea050000ea050000ab
:10019800ea050000ea050000ea050000ea0500009b
:1001a800ea050000ea050000ea050000ea0500008b
:1001b800ea050000ea050000ea050000ea0500007b
:1001c800ea050000ea050000ea050000ea0500006b
:1001d800ea050000ea050000ea050000ea0500005b
:1001e800ea050000ea050000ea050000ea0500004b
:0801f800ea050000ea05000021
:020000040000fa
:10020800ea050000ea050000ea050000ea0500002a
:10021800ea050000ea050000ea050000ea0500001a
:10022800ea050000d6030000ea050000ea05000020
:10023800ea05000006040000ea050000ea050000df
:10024800ea050000ea050000ea050000ea050000ea
:10025800ea050000ea050000ea050000ea050000da
:10026800ea050000ea050000ea050000ea050000ca
:10027800ea050000ea050000ea050000ea050000ba
:10028800ea050000ea050000ea050000ea050000aa
:10029800ea050000ea05000090020000ea050000f7
:1002a800ea050000ea050000ea050000ea0500008a
:1002b800ea050000ea050000ea050000ea0500007a
:1002c800ea050000ea050000ea050000ea0500006a
:1002d800ea050000ea050000ea050000ea0500005a
:1002e800ea050000ea050000ea050000ea0500004a
:1002f800ea050000ea050000ea050000ea0500003a
:10030800ea050000ea050000ea050000ea05000029
:10031800ea050000ea050000ea050000ea05000019
:10032800ea050000ea050000ea050000ea05000009
:10033800ea050000ea050000ea050000ea050000f9
:10034800ea050000ea050000ea050000ea050000e9
:10035800ea050000ea050000ea050000ea050000d9
:10036800ea050000ea050000ea050000ea050000c9
:10037800ea050000ea050000ea050000ea050000b9
:10038800ea050000ea050000ea050000ea050000a9
:10039800ea050000ea050000ea050000ea05000099
:1003a800ea050000ea050000ea050000ea05000089
:1003b800ea050000ea050000ea050000ea05000079
:1003c800ea050000ea050000ea050000ea05000069
:1003d800ea050000ea050000ea050000ea05000059
:1003e800ea050000ea050000ea050000ea05000049
:0803f800ea050000ea0500001f
:020000040000fa
:10040000ef8220000e7f24000e0188000000000013
:100410000c00070000c420000100200011000700ac
:10042000000020000000e000020032000000020096
:100430000000000040060200000000000040da005a
:100440000000fe004440a900600020000000e00021
:100450000300320000002000a00188004440a800f2
:100460000000060091018800800078000000eb0089
:1004700015003700e280400032a0b4009101ba00bc
:10048000e280400032a0b4009102ba00e280400055
:1004900032a0b4000002eb00472bde00f507b200eb
:1004a000602ce10004003a000059eb008301e900f0
:1004b000fdff3e00040037006128e100010032002a
:1004c0000082eb00040007001101ba000200e00006
:1004d000e8ff3a00000006003159ba008301e90044
:1004e0000c0032002159ba008301e90008003200f3
:1004f0000400e00003003a00e280400032a0b400b3
:10050000f5ff370011d9ba008301e900faff3a007c
:100510008100e800e180400032a0b4000000060045
:10052000809fbe00821f78003400f8000000200089
:10053000a00188000000fa00b0118000004078009f
:1005400000e8b7003342a800b1408000001020004e
:1005500000806000e00f50003e003a003241800011
:1005600000c8bf0021802000810041008048780041
:1005700028c8bf00e04f50000b003a000180200067
:100580009140780010c2b30080cf500006003a00be
:1005900030418000e00f500003003a0010c0b3006b
:1005a00028e8b7002b00370028c8bf00e14f5000f3
:1005b0000a003a0030418000e00f500007003a0086
:1005c00000c8bf000000fb00c04088003041800030
:1005d0000000e800304188001e00370028c8bf0036
:1005e000e14f50000b003a0030418000e00f500016
:1005f0000800340031418000c0408000808f5000ee
:1006000004003d00304180000000e80030418800d7
:100610001000370028c8bf00e14f50000d003a001d
:1006200031418000c0408000808f500009003500bb
:1006300030418000004078000040e90016e8b70033
:100640000040eb0028e8b7000000eb0030418800d4
:100650001708a80087c0a9000080fa003400f9003c
:100660004f0178004f00be00004006000000fa0075
:100670003135800000fc2f0000806000c000b30016
:100680003035880051368000f00f2c0080806000eb
:1006900000502000008070005036880031e2a90030
:1006a0000000eb00801188000000eb009011880032
:1006b00070062000c01188003062a9003342a800f3
:1006c00087c0a90097c0a80031e2a8000080fa0006
:1006d000000006000600fa001007980021079800a5
:1006e0003342a8000000eb00000f78000d00370037
:1006f0001e0078009e0090000080400010407800ae
:100700000000fb00a0118800000000009111800093
:100710000010200000806000e00f5000fbff32005e
:100720001e0fe8002e0090009e007800808f500081
:10073000efff35000080fa00000006000600fa0016
:10074000200798002e009000430107001007980032
:100750003342a8000000eb00000f78000d003700c6
:100760001e007800ae00900000804000104078002d
:100770000000fb00a0118800000000009111800023
:100780000010200000806000e00f5000fbff3200ee
:100790001e0fe8001e0090009e007800808f500021
:1007a000efff35000080fa0000000600809fbe00c9
:1007b0003400f80000002000a00188000000fa00ca
:1007c0008420a900d0408000e10f500003003a00cf
:1007d0000000eb00d0408800080037001000200027
:1007e000d0408800f040800001418000610040005e
:1007f000e0804800f0408800014188000080fa0055
:100800003400f9004f00be0000400600809fbe008b
:100810003400f80000002000a00188000000fa0069
:1008200084a0a900e0408000e10f500003003a00de
:100830000000eb00e04088000800370010002000b6
:10084000e0408800104180002141800061004000ac
:10085000e080480010418800214188000080fa00b3
:100860003400f9004f00be00004006000000fa000e
:100870002cc3a8002ce3a800c8c2a900c8e2a900a4
:100880000000eb00500888000000eb009008880092
:1008900013e1a90091088000f0fc2f0000806000a7
:1008a0000040a000900888000000eb00800c880049
:1008b0000000eb00900c8800810c8000f03f2e00bf
:1008c000808060000040200000807000800c880064
:1008d000810c800080ff2f00008060006000b3006a
:1008e000800c8800900c8000f001b300900c880010
:1008f000c05d2000a00c8800e02e2000b00c880015
:100900003136800000fc2f00008060002001b30021
:10091000303688000000eb00d00c88000000eb00af
:10092000e00c8800d10c8000f03f2e008080600039
:100930000040200000807000d00c8800d10c8000a6
:1009400080ff2f00008060006000b300d00c8800a2
:10095000e00c8000f001b300e00c8800c05d2000d6
:10096000f00c8800e02e2000000d88003136800059
:10097000f00f2c00808060000030210000807000ab
:100980003036880013e1a8000080fa00000006005d
:100990000a00fa00400798004e00900000407800de
:1009a0006f40600040479800ce009000000f20008c
:1009b000008060004480de0050479800ce00900028
:1009c00000f02000008060004880de006047980052
:1009d0004e0090004c00de00704798006000b800a8
:1009e000f0408800014188006000b8001041880094
:1009f000214188004e409000e14f500007003a002e
:100a00005e4090000000fb007900b9000000780013
:100a1000e12e2000010f4000070037005e409000eb
:100a20008000fb0070fe2f000088b90000007800f5
:100a3000e12e2000010f40006e409000e14f500079
:100a400007003a007e4090000000fb007900b900ea
:100a500000007800e02eb000100798000700370073
:100a60007e4090008000fb0070fe2f000088b900df
:100a700000007800e02eb000100798001e007800fb
:100a8000b00c88001e009000000d88000080fa0065
:100a9000000006000000fa000000eb00a00888003b
:100aa0001fe1a900f1088000f0fc2f000080600029
:100ab000f0088800f0c2a8007134800000fc2f000c
:100ac000008060005001b300703488000000eb002b
:100ad000300a88000000eb00000a88000000eb00ec
:100ae000100a880021058000f0f82f0000806000c7
:100af0000040a000200588008420a900010a800091
:100b0000f03f2e0080806000008020000080700098
:100b1000000a8800010a8000f0f92f0000806000c0
:100b2000000a8800010a800080ff2f00008060001a
:100b30000000a000000a8800d1c2a8007134800023
:100b4000f00f2c00808060000050220000807000b8
:100b5000703488000000eb00700a88000000eb0091
:100b6000400a88000000eb00500a88003105800030
:100b7000f0f82f00008060000040a00030058800e1
:100b800084a0a900410a8000f03f2e008080600010
:100b90000080200000807000400a8800410a800028
:100ba000f0f92f0000806000400a8800410a8000b0
:100bb00080ff2f00008060000000a000400a880035
:100bc0009420a80094a0a8001fe1a8000080fa00cb
:100bd000000006000040da000000fe00839f68006d
:100be0000100e00002003d0060001000e0801800fd
:100bf0000300e00002003d0060011100e0811900e7
:100c0000050007004f00e00002003b0060001000fc
:100c1000e0801800000006006022b80006022000f4
:100c20000000d0008180d2000482d2008582d200f0
:100c30000000a0000202520083825a00030031002b
:100c40000202420083824a000000a1000603e9007c
:100c5000f3ff3a0000000600800078000041eb003e
:100c6000b14f1100fdff3a000080ea000080400013
:040c7000000006007a
:020000040000fa
:0c0c740021330000414300004b00000051
:020000040000fa
:100c80003a00fa0079fe0700f8fe070081ff07002e
:100c9000180207009c020700000525003cff070022
:100ca0008000eb005000200081020700000f780058
:100cb0000100370000000000b1408000001020005b
:100cc00000806000e00f5000faff320003c8bf0050
:100cd0000000fb0071042000810f50003b00320037
:100ce00031052000810f500080013a0004c8bf0088
:100cf0000000fb0011042000810f5000160032009c
:100d0000d1042000810f500077013a0007c8bf00ce
:100d10000000fb00c400dd0008c8bf000000fb00ad
:100d20008080700005c8bf000000fb004c00dd00a3
:100d30008080700006c8bf000000fb004800dd0096
:100d40000080700012ff070051002000a0632800ff
:100d500060fe07001c00370005c8bf000000fb0054
:100d60000001780051002000200020003d02070013
:100d700006c8bf000000fb000001780061002000f1
:100d8000200020003702070005c8bf000000fb005c
:100d900000017800510020003000200031020700df
:100da00006c8bf000000fb000001780061002000c1
:100db000300020002b02070051002000a063280013
:100dc00044fe0700000000004801370004c8bf00cf
:100dd0000000fb00d1042000810f5000070032000a
:100de00031052000810f50007b00320011042000eb
:100df000810f5000770032003c01370010c2b30071
:100e0000404f980080c0b300504f9800d0c4b3004a
:100e1000604f98000040eb00704f9800f040800059
:100e2000014180000001be000000200001f02f0001
:100e30000202780003017800800178000100780048
:100e4000030262000000610001002000c000dd001c
:100e5000000020000001be006120b8000001710008
:100e600081817100481add004810de000000720028
:100e7000c818de000040780000579800f04080005d
:100e8000014180000001be000000200001f02f00a1
:100e900002027800030178008001780001007800e8
:100ea000030262000000610001002000c000dd00bc
:100eb000000020000001be006120b80000017100a8
:100ec000818171004018de000100200000407800a0
:100ed00010579800f0408000014180004808de0073
:100ee0000100200000407800205798000040eb00ef
:100ef0003057980010418000214180000001be0061
:100f00000000200001f02f000202780003017800a9
:100f10008001780001007800030262000000610097
:100f200001002000c000dd00000020000001be0024
:100f30006120b8000001710081817100481add0054
:100f40004810de0000007200c818de000040780083
:100f50004057980010418000214180000001be00f0
:100f60000000200001f02f00020278000301780049
:100f70008001780001007800030262000000610037
:100f800001002000c000dd00000020000001be00c4
:100f90006120b80000017100818171004018de00fd
:100fa0000100200000407800505798001041800058
:100fb000214180004808de00010020000040780048
:100fc000605798006c004700b1002000c1fd070089
:100fd000c4003700c300370005c8bf000000fb0095
:100fe0006101b900d0fb2f00f1ff2f00020040008b
:100ff000838048004201200003002000820f50003f
:10100000838f5800b6003e00006001005100370099
:10101000b3003700b2003700b1003700b00037002e
:10102000af00370036003700ad003700ac003700a6
:10103000ab003700aa003700a9003700a80037002e
:10104000a7003700a6003700a5003700a40037002e
:101050000300370055003700a100370014003700a7
:1010600010c2b3007057980030c0b300005f980002
:1010700030c5b300105f980030c4b300a100070072
:10108000100798001e0090004800de000040780025
:10109000205f98001e00900000407800305f9800ac
:1010a00077004700510020008afd07008c003700c0
:1010b00010c2b300405f980030c0b300505f98008a
:1010c00030c5b300605f980010c0b300ab010700eb
:1010d000200798002e0090004800de0000407800b5
:1010e000705f98002e009000004078000067980024
:1010f0007c0047005100200076fd07007800370093
:1011000010c2b3001067980030c0b3002067980089
:1011100030c5b3003067980020c0b30097010700c6
:10112000300798003e0090004800de000040780044
:10113000406798003e00900000407800506798009b
:10114000100220000e0040005100200061fd070049
:101150006300370010c2b3006067980030c0b3006e
:101160007067980030c5b300006f98008000eb00f6
:10117000500020004e010700400798004e009000ec
:101180004800de0000407800106f98004e0090008c
:1011900000407800206f9800600220000e004000a0
:1011a000510020004bfd07004d00370010c2b30076
:1011b000306f9800d0c0b300406f980030c5b300c6
:1011c000506f98008000eb0060002000380107009d
:1011d000500798005e0090004800de000040780054
:1011e000606f98005e00900000407800706f98007b
:1011f00011002000600020002d010700500798001a
:101200005e0090004800de00004078000077980003
:101210005e009000004078001077980021002000c8
:101220006000200022010700500798005e00900037
:101230004800de0000407800207798005e009000b3
:1012400000407800307798003100200060002000d6
:1012500017010700500798005e0090004800de006c
:1012600000407800407798005e00900000407800d1
:10127000507798008000eb00700020000c01070000
:10128000500798005e0090004800de0000407800a3
:10129000607798005e0090000040780070779800ba
:1012a0001100200070002000010107005007980085
:1012b0005e0090004800de0000407800007f98004b
:1012c0005e00900000407800107f9800b00220007f
:1012d0000e004000f1002000fefc070000000000ae
:1012e0000000000001003700000000001708a900fe
:1012f00071fe37000000fa002c03a9000080fa00fc
:10130000000006000800fa00604798000040eb006b
:101310001a010700000f78006e4090000000fb00eb
:1013200061042000810f500007003200b10420004a
:10133000810f50003a00320031042000810f50002c
:10134000140032005b0037001e007800cf80de0002
:10135000a21420000289b900020178006002b900dd
:101360008401780003014100a31420000300b800a9
:101370000101410082007800f23f200003002000bc
:1013800016fe070010079800210798001e00900025
:10139000490037001e007800cf80de00a214200034
:1013a0000289b900020178006002b9008401780066
:1013b00003014100a31420000300b8000101410013
:1013c00082007800f23f20000300200003fe0700a7
:1013d0006509b900020178006002b9008401780053
:1013e00003014100530020000300b8000101410047
:1013f0008200780002f62f00f3ff2f00000041006a
:10140000818049009200200003002000f3fd0700c6
:1014100010079800210798001e0090002600370052
:101420001e007800cf80de00a21420000289b900df
:10143000020178006002b9008401780003014100d4
:10144000a31420000300b8000101410082007800cd
:10145000f23f200003002000e0fd07006509b9000d
:10146000020178006002b9008401780003014100a4
:10147000530020000300b800010141008200780001
:1014800002f62f00f3ff2f00000041008180490089
:101490009200200003002000d0fd0700f010b000f3
:1014a0000180b00010079800210798001e009000ee
:1014b000010037001e0078000080fa0000000600de
:1014c0000200fa00000f78001e0078006500b900e5
:1014d0000000780001f62f0080804000900020007e
:1014e00000017800110009008200d8000080fa0095
:1014f000000006000000fa00d822a900d8a2a90026
:10150000d842a900d862a900d882a900d8c2a900ef
:10151000d8e2a9001136800000fc2f000080600096
:101520000030a0001036880011368000f00f2c002b
:1015300080806000007020000080700010368800fd
:101540004135800000fc2f00008060000020a000da
:10155000403588004302a80042c2a90042a2a80068
:101560004342a80040c2a90041e2a800e016800062
:101570000010a000e0168800e116800000022000a4
:1015800000807000e0168800e01680000020a000b7
:10159000e0168800e01680000030a000e016880009
:1015a000e01680000040a000e0168800e1168000f0
:1015b0000004200000807000e0168800e116800022
:1015c0000008200000807000e01688000080fa000b
:1015d000000006000200fa00000f78001e007800ec
:1015e00040128800000000000012800061006000ce
:1015f000e00f5000fcff3200401280000080fa0033
:10160000000006000600fa00100798002107980065
:10161000110020001e0090000008dd000080ea009c
:1016200080007800d016800000806000d01688000e
:101630002e009000e7ff0700000f78001100200047
:101640001e0090000008dd0080007800d0168000a9
:1016500000807000d01688001e0078000080fa001c
:10166000000006000600fa00000f7800110798003d
:1016700022079800710520001e007800e1ff070096
:1016800040012000520007009e0090001e007800dc
:10169000dcff0700400120004d000700ae00900075
:1016a0001e007800d7ff07000080fa000000060047
:1016b0000600fa0010079800210798000000eb00d0
:1016c000000f7800410420001e009000cdff0700ad
:1016d000400120003e000700ae0090001e00900078
:1016e000c8ff070040012000390007002105200045
:1016f0001e009000c3ff0700000f78001e00780056
:101700000080fa00000006000000fa000000eb0074
:10171000001988000000eb00101988000000eb00a1
:101720002019880021e3a90021a3a9000119800044
:10173000f0cf2f00008060000019880001198000a0
:10174000000e200000807000001988002043a900ce
:101750002119800000f0210000807000201988000d
:101760004119800000fe2f000080600040198800b1
:1017700021e3a8000080fa00000006000200fa0041
:10178000004f78001e4078007f4060000080fb0022
:101790007f0060004219800001fe2f00810061007f
:1017a00000807000401988002023a800000000007d
:1017b0000019800061006000e00f5000fcff320063
:1017c0002003a900001880000080fa000000060035
:1017d0000600fa00200798002e0090000000e800a4
:1017e00001002000421320000289b90002017800a4
:1017f0006002b90084017800030141004313200016
:101800000300b8000101410082007800008fbe0093
:10181000008fbe0005003700000000000080eb00d4
:101820008080eb001e0f40005e9748001e00be0047
:10183000e00f5000e08f5800f7ff3a000080fa00f8
:10184000000006000400fa00204798002e40900097
:101850000080fb006d00b90000007800000f7800e8
:10186000010037001e0fe9001e007800e10f500054
:10187000fcff3c00000000000080fa0000000600b1
:020000040000fa
:101880002a08000002000000020000007a64000044
:10189000000800001a0000000000000026080000f8
:1018a0000400000002000000000000000000000032
:1018b0002c080000020000000200000000000000f0
:1018c0001a0800000c0000000200000000000000e8
:1018d0000000000000000000000000000000000008
:020000040000fa
:020000040002f8
:04aff400ffff00005b
:020000040000fa
:020000040002f8
:04aff8009f70000046
:020000040000fa
:020000040002f8
:04affc007f3f000093
:00000001FF
