:020000040000fa
:080000000002040000000000f2
:020000040000fa
:10000800d6030000d6030000d6030000d603000084
:10001800d6030000d6030000d6030000d603000074
:10002800d6030000d6030000d6030000d603000064
:10003800d6030000d6030000d6030000d603000054
:10004800d6030000d6030000d6030000900200008b
:10005800d6030000d6030000d6030000d603000034
:10006800d6030000d6030000d6030000d603000024
:10007800d6030000d6030000d6030000d603000014
:10008800d6030000d6030000d6030000d603000004
:10009800d6030000d6030000d6030000d6030000f4
:1000a800d6030000d6030000d6030000d6030000e4
:1000b800d6030000d6030000d6030000d6030000d4
:1000c800d6030000d6030000d6030000d6030000c4
:1000d800d6030000d6030000d6030000d6030000b4
:1000e800d6030000d6030000d6030000d6030000a4
:1000f800d6030000d6030000d6030000d603000094
:10010800d6030000d6030000d6030000d603000083
:10011800d6030000d6030000d6030000d603000073
:10012800d6030000d6030000d6030000d603000063
:10013800d6030000d6030000d6030000d603000053
:10014800d6030000d6030000d6030000d603000043
:10015800d6030000d6030000d6030000d603000033
:10016800d6030000d6030000d6030000d603000023
:10017800d6030000d6030000d6030000d603000013
:10018800d6030000d6030000d6030000d603000003
:10019800d6030000d6030000d6030000d6030000f3
:1001a800d6030000d6030000d6030000d6030000e3
:1001b800d6030000d6030000d6030000d6030000d3
:1001c800d6030000d6030000d6030000d6030000c3
:1001d800d6030000d6030000d6030000d6030000b3
:1001e800d6030000d6030000d6030000d6030000a3
:0801f800d6030000d60300004d
:020000040000fa
:10020800d6030000d6030000d6030000d603000082
:10021800d6030000d6030000d6030000d603000072
:10022800d6030000d6030000d6030000d603000062
:10023800d6030000d6030000d6030000d603000052
:10024800d6030000d6030000d60300009002000089
:10025800d6030000d6030000d6030000d603000032
:10026800d6030000d6030000d6030000d603000022
:10027800d6030000d6030000d6030000d603000012
:10028800d6030000d6030000d6030000d603000002
:10029800d6030000d6030000d6030000d6030000f2
:1002a800d6030000d6030000d6030000d6030000e2
:1002b800d6030000d6030000d6030000d6030000d2
:1002c800d6030000d6030000d6030000d6030000c2
:1002d800d6030000d6030000d6030000d6030000b2
:1002e800d6030000d6030000d6030000d6030000a2
:1002f800d6030000d6030000d6030000d603000092
:10030800d6030000d6030000d6030000d603000081
:10031800d6030000d6030000d6030000d603000071
:10032800d6030000d6030000d6030000d603000061
:10033800d6030000d6030000d6030000d603000051
:10034800d6030000d6030000d6030000d603000041
:10035800d6030000d6030000d6030000d603000031
:10036800d6030000d6030000d6030000d603000021
:10037800d6030000d6030000d6030000d603000011
:10038800d6030000d6030000d6030000d603000001
:10039800d6030000d6030000d6030000d6030000f1
:1003a800d6030000d6030000d6030000d6030000e1
:1003b800d6030000d6030000d6030000d6030000d1
:1003c800d6030000d6030000d6030000d6030000c1
:1003d800d6030000d6030000d6030000d6030000b1
:1003e800d6030000d6030000d6030000d6030000a1
:0803f800d6030000d60300004b
:020000040000fa
:100400002f8220000e7f24000e01880000000000d3
:100410000c0007008095200001002000110007005b
:10042000000020000000e000020032000000020096
:10043000000000002c040200000000000040da0070
:100440000000fe004440a900600020000000e00021
:100450000300320000002000a00188004440a800f2
:100460000000060091018800800078000000eb0089
:1004700015003700e280400032a0b4009101ba00bc
:10048000e280400032a0b4009102ba00e280400055
:1004900032a0b4000002eb00472bde00f507b200eb
:1004a000602ce10004003a000059eb008301e900f0
:1004b000fdff3e00040037006128e100010032002a
:1004c0000082eb00040007001101ba000200e00006
:1004d000e8ff3a00000006003159ba008301e90044
:1004e0000c0032002159ba008301e90008003200f3
:1004f0000400e00003003a00e280400032a0b400b3
:10050000f5ff370011d9ba008301e900faff3a007c
:100510008100e800e180400032a0b4000000060045
:10052000809fbe00821f78003400f8000000200089
:10053000a00188000000fa0030118000004078001f
:1005400000e8b7002342a800b1408000001020005e
:1005500000806000e00f50003e003a00d240800072
:1005600000c8bf0021802000810041008048780041
:100570001cc8bf00e04f50000b003a000180200073
:100580009140780010c2b30080cf500006003a00be
:10059000d0408000e00f500003003a0010c0b300cc
:1005a0001ce8b7002b0037001cc8bf00e14f50000b
:1005b0000a003a00d0408000e00f500007003a00e7
:1005c00000c8bf000000fb00c0408800d040800091
:1005d0000000e800d04088001e0037001cc8bf00a3
:1005e000e14f50000b003a00d0408000e00f500077
:1005f00008003400d1408000c0408000808f50004f
:1006000004003d00d04080000000e800d040880099
:10061000100037001cc8bf00e14f50000d003a0029
:10062000d1408000c0408000808f5000090035001c
:10063000d0408000004078000040e90016e8b70094
:100640000040eb001ce8b7000000eb00d040880041
:100650001708a8008560a9000080fa003400f9009e
:100660004f0178004f00be00004006000000fa0075
:100670002135800000fc2f0000806000c000b30026
:100680002035880051368000f00f2c0080806000fb
:1006900000302000008070005036880021e2a90060
:1006a0000000eb00001188000000eb001011880032
:1006b00090012000401188002062a8002342a80079
:1006c0008560a9009560a80021e2a8000080fa00da
:1006d000000006000600fa001007980021079800a5
:1006e0002342a8000000eb00000f78000d00370047
:1006f0001e0078009e0090000080400010407800ae
:100700000000fb0020118800000000001111800093
:100710000010200000806000e00f5000fbff32005e
:100720001e0fe8002e0090009e007800808f500081
:10073000efff35000080fa00000006000600fa0016
:10074000200798002e00900039000700100798003d
:100750002342a8000000eb00000f78000d003700d6
:100760001e007800ae00900000804000104078002d
:100770000000fb0020118800000000001111800023
:100780000010200000806000e00f5000fbff3200ee
:100790001e0fe8001e0090009e007800808f500021
:1007a000efff35000080fa00000006000040da008c
:1007b0000000fe00839f68000100e00002003d0091
:1007c00060001000e08018000300e00002003d001f
:1007d00060011100e0811900050007004f00e000f2
:1007e00002003b0060001000e080180000000600de
:1007f0006022b800060220000000d0008180d200f4
:100800000482d2008582d2000000a00002025200c1
:1008100083825a00030031000202420083824a00b0
:100820000000a1000603e900f3ff3a000000060003
:10083000800078000041eb00b14f1100fdff3a004d
:0c0840000080ea0000804000000006007c
:020000040000fa
:0c084c0021410000434b000000000000b0
:020000040000fa
:100858002c00fa0083ff0700b101070034020700eb
:100868000100370000000000b140800000102000a7
:1008780000806000e00f5000faff320003c8bf009c
:100888000000fb0071042000810f50003e00320080
:1008980031052000810f50001f013a0004c8bf0035
:1008a8000000fb0011042000810f500019003200e5
:1008b800d1042000810f500016013a0005c8bf007e
:1008c8000000fb00cc00dd0006c8bf000000fb00f4
:1008d8004800dd008080700007c8bf000000fb00f2
:1008e8004400dd008080700008c8bf000000fb00e5
:1008f80000807000000178008000eb0010002000ec
:10090800e201070041002000604228006fff070055
:100918001c00370005c8bf000000fb00000178007c
:100928005100200020002000d801070006c8bf00a1
:100938000000fb000001780061002000200020007a
:10094800d201070005c8bf000000fb0000017800c5
:100958005100200030002000cc01070006c8bf006d
:100968000000fb000001780061002000300020003a
:10097800c6010700410020006042280053ff07001d
:1009880000000000e400370004c8bf000000fb00be
:10099800d1042000810f50000700320031052000eb
:1009a800810f50002c00320011042000810f5000ec
:1009b80028003200d8003700ec00470010c2b3000e
:1009c80080487800ec00470050c0b3009040980081
:1009d800ec004700d0c4b300a04098008000eb00b2
:1009e80010002000bc010700000f78001e007800ee
:1009f8004800de0000407800ec004700b040980056
:100a08001e00780000407800ec004700c0409800c5
:100a18001100200010002000af010700000f78002f
:100a28001e0078004800de0000407800ec00470017
:100a3800d04098001e00780000407800ec00470085
:100a4800e04098006c004700710020001fff07007d
:100a5800af003700ae00370005c8bf000000fb003c
:100a68006101b900d0fb2f00f1ff2f000200400008
:100a7800838048004201200003002000820f5000bc
:100a8800838f5800a1003e00006001005f0037001e
:100a98009e0037009d0037009c0037009b00370000
:100aa8009a00370040003700980037009700370059
:100ab8009600370095003700940037009300370000
:100ac8009200370091003700900037008f00370000
:100ad800030037006d0037008c003700190037001d
:100ae800f300470010c2b30080487800f3004700c5
:100af80030c0b30090409800f300470030c5b30001
:100b0800a040980030c4b30089000700100798007f
:100b18001e0090004800de0000407800f300470007
:100b2800b04098001e00900000407800f300470095
:100b3800c04098007300470051002000e3fe070002
:100b480072003700f800470010c2b30080487800f0
:100b5800f800470030c0b30090409800f800470004
:100b680030c5b300a040980010c0b3008d01070045
:100b7800200798002e0090004800de000040780012
:100b8800f8004700b04098002e0090000040780020
:100b9800f8004700c0409800780047005100200046
:100ba800cafe070059003700fd00470010c2b30015
:100bb80080487800fd00470030c0b300904098009e
:100bc800fd00470030c5b300a040980020c0b30026
:100bd80074010700300798003e0090004800de00ce
:100be80000407800fd004700b04098003e009000ab
:100bf80000407800fd004700c04098007d00470095
:100c080051002000b1fe07004000370021022000fb
:100c18008e80400010c2b300804878002102200076
:100c28008e80400030c0b300904098002102200020
:100c38008e80400030c5b300a04098008000eb00d3
:100c48003004200024010700400798004e0090005f
:100c58004800de0000407800210220008e8040001d
:100c6800b04098004e00900000407800210220001b
:100c78008e804000c0409800200220000e004000f6
:100c88005100200091fe070020003700710220006b
:100c98008e80400010c2b3008048780071022000a6
:100ca8008e80400030c0b300904098007102200050
:100cb8008e80400030c5b300a04098008000eb0053
:100cc8005005200004010700500798005e009000be
:100cd8004800de0000407800710220008e8040004d
:100ce800b04098005e00900000407800710220003b
:100cf8008e804000c0409800700220000e00400026
:100d08005100200071fe07000000000000000000f4
:100d180001003700000000001708a900d2fe3700c4
:100d28000000fa002c03a8000080fa00000006006a
:100d38000800fa00604798000040eb00190107001e
:100d4800000f78006e4090000000fb006104200056
:100d5800810f500007003200b1042000810f5000bd
:100d68003a00320031042000810f50001400320094
:100d78005b0037001e007800cf80de00a214200040
:100d88000289b900020178006002b9008401780084
:100d980003014100a31420000300b8000101410031
:100da80082007800f23f2000030020007ffe070049
:100db80010079800210798001e009000490037008e
:100dc8001e007800cf80de00a21420000289b9003e
:100dd800020178006002b900840178000301410033
:100de800a31420000300b80001014100820078002c
:100df800f23f2000030020006cfe07006509b900df
:100e0800020178006002b900840178000301410002
:100e1800530020000300b80001014100820078005f
:100e280002f62f00f3ff2f000000410081804900e7
:100e380092002000030020005cfe070010079800c5
:100e4800210798001e009000260037001e00780039
:100e5800cf80de00a21420000289b90002017800c8
:100e68006002b9008401780003014100a314200046
:100e78000300b8000101410082007800f23f200021
:100e88000300200049fe07006509b9000201780047
:100e98006002b9008401780003014100530020007a
:100ea8000300b800010141008200780002f62f001b
:100eb800f3ff2f00000041008180490092002000cc
:100ec8000300200039fe0700f010b0000180b000d8
:100ed80010079800210798001e00900001003700b5
:100ee8001e0078000080fa00000006000200fa00e8
:100ef800000f78001e0078006500b9000000780037
:100f080001f62f008080400090002000000178004a
:100f1800110009008200d8000080fa0000000600d5
:100f28000000fa00d822a900d8a2a900d842a90036
:100f3800d862a900d882a900d8c2a900d8e2a9001d
:100f48001136800000fc2f00008060000030a000f7
:100f5800103688002136800000fc2f0000806000d9
:100f68007000b300203688004135800000fc2f0057
:100f7800008060003000b300403588004302a800bc
:100f880042c2a90042a2a8004342a80040c2a90048
:100f980041e2a800e01680000010a000e0168800da
:100fa800e11680000002200000807000e016880032
:100fb800e01680000020a000e0168800e0168000ff
:100fc8000030a000e0168800e01680000040a00075
:100fd800e0168800e1168000000420000080700000
:100fe800e0168800e11680000008200000807000ec
:100ff800e01688000080fa00000006000200fa00ef
:10100800000f78001e0078004012880000000000e1
:101018000012800061006000e00f5000fcff320009
:10102800401280000080fa00000006000600fa0066
:101038001007980021079800110020001e0090005a
:101048000008dd000080ea0080007800d0168000eb
:1010580000806000d01688002e009000e7ff07008f
:10106800000f7800110020001e0090000008dd002d
:1010780080007800d016800000807000d0168800ac
:101088001e0078000080fa00000006000600fa0042
:10109800000f7800110798002207980071052000ba
:1010a8001e007800e1ff0700400120005200070001
:1010b8009e0090001e007800dcff07004001200021
:1010c8004d000700ae0090001e007800d7ff070013
:1010d8000080fa00000006000600fa0010079800d9
:1010e800210798000000eb00000f78004104200061
:1010f8001e009000cdff0700400120003e000700c1
:10110800ae0090001e009000c8ff070040012000bc
:1011180039000700210520001e009000c3ff0700ca
:10112800000f78001e0078000080fa00000006001a
:101138000000fa000000eb00001988000000eb0036
:10114800101988000000eb002019880021e3a9008d
:1011580021a3a90001198000f0cf2f0000806000b2
:101168000019880001198000000e2000008070001e
:10117800001988002043a9002119800000f02100ef
:1011880000807000201988004119800000fe2f009f
:10119800008060004019880021e3a8000080fa0060
:1011a800000006000200fa00004f78001e40780098
:1011b8007f4060000080fb007f00600042198000d3
:1011c80001fe2f0081006100008070004019880036
:1011d8002023a800000000000019800061006000c2
:1011e800e00f5000fcff32002003a9000018800027
:1011f8000080fa00000006000600fa0020079800a8
:101208002e0090000000e80001002000421320009a
:101218000289b900020178006002b90084017800ef
:1012280003014100431320000300b80001014100fd
:1012380082007800008fbe00008fbe0005003700d6
:10124800000000000080eb008080eb001e0f4000d3
:101258005e9748001e00be00e00f5000e08f580067
:10126800f7ff3a000080fa00000006000400fa00c8
:10127800204798002e4090000080fb006d00b900c8
:1012880000007800000f7800010037001e0fe90009
:101298001e007800e10f5000fcff3c000000000039
:0812a8000080fa0000000600be
:020000040000fa
:1012b0001e08000002000000020000007a64000026
:1012c000000800001a000000000000001a080000da
:1012d0000400000002000000000000000000000008
:1012e00020080000020000000200000000000000d2
:0412f00000000000fa
:020000040000fa
:020000040002f8
:04aff400ffff00005b
:020000040000fa
:020000040002f8
:04aff8009f70000046
:020000040000fa
:020000040002f8
:04affc007f3f000093
:00000001FF
