:020000040000fa
:080000000002040000000000f2
:020000040000fa
:100008007405000074050000740500007405000004
:1000180074050000740500007405000074050000f4
:1000280074050000d6030000740500007405000084
:100038007405000006040000740500007405000043
:1000480074050000740500007405000090020000ab
:1000580074050000740500007405000074050000b4
:1000680074050000740500007405000074050000a4
:100078007405000074050000740500007405000094
:100088007405000074050000740500007405000084
:100098007405000074050000740500007405000074
:1000a8007405000074050000740500007405000064
:1000b8007405000074050000740500007405000054
:1000c8007405000074050000740500007405000044
:1000d8007405000074050000740500007405000034
:1000e8007405000074050000740500007405000024
:1000f8007405000074050000740500007405000014
:100108007405000074050000740500007405000003
:1001180074050000740500007405000074050000f3
:1001280074050000740500007405000074050000e3
:1001380074050000740500007405000074050000d3
:1001480074050000740500007405000074050000c3
:1001580074050000740500007405000074050000b3
:1001680074050000740500007405000074050000a3
:100178007405000074050000740500007405000093
:100188007405000074050000740500007405000083
:100198007405000074050000740500007405000073
:1001a8007405000074050000740500007405000063
:1001b8007405000074050000740500007405000053
:1001c8007405000074050000740500007405000043
:1001d8007405000074050000740500007405000033
:1001e8007405000074050000740500007405000023
:0801f80074050000740500000d
:020000040000fa
:100208007405000074050000740500007405000002
:1002180074050000740500007405000074050000f2
:1002280074050000d6030000740500007405000082
:100238007405000006040000740500007405000041
:1002480074050000740500007405000090020000a9
:1002580074050000740500007405000074050000b2
:1002680074050000740500007405000074050000a2
:100278007405000074050000740500007405000092
:100288007405000074050000740500007405000082
:100298007405000074050000740500007405000072
:1002a8007405000074050000740500007405000062
:1002b8007405000074050000740500007405000052
:1002c8007405000074050000740500007405000042
:1002d8007405000074050000740500007405000032
:1002e8007405000074050000740500007405000022
:1002f8007405000074050000740500007405000012
:100308007405000074050000740500007405000001
:1003180074050000740500007405000074050000f1
:1003280074050000740500007405000074050000e1
:1003380074050000740500007405000074050000d1
:1003480074050000740500007405000074050000c1
:1003580074050000740500007405000074050000b1
:1003680074050000740500007405000074050000a1
:100378007405000074050000740500007405000091
:100388007405000074050000740500007405000081
:100398007405000074050000740500007405000071
:1003a8007405000074050000740500007405000061
:1003b8007405000074050000740500007405000051
:1003c8007405000074050000740500007405000041
:1003d8007405000074050000740500007405000031
:1003e8007405000074050000740500007405000021
:0803f80074050000740500000b
:020000040000fa
:10040000ef8220000e7f24000e0188000000000013
:100410000c00070080882000010020001100070068
:10042000000020000000e000020032000000020096
:1004300000000000b8080200000000000040da00e0
:100440000000fe004440a900000020000000e00081
:100450000300320000002000a00188004440a800f2
:100460000000060091018800800078000000eb0089
:1004700015003700e280400032a0b4009101ba00bc
:10048000e280400032a0b4009102ba00e280400055
:1004900032a0b4000002eb00472bde00f507b200eb
:1004a000602ce10004003a000059eb008301e900f0
:1004b000fdff3e00040037006128e100010032002a
:1004c0000082eb00040007001101ba000200e00006
:1004d000e8ff3a00000006003159ba008301e90044
:1004e0000c0032002159ba008301e90008003200f3
:1004f0000400e00003003a00e280400032a0b400b3
:10050000f5ff370011d9ba008301e900faff3a007c
:100510008100e800e180400032a0b4000000060045
:10052000809fbe00821f78003400f8000000200089
:10053000a00188000000fa0030118000004078001f
:1005400000e8b7002342a800b1408000001020005e
:1005500000806000e00f50003e003a003241800011
:1005600000c8bf0021802000810041008048780041
:1005700028c8bf00e04f50000b003a000180200067
:100580009140780010c2b30080cf500006003a00be
:1005900030418000e00f500003003a0010c0b3006b
:1005a00028e8b7002b00370028c8bf00e14f5000f3
:1005b0000a003a0030418000e00f500007003a0086
:1005c00000c8bf000000fb00c04088003041800030
:1005d0000000e800304188001e00370028c8bf0036
:1005e000e14f50000b003a0030418000e00f500016
:1005f0000800340031418000c0408000808f5000ee
:1006000004003d00304180000000e80030418800d7
:100610001000370028c8bf00e14f50000d003a001d
:1006200031418000c0408000808f500009003500bb
:1006300030418000004078000040e90016e8b70033
:100640000040eb0028e8b7000000eb0030418800d4
:100650001708a8008560a9000080fa003400f9009e
:100660004f0178004f00be00004006000000fa0075
:100670002135800000fc2f0000806000c000b30026
:100680002035880051368000f00f2c0080806000fb
:1006900000302000008070005036880021e2a90060
:1006a0000000eb00001188000000eb001011880032
:1006b00090012000401188002062a8002342a80079
:1006c0008560a9009560a80021e2a8000080fa00da
:1006d000000006000600fa001007980021079800a5
:1006e0002342a8000000eb00000f78000d00370047
:1006f0001e0078009e0090000080400010407800ae
:100700000000fb0020118800000000001111800093
:100710000010200000806000e00f5000fbff32005e
:100720001e0fe8002e0090009e007800808f500081
:10073000efff35000080fa00000006000600fa0016
:10074000200798002e00900008010700100798006d
:100750002342a8000000eb00000f78000d003700d6
:100760001e007800ae00900000804000104078002d
:100770000000fb0020118800000000001111800023
:100780000010200000806000e00f5000fbff3200ee
:100790001e0fe8001e0090009e007800808f500021
:1007a000efff35000080fa0000000600809fbe00c9
:1007b0003400f80000002000a00188000000fa00ca
:1007c0008420a900d0408000e10f500003003a00cf
:1007d0000000eb00d0408800080037001000200027
:1007e000d0408800f040800001418000610040005e
:1007f000e0804800f0408800014188000080fa0055
:100800003400f9004f00be0000400600809fbe008b
:100810003400f80000002000a00188000000fa0069
:1008200084a0a900e0408000e10f500003003a00de
:100830000000eb00e04088000800370010002000b6
:10084000e0408800104180002141800061004000ac
:10085000e080480010418800214188000080fa00b3
:100860003400f9004f00be00004006000000fa000e
:100870002cc3a8002ce3a800c8c2a900c8e2a900a4
:100880000000eb005008880013e1a90091088000e7
:10089000f0fc2f00008060000040a000900888005d
:1008a0000000eb00800c88000000eb00900c88003a
:1008b000810c8000f03f2e0080806000004020000e
:1008c00000807000800c8800810c800080ff2f0069
:1008d000008060006000b300800c8800910c8000f4
:1008e00000fe2f0000806000d000b300900c880054
:1008f000007d2000a00c8800e02e2000b00c8800b5
:100900003136800000fc2f00008060002001b30021
:10091000303688000000eb00d00c88000000eb00af
:10092000e00c8800d10c8000f03f2e008080600039
:100930000040200000807000d00c8800d10c8000a6
:1009400080ff2f00008060006000b300d00c8800a2
:10095000e10c800000fe2f0000806000d000b3009a
:10096000e00c8800007d2000f00c8800e02e2000c4
:10097000000d880031368000f00f2c008080600070
:1009800000302100008070003036880013e1a8009c
:100990000080fa00000006000a00fa0040079800f4
:1009a0004e009000004078006f40600020479800a3
:1009b000ce009000000f2000008060004480de0028
:1009c00030479800ce00900000002f0000806000ab
:1009d0004800de00404798004e0090006101b900d9
:1009e00000002000f10020000202780003017800de
:1009f00080017800010078000302620000006100bd
:100a000001002000c000dd00000020000001be0049
:100a10006120b8000001710081817100441add007d
:100a20004c10de0000007200cc98de0050479800a9
:100a30006000b800f0408800014188006000b80004
:100a400010418800214188002e409000e14f500065
:100a500007003a003e4090000000fb007900b9001a
:100a600000007800e02eb000300798000700370043
:100a70003e4090008000fb0070fe2f000088b9000f
:100a800000007800e02eb000300798004e40900043
:100a9000e14f500007003a005e4090000000fb006c
:100aa0007900b90000007800e12e2000010f40001d
:100ab000070037005e4090008000fb0070fe2f00b2
:100ac0000088b90000007800e42e2000040f4000e8
:100ad000e02e2000b00c88001e007800000d880079
:100ae0000080fa00000006000040da000000fe006e
:100af000839f68000100e00002003d0060001000dc
:100b0000e08018000300e00002003d0060011100d9
:100b1000e0811900050007004f00e00002003b00e3
:100b200060001000e0801800000006006022b8009d
:100b3000060220000000d0008180d2000482d20092
:100b40008582d2000000a0000202520083825a0077
:100b5000030031000202420083824a000000a1002b
:100b60000603e900f3ff3a00000006008000780069
:100b70000041eb00b14f1100fdff3a000080ea0098
:080b80000080400000000600a7
:020000040000fa
:100b88000000fa002c03a9000080fa00000006000b
:100b98000800fa00604798000040eb0019010700c0
:100ba800000f78006e4090000000fb0061042000f8
:100bb800810f500007003200b1042000810f50005f
:100bc8003a00320031042000810f50001400320036
:100bd8005b0037001e007800cf80de00a2142000e2
:100be8000289b900020178006002b9008401780026
:100bf80003014100a31420000300b80001014100d3
:100c080082007800f23f200003002000b6ff0700b2
:100c180010079800210798001e009000490037002f
:100c28001e007800cf80de00a21420000289b900df
:100c3800020178006002b9008401780003014100d4
:100c4800a31420000300b8000101410082007800cd
:100c5800f23f200003002000a3ff07006509b90048
:100c6800020178006002b9008401780003014100a4
:100c7800530020000300b800010141008200780001
:100c880002f62f00f3ff2f00000041008180490089
:100c9800920020000300200093ff0700100798002f
:100ca800210798001e009000260037001e007800db
:100cb800cf80de00a21420000289b900020178006a
:100cc8006002b9008401780003014100a3142000e8
:100cd8000300b8000101410082007800f23f2000c3
:100ce8000300200080ff07006509b90002017800b1
:100cf8006002b9008401780003014100530020001c
:100d08000300b800010141008200780002f62f00bc
:100d1800f3ff2f000000410081804900920020006d
:100d28000300200070ff0700f010b0000180b00041
:100d380010079800210798001e0090000100370056
:100d48001e0078000080fa00000006000200fa0089
:100d5800000f78001e0078006500b90000007800d8
:100d680001f62f00808040009000200000017800ec
:100d7800110009008200d8000080fa000000060077
:100d88000000fa00d822a900d8a2a900d842a900d8
:100d9800d862a900d882a900d8c2a900d8e2a900bf
:100da8001136800000fc2f00008060000030a00099
:100db800103688002136800000fc2f00008060007b
:100dc8007000b300203688004135800000fc2f00f9
:100dd800008060003000b300403588004302a8005e
:100de80042c2a90042a2a8004342a80040c2a900ea
:100df80041e2a800e01680000010a000e01688007c
:100e0800e11680000002200000807000e0168800d3
:100e1800e01680000020a000e0168800e0168000a0
:100e28000030a000e0168800e01680000040a00016
:100e3800e0168800e11680000004200000807000a1
:100e4800e0168800e116800000082000008070008d
:100e5800e01688000080fa00000006000200fa0090
:100e6800000f78001e007800401288000000000083
:100e78000012800061006000e00f5000fcff3200ab
:100e8800401280000080fa00000006000600fa0008
:100e98001007980021079800110020001e009000fc
:100ea8000008dd000080ea0080007800d01680008d
:100eb80000806000d01688002e009000e7ff070031
:100ec800000f7800110020001e0090000008dd00cf
:100ed80080007800d016800000807000d01688004e
:100ee8001e0078000080fa00000006000600fa00e4
:100ef800000f78001107980022079800710520005c
:100f08001e007800e1ff07004001200052000700a2
:100f18009e0090001e007800dcff070040012000c2
:100f28004d000700ae0090001e007800d7ff0700b4
:100f38000080fa00000006000600fa00100798007a
:100f4800210798000000eb00000f78004104200002
:100f58001e009000cdff0700400120003e00070062
:100f6800ae0090001e009000c8ff0700400120005e
:100f780039000700210520001e009000c3ff07006c
:100f8800000f78001e0078000080fa0000000600bc
:100f98000000fa000000eb00001988000000eb00d8
:100fa800101988000000eb002019880021e3a9002f
:100fb80021a3a90001198000f0cf2f000080600054
:100fc8000019880001198000000e200000807000c0
:100fd800001988002043a9002119800000f0210091
:100fe80000807000201988004119800000fe2f0041
:100ff800008060004019880021e3a8000080fa0002
:10100800000006000200fa00004f78001e40780039
:101018007f4060000080fb007f0060004219800074
:1010280001fe2f00810061000080700040198800d7
:101038002023a80000000000001980006100600063
:10104800e00f5000fcff32002003a90000188000c8
:101058000080fa00000006000600fa002007980049
:101068002e0090000000e80001002000421320003c
:101078000289b900020178006002b9008401780091
:1010880003014100431320000300b800010141009f
:1010980082007800008fbe00008fbe000500370078
:1010a800000000000080eb008080eb001e0f400075
:1010b8005e9748001e00be00e00f5000e08f580009
:1010c800f7ff3a000080fa00000006000400fa006a
:1010d800204798002e4090000080fb006d00b9006a
:1010e80000007800000f7800010037001e0fe900ab
:1010f8001e007800e10f5000fcff3c0000000000db
:081108000080fa00000006005f
:020000040000fa
:101110002a08000002000000020000007a640000bb
:10112000000800001a00000000000000260800006f
:1011300004000000020000000000000000000000a9
:101140002c08000002000000020000000000000067
:101150001a0800000c00000002000000000000005f
:10116000000000000000000000000000000000007f
:020000040000fa
:101170002e00fa003dfd0700bcfd070002ff07003e
:1011800085ff07000000eb000080fa000000060069
:020000040000fa
:020000040002f8
:04aff400ffff00005b
:020000040000fa
:020000040002f8
:04aff8009f70000046
:020000040000fa
:020000040002f8
:04affc007f3f000093
:00000001FF
