:020000040000fa
:080000000002040000000000f2
:020000040000fa
:1000080040070000400700004007000040070000cc
:1000180040070000400700004007000040070000bc
:1000280040070000d603000040070000400700001a
:100038004007000058040000400700004007000087
:10004800400700004007000040070000400700008c
:10005800400700004007000040070000400700007c
:10006800400700004007000040070000400700006c
:10007800400700004007000040070000400700005c
:10008800400700004007000040070000400700004c
:10009800a60600004007000090020000400700008c
:1000a800400700004007000040070000400700002c
:1000b800400700004007000040070000400700001c
:1000c800400700004007000040070000400700000c
:1000d80040070000400700004007000040070000fc
:1000e80040070000400700004007000040070000ec
:1000f80040070000400700004007000040070000dc
:1001080040070000400700004007000040070000cb
:1001180040070000400700004007000040070000bb
:1001280040070000400700004007000040070000ab
:10013800400700004007000040070000400700009b
:10014800400700004007000040070000400700008b
:10015800400700004007000040070000400700007b
:10016800400700004007000040070000400700006b
:10017800400700004007000040070000400700005b
:10018800400700004007000040070000400700004b
:10019800400700004007000040070000400700003b
:1001a800400700004007000040070000400700002b
:1001b800400700004007000040070000400700001b
:1001c800400700004007000040070000400700000b
:1001d80040070000400700004007000040070000fb
:1001e80040070000400700004007000040070000eb
:0801f800400700004007000071
:020000040000fa
:1002080040070000400700004007000040070000ca
:1002180040070000400700004007000040070000ba
:1002280040070000d6030000400700004007000018
:100238004007000058040000400700004007000085
:10024800400700004007000040070000400700008a
:10025800400700004007000040070000400700007a
:10026800400700004007000040070000400700006a
:10027800400700004007000040070000400700005a
:10028800400700004007000040070000400700004a
:10029800a60600004007000090020000400700008a
:1002a800400700004007000040070000400700002a
:1002b800400700004007000040070000400700001a
:1002c800400700004007000040070000400700000a
:1002d80040070000400700004007000040070000fa
:1002e80040070000400700004007000040070000ea
:1002f80040070000400700004007000040070000da
:1003080040070000400700004007000040070000c9
:1003180040070000400700004007000040070000b9
:1003280040070000400700004007000040070000a9
:100338004007000040070000400700004007000099
:100348004007000040070000400700004007000089
:100358004007000040070000400700004007000079
:100368004007000040070000400700004007000069
:100378004007000040070000400700004007000059
:100388004007000040070000400700004007000049
:100398004007000040070000400700004007000039
:1003a8004007000040070000400700004007000029
:1003b8004007000040070000400700004007000019
:1003c8004007000040070000400700004007000009
:1003d80040070000400700004007000040070000f9
:1003e80040070000400700004007000040070000e9
:0803f80040070000400700006f
:020000040000fa
:100400006f8420000e7f24000e0188000000000091
:100410000c000700a02f21000100200011000700a0
:10042000000020000000e000020032000000020096
:1004300000000000780b0200000000000040da001d
:100440000000fe004440a900600020000000e00021
:100450000300320000002000a00188004440a800f2
:100460000000060091018800800078000000eb0089
:1004700015003700e280400032a0b4009101ba00bc
:10048000e280400032a0b4009102ba00e280400055
:1004900032a0b4000002eb00472bde00f507b200eb
:1004a000602ce10004003a000059eb008301e900f0
:1004b000fdff3e00040037006128e100010032002a
:1004c0000082eb00040007001101ba000200e00006
:1004d000e8ff3a00000006003159ba008301e90044
:1004e0000c0032002159ba008301e90008003200f3
:1004f0000400e00003003a00e280400032a0b400b3
:10050000f5ff370011d9ba008301e900faff3a007c
:100510008100e800e180400032a0b4000000060045
:10052000809fbe00821f78003400f8000000200089
:10053000a00188000000fa00b0118000004078009f
:1005400000e8b7003342a800b1408000001020004e
:1005500000806000e00f50003e003a00e241800061
:1005600000c8bf0021802000810041008048780041
:100570003ec8bf00e04f50000b003a000180200051
:100580009140780010c2b30080cf500006003a00be
:10059000e0418000e00f500003003a0010c0b300bb
:1005a0003ee8b7002b0037003ec8bf00e14f5000c7
:1005b0000a003a00e0418000e00f500007003a00d6
:1005c00000c8bf000000fb00c0408800e041800080
:1005d0000000e800e04188001e0037003ec8bf0070
:1005e000e14f50000b003a00e0418000e00f500066
:1005f00008003400e1418000c0408000808f50003e
:1006000004003d00e04180000000e800e041880077
:10061000100037003ec8bf00e14f50000d003a0007
:10062000e1418000c0408000808f5000090035000b
:10063000e0418000004078000040e90016e8b70083
:100640000040eb003ee8b7000000eb00e04188000e
:100650001708a80087c0a9000080fa003400f9003c
:100660004f0178004f00be00004006000000fa0075
:100670003135800000fc2f0000806000c000b30016
:100680003035880051368000f00f2c0080806000eb
:1006900000502000008070005036880031e2a90030
:1006a0000000eb00801188000000eb009011880032
:1006b00090012000c01188003062a8003342a800d9
:1006c00087c0a90097c0a80031e2a8000080fa0006
:1006d000000006000600fa001007980021079800a5
:1006e0003342a8000000eb00000f78000d00370037
:1006f0001e0078009e0090000080400010407800ae
:100700000000fb00a0118800000000009111800093
:100710000010200000806000e00f5000fbff32005e
:100720001e0fe8002e0090009e007800808f500081
:10073000efff35000080fa00000006000600fa0016
:10074000200798002e0090009e03070010079800d5
:100750003342a8000000eb00000f78000d003700c6
:100760001e007800ae00900000804000104078002d
:100770000000fb00a0118800000000009111800023
:100780000010200000806000e00f5000fbff3200ee
:100790001e0fe8001e0090009e007800808f500021
:1007a000efff35000080fa00000006003600f80078
:1007b000809fbe00829fbe00849fbe00869fbe00b9
:1007c0003400f80000002000a00188000000fa00ba
:1007d0008420a900d0408000e10f500003003a00bf
:1007e0000000eb00d04088002900370010002000f6
:1007f000d0408800f040800001418000610040004e
:10080000e0804800f04088000141880040418000bd
:10081000e00f500015003a00304180006101b8003f
:100820001041800021418000800f5100818f5900cc
:1008300007003400304180006101b800f0408000c2
:1008400001418000800f5100818f590010003c0051
:100850000000eb002042880020428000a700070033
:100860000000eb0030418800090037005041800053
:10087000e00f5000060032000000eb00204288002c
:10088000204280009d0007000000eb0030418800fe
:100890000080fa003400f9004f03be004f02be0092
:1008a0004f01be004f00be003600f90000400600b8
:1008b0003600f800809fbe00829fbe00849fbe006d
:1008c000869fbe003400f80000002000a0018800d0
:1008d0000000fa0084a0a900e0408000e10f500071
:1008e00003003a000000eb00e040880025003700dc
:1008f00010002000e040880010418000214180006d
:1009000061004000e08048001041880021418800db
:1009100040418000e00f500013003a003041800059
:100920006101b8001041800021418000800f51001a
:10093000818f590007003400304180006101b80008
:10094000f040800001418000800f5100818f5900ec
:100950000c003c000000eb00204288002042800098
:10096000660007000700370050418000e00f50008c
:10097000040032000000eb0020428800204280008a
:100980005e0007000080fa003400f9004f03be004b
:100990004f02be004f01be004f00be003600f900fe
:1009a000004006000200fa00000f78001e007800e8
:1009b000010020003102070072002f0063d92300dc
:1009c0008f01070004020700000078003041880012
:1009d0000080fa00000006000000fa002cc3a80006
:1009e0002ce3a800c8c2a900c8e2a9000000eb00df
:1009f000500888000000eb009008880013e1a9006f
:100a000091088000f0fc2f00008060000040a000f2
:100a1000900888000000eb00800c88000000eb00cc
:100a2000900c8800810c8000f03f2e0080806000d8
:100a30000040200000807000800c8800810c800045
:100a400080ff2f00008060006000b300800c8800f1
:100a5000900c8000f001b300900c8800c05d200075
:100a6000a00c8800e02e2000b00c880031368000f9
:100a700000fc2f00008060002001b30030368800a9
:100a80000000eb00d00c88000000eb00e00c8800b8
:100a9000d10c8000f03f2e008080600000402000dc
:100aa00000807000d00c8800d10c800080ff2f00e7
:100ab000008060006000b300d00c8800e00c800073
:100ac000f001b300e00c8800c05d2000f00c88004d
:100ad000e02e2000000d880031368000f00f2c0041
:100ae0008080600000302100008070003036880077
:100af00013e1a8000080fa00000006000a00fa00d6
:100b0000400798004e009000004078006f40600061
:100b100040479800ce009000000f20000080600049
:100b20004480de0050479800ce00900000f0200086
:100b3000008060004880de00604798004e00900012
:100b40004c00de00704798004e009000e00f50000f
:100b5000060032006000b800f040880001418800c3
:100b60006000b80010418800214188004e4090008c
:100b7000e14f500007003a005e4090000000fb008b
:100b80007900b90000007800e12e2000010f40003c
:100b9000070037005e4090008000fb0070fe2f00d1
:100ba0000088b90000007800e12e2000010f40000d
:100bb0006e409000e14f500007003a007e409000e8
:100bc0000000fb007900b90000007800e02eb000c2
:100bd00010079800070037007e4090008000fb005f
:100be00070fe2f000088b90000007800e02eb000f1
:100bf000100798001e007800b00c88001e009000be
:100c0000000d88000080fa00000006000000fa00d5
:100c10000000eb00a00888001fe1a900f108800097
:100c2000f0fc2f0000806000f0088800f0c2a800ef
:100c30007134800000fc2f00008060005001b30080
:100c4000703488000000eb00300a88000000eb00e0
:100c5000000a88000000eb00100a880021058000cf
:100c6000f0f82f00008060000040a0002005880000
:100c70008420a900010a8000f03f2e0080806000df
:100c80000080200000807000000a8800010a8000b7
:100c9000f0f92f0000806000000a8800010a80003f
:100ca00080ff2f00008060000000a000000a880084
:100cb000d1c2a80071348000f00f2c008080600049
:100cc0000050220000807000703488000000eb00ab
:100cd000700a88000000eb00400a88000000eb006a
:100ce000500a880031058000f0f82f000080600075
:100cf0000040a0003005880084a0a900410a8000bf
:100d0000f03f2e0080806000008020000080700096
:100d1000400a8800410a8000f0f92f00008060003e
:100d2000400a8800410a800080ff2f000080600098
:100d30000000a000400a88009420a80094a0a80009
:100d40001fe1a8000080fa00000006003600f8004d
:100d5000809fbe00829fbe00849fbe00869fbe0013
:100d60003400f80000002000a00188000000fa0014
:100d700090418000e00f50000a0032000000eb00bc
:100d8000904188006000b800a0418800b14188000f
:100d90000000eb00804188000000eb00404188002b
:100da0001100370040418000e00f50000e0032007b
:100db00080418000cf80de0022010700a2702d005c
:100dc00033c22300a00107000002be00a041800042
:100dd000b14180000001be000400be002b000700ee
:100de000a0418800b14188008780a9000080fa00f6
:100df0003400f9004f03be004f02be004f01be0099
:100e00004f00be003600f900004006000000fa0066
:100e10000000eb00c00888000000eb00000988001b
:100e200021e1a90001098000f0fc2f000080600092
:100e30000040a0000009880080382100e0088800f8
:100e40008780a9009780a80021e1a8000080fa000f
:100e5000000006000200fa00000f78001e00780073
:100e6000804188000080fa00000006000000fa00bf
:100e700010002000904188000080fa000000060069
:100e80000040da000000fe0003f0a200889fbe00d0
:100e90008a9fbe008c1f7800530107005a0133005f
:100ea0006450e1004f0032006420e1005200320043
:100eb00003826c0007003b000905d0000306d00048
:100ec000820f54000c065d0002003900020032005f
:100ed00089017800030678008582550004003d00f2
:100ee0000003fd008103fd008502ea008b854200be
:100ef000840f720002003b0060001000e0801800c8
:100f00006011b8000005eb007a28e1000a00390002
:100f100006007800c75ddd00f707b2008780750026
:100f20002d003700828171000a01780061056000a0
:100f30008180d1000080d3008502e900f9ff3b00e9
:100f4000060440008784480002003b00600414004f
:100f5000e0841c000988a300070032008a81710028
:100f600082817100610164008904d1000884d3008a
:100f70008b05e800170037000978a30013003a003a
:100f80000b00e000130034008b05e9000804440066
:100f900089844c000a4474000978a3000d003a00cb
:100fa0000b00e000070034008b05e9000804440052
:100fb00089844c0001003a000b0020000978a3004e
:100fc000f7ff32000001eb00020037008281710060
:100fd0000a017800c90007000cf0a70001f0a0008a
:100fe000120137006420e10002003a00838f6c0098
:100ff000120133000801be000200be000b013700e1
:10100000889fbe008a9fbe008c1f7800f6000700f4
:10101000fd00330003866c006450e1002e003200b6
:101020006420e100330032006150e1002f00320003
:101030006120e1003100320085855500eb07b000ea
:1010400009002000080420000500370008044400bf
:1010500089844c000a0031000603430087834b005b
:101060000001530081815b00f8ff33000203be00e2
:101070000800a0000804440089844c00f6ff3900f1
:10108000c639dd0083017300010032001300200027
:101090008904d1000884d3000998a3000500320018
:1010a0000800a7000300a0008904d1000884d30031
:1010b0008b05e8008904d1000884d3000001eb000f
:1010c0000281d2008d00070001f0a1000cf0a70002
:1010d00001f0a000d50037006420e100d700320005
:1010e0000801be000200be00f7ff37006120e100ea
:1010f000d20032006000b800f3ff3700000020008b
:1011000001f82700f0ff3700839f68000100e0002e
:1011100002003d0060001000e08018000300e000c5
:1011200002003d0060011100e0811900fa00070093
:101130004f00e00002003b0060001000e08018005b
:10114000000006001400200003013700f4ff2f0008
:10115000010137000001be008e0007000470a700e7
:1011600003f0a1006509b100160032000d00350042
:101170006828e10006003500f0ff2f00f1ff27008e
:101180000300e00013003b00010028000000050000
:1011900000004000818048008502e900fcff3a0021
:1011a00008003700f88f420002003c008000eb008e
:1011b000000005008100d1000080d3008502e80016
:1011c000fcff3a000300e00002003b00600010005a
:1011d000e0801800000006000001be006d0007005e
:1011e0000470a70003f0a10003f8a30013003a0065
:1011f0006509b10010003200090035006928e100de
:101200000200350001002800000005000000400039
:10121000818048008502e900fcff3a0000000600da
:10122000f88f4200050035008100d1000080d30016
:101230008502e800fcff3a00000006008000eb0099
:1012400000000500881f7800010478000100e0001c
:1012500005003d0060001000e080180002003b0027
:1012600001f02c00030037000400070008f0a7007d
:1012700001f0a0004f04780000000600889fbe0027
:101280008a9fbe00010578000000e00018003200cf
:101290000004be006011b8006b0920000982cf0075
:1012a000020039000882cf000441b00069425200b8
:1012b0000e00320008003b00828171006101640071
:1012c0008904d1000884d3008b05e8000442e800bb
:1012d000f9ff3a00050037000804440089844c00f7
:1012e0008b05e9000442e900fbff3a000300070018
:1012f0004f05be004f04be00000006008100200024
:10130000618055000b003d000b00200061fe2f00a6
:101310000100e1001d003400828171006101640060
:101320008904d1000884d3000000e800faff3a00e5
:101330007100200061006400030070000200600082
:101340000900320061044400e0844c000988a500d3
:10135000050032008b05e8006808e10002003a0051
:101360008904d1000884d300f20f20000258e10064
:1013700005003d00c75ddd00f907b20089807500fa
:1013800008007800000006000bf827008b007800aa
:1013900000000500c70ade00f107b200f50fb20039
:1013a00008003200e1cf4200020032000170a000cc
:1013b00024000500810f70000100320004080500c0
:1013c00044000500810f700002003a00140005007f
:1013d0008502e9000000400081c04800fcff3b009e
:1013e0000170a000240005000004be00e9ff070012
:1013f0000003be000405be000200be00e5ff0700ba
:10140000844f7500000006000200be006450e10039
:10141000050036006420e100020036000968a300e0
:1014200001003a000800be000160a0004f067800ed
:101430004f05be004f04be0000000600f0ff2f0065
:10144000f1ff2700f9ff3700889fbe008a9fbe008a
:101450008c1f7800e4ff0700ebff330003866c006d
:101460006450e100240032006420e10027003200d3
:101470006150e100220032006120e10021003200d1
:101480008b854200eb07b1000134b800003ab80088
:101490000804420089844a00013ab8000030b800cc
:1014a0008880400009014a00040033000000400029
:1014b00081804800020149008b05e900c909dd006f
:1014c000830170000100320013002000c814de0008
:1014d0004814dd004709de001200b200c808de0033
:1014e0000884700085ff070001f0a1000cf0a70040
:1014f00001f0a000cdff37006120e100cfff3200f6
:101500000801be000200be00f7ff37006150e10095
:10151000fcff3a00c9ff37006022b8000602200035
:101520000000d0008180d2000482d2008582d200e7
:101530000000a0000202520083825a000300310022
:101540000202420083824a000000a1000603e90073
:10155000f3ff3a0000000600889fbe008a9fbe008d
:10156000841f7800a0ff07004f00780011003300af
:10157000f0ff2f00838f6c0006003b000405650020
:101580000a00a7000800370009f0a600100020009c
:1015900008003700820f5400838f5c00030039007d
:1015a0001000200001003e000000200009f0a7000c
:1015b0000000ea004f05be004f04be000000e0003e
:1015c00000000600800078000041eb00b14f1100e0
:1015d000fdff3a000080ea000080400000000600a5
:020000040000fa
:0c15e00021330000414300004b000000dc
:020000040000fa
:1015ec000a00fa00881f780020079800310798003d
:1015fc00420798004e009000cf80de000eff0700df
:10160c0002002000036024007afe07000200200084
:10161c004333240089ff0700b2fd2000930424000b
:10162c0074fe0700008fbe0018c0b3006011b80034
:10163c002e009000be009000bffe0700e00f50008f
:10164c00010035000044eb00e04f5400050032006f
:10165c002e009000be00900001f0a2002007980020
:10166c0031079800d2cc2c00c3ec23001e00be0026
:10167c0002fe070018c0b3002e019000be019000be
:10168c00adfe0700e00f5000010035000044eb00f8
:10169c00e04f54000f003200d2cc2c00c3ec2300de
:1016ac001e00be00f6fd070018c0b3002e0190000e
:1016bc00be019000a2fe0700e00f500001003c00ac
:1016cc000044eb00e04f54000200320010002000f8
:1016dc00010037000000eb004f0478000080fa0096
:1016ec00000006004600fa00881f7800dcfb0700ab
:1016fc00b6fc070042fd0700d80207005c03070098
:10170c00bffd07000000eb00f9fc07000000eb0038
:10171c00000f78000000eb00000f7800030037008a
:10172c0000000000000000001e0fe800309c2000ac
:10173c009e007800808f5000f9ff340000000000fc
:10174c0090418000e00f5000fdff3a00010037008f
:10175c000000000031002000500020002e03070084
:10176c00d0418800d0418000b7fd0700c241800005
:10177c00a0418000b141800099ff070050418800d2
:10178c00b14080000010200000806000e00f50008d
:10179c00efff320003c8bf000000fb007104200003
:1017ac00810f50005700320031052000810f50008e
:1017bc0028023a0004c8bf000000fb0011042000fe
:1017cc00810f500032003200d1042000810f5000f4
:1017dc001f023a0009c8bf000080fb006efc070026
:1017ec000000eb00404188000ac8bf00e04f5000e9
:1017fc00120032000bc8bf000000fb00c800dd0067
:10180c000cc8bf000001fb00f00f200000006100bd
:10181c0000807000c041880091fd07000000eb00c3
:10182c00504188000000000090418000e00f500003
:10183c00fdff3a00100020004041880007c8bf009f
:10184c000000fb00c400dd0008c8bf000000fb0066
:10185c008080700005c8bf000000fb004c00dd005c
:10186c008080700006c8bf000000fb004800dd004f
:10187c000080700020428800204280009cfc070001
:10188c005100200000af28008ffb07001c00370020
:10189c0005c8bf000000fb000001780051002000cb
:1018ac0020002000c902070006c8bf000000fb0092
:1018bc00000178006100200020002000c302070016
:1018cc0005c8bf000000fb0000017800510020009b
:1018dc0030002000bd02070006c8bf000000fb005e
:1018ec00000178006100200030002000b7020700e2
:1018fc005100200000af280073fb0700000000001f
:10190c00d401370004c8bf000000fb00d104200044
:10191c00810f50000700320031052000810f50006c
:10192c008600320011042000810f5000820032002a
:10193c00c8013700f200470010c2b300804878009d
:10194c00f200470090c0b30090409800f2004700ae
:10195c00d0c4b300a0409800f0408000014180004a
:10196c004808de000100200000407800f20047002b
:10197c00b0409800f240800003418000000020003d
:10198c00f10f20000202780003017800800178003a
:10199c0001007800030262000000610001002000d9
:1019ac00c000dd00000020000001be006120b80076
:1019bc0000017100818171004098de00cf80de0053
:1019cc0000407800f2004700c0409800f2408000d0
:1019dc000341800000f02f0001002000020278007b
:1019ec000301780080017800010078000302620096
:1019fc000000610001002000c000dd00000020009c
:101a0c000001be006120b8000001710081817100ed
:101a1c00481add004810de0000007200c898de0095
:101a2c0000407800f2004700d0409800f040800061
:101a3c000141800000407800f2004700e04098002f
:101a4c0010418000214180004808de000100200088
:101a5c0000407800f2004700f040980012418000ee
:101a6c002341800000002000f10f200002027800ca
:101a7c000301780080017800010078000302620005
:101a8c000000610001002000c000dd00000020000b
:101a9c000001be006120b80000017100818171005d
:101aac004098de00cf80de0000407800f200470056
:101abc0080489800124180002341800000f02f00e4
:101acc0001002000020278000301780080017800f8
:101adc000100780003026200000061000100200098
:101aec00c000dd00000020000001be006120b80035
:101afc000001710081817100481add004810de0080
:101b0c0000007200c898de0000407800f200470028
:101b1c0090489800104180002141800000407800de
:101b2c00f2004700a048980072004700b100200066
:101b3c00e5fa0700450137004401370005c8bf002e
:101b4c000000fb006101b900d0fb2f00f1ff2f005a
:101b5c000200400083804800620120000300200046
:101b6c00820f5000838f580037013e000060010047
:101b7c006d00370034013700330137003201370074
:101b8c003101370030013700480037002e01370093
:101b9c002d0137002c0137002b0137002a013700ab
:101bac0029013700280137002701370026013700ab
:101bbc002501370005003700b80037002201370037
:101bcc001b0037002001370077003700fd0047006d
:101bdc0010c2b30080487800fd00470030c0b3004d
:101bec0090409800fd00470030c5b300a04098001d
:101bfc0030c4b3001d010700300798003e00900070
:101c0c004800de0000407800fd004700b04098001e
:101c1c003e00900000407800fd004700c040980056
:101c2c007d00470051002000a7fa0700060137008d
:101c3c00210220008e80400010c2b3008048780042
:101c4c00210220008e80400030c0b30090409800ec
:101c5c00210220008e80400030c5b300a0409800c7
:101c6c0080c0b3001f020700400798004e00900090
:101c7c004800de0000407800210220008e804000e9
:101c8c00b04098004e0090000040780021022000e7
:101c9c008e804000c0409800200220000e004000c2
:101cac005100200088fa0700e7003700710220007d
:101cbc008e80400010c2b300804878007102200072
:101ccc008e80400030c0b30090409800710220001c
:101cdc008e80400030c5b300a040980090c0b30087
:101cec0000020700500798005e0090004800de00dc
:101cfc0000407800710220008e804000b0409800b7
:101d0c005e00900000407800710220008e80400040
:101d1c00c0409800700220000e00400051002000ce
:101d2c0069fa0700c8003700c10220008e8040000d
:101d3c0010c2b30080487800c10220008e804000a1
:101d4c0030c0b30090409800c10220008e8040004b
:101d5c0030c5b300a04098008000eb00500020007c
:101d6c00ad01070060079800004280004800de00cb
:101d7c0000407800c10220008e804000b0409800e6
:101d8c000042800000407800c10220008e8040009c
:101d9c00c0409800c00220000e00400051002000fe
:101dac0049fa0700a8003700a0418000b14180002b
:101dbc0018c0b3006011b800dffc0700e00f500042
:101dcc00010035000044eb00e04f540006003200e7
:101ddc00a0418000b141800001f0a20010079800e2
:101dec002107980004003700a0418000b141800019
:101dfc001007980021079800b2fd200093042400de
:101e0c001e009000ae0090008cfd07000200200028
:101e1c004333240077fc07000200200003602400f9
:101e2c0086fd0700c8fc070070079800110320000e
:101e3c008e80400010c2b30080487800110320004f
:101e4c008e80400030c0b3009040980011032000f9
:101e5c008e80400030c5b300a04098007e009000fa
:101e6c004800de0000407800110320008e80400006
:101e7c00b04098007e0090000040780011032000d4
:101e8c008e804000c0409800100320000e004000df
:101e9c00510020000cfa07006b0037006103200092
:101eac008e80400010c2b30080487800610320008f
:101ebc008e804000d0c0b300904098006103200099
:101ecc008e80400030c5b300a04098008000eb002d
:101edc006000200050010700000f98000e089000d1
:101eec004800de0000407800610320008e80400036
:101efc00b04098000e08900000407800610320006c
:101f0c008e804000c040980011002000600020002e
:101f1c0041010700000f98000e0890004800de00f9
:101f2c0000407800610320008e804000d040980073
:101f3c000e08900000407800610320008e80400065
:101f4c00e0409800210020006000200032010700d2
:101f5c00000f98000e0890004800de00004078004a
:101f6c00610320008e804000f04098000e08900025
:101f7c0000407800610320008e804000804898006b
:101f8c00310020006000200023010700000f9800a2
:101f9c000e0890004800de0000407800610320002d
:101fac008e804000904898000e0890000040780009
:101fbc00610320008e804000a04898008000eb0058
:101fcc007000200014010700000f98000e0890000c
:101fdc004800de0000407800610320008e80400045
:101fec00b04898000e089000004078006103200073
:101ffc008e804000c0489800110020007000200026
:10200c0005010700000f98000e0890004800de0044
:10201c0000407800610320008e804000d04898007a
:10202c000e08900000407800610320008e80400074
:10203c00e0489800600320000e004000f1002000f2
:10204c00a1f90700000000000000000001003700ab
:10205c00000000001708a900befd37000000fa00c0
:10206c002c03a9000080fa00000006000800fa000a
:10207c00604798000040eb001a010700000f780041
:10208c006e4090000000fb0061042000810f5000a6
:10209c0007003200b1042000810f50003a003200da
:1020ac0031042000810f5000140032005b00370017
:1020bc001e007800cf80de00a21420000289b90037
:1020cc00020178006002b90084017800030141002c
:1020dc00a31420000300b800010141008200780025
:1020ec00f23f20000300200004fc070010079800ba
:1020fc00210798001e009000490037001e00780050
:10210c00cf80de00a21420000289b9000201780001
:10211c006002b9008401780003014100a31420007f
:10212c000300b8000101410082007800f23f20005a
:10213c0003002000f1fb07006509b90002017800db
:10214c006002b900840178000301410053002000b3
:10215c000300b800010141008200780002f62f0054
:10216c00f3ff2f0000004100818049009200200005
:10217c0003002000e1fb07001007980021079800de
:10218c001e009000260037001e007800cf80de0075
:10219c00a21420000289b900020178006002b90083
:1021ac008401780003014100a31420000300b8004f
:1021bc000101410082007800f23f20000300200062
:1021cc00cefb07006509b900020178006002b90076
:1021dc008401780003014100530020000300b80083
:1021ec00010141008200780002f62f00f3ff2f005e
:1021fc000000410081804900920020000300200073
:10220c00befb0700f010b0000180b0001007980072
:10221c00210798001e009000010037001e00780076
:10222c000080fa00000006000200fa00000f78009f
:10223c001e0078006500b9000000780001f62f0040
:10224c0080804000900020000001780011000900ff
:10225c008200d8000080fa00000006000000fa009e
:10226c00d822a900d8a2a900d842a900d862a900f6
:10227c00d882a900d8c2a900d8e2a90011368000e2
:10228c0000fc2f00008060000030a0001036880099
:10229c0011368000f00f2c00808060000070200050
:1022ac0000807000103688004135800000fc2f0043
:1022bc00008060000020a000403588004302a80088
:1022cc0042c2a90042a2a8004342a80040c2a900f1
:1022dc0041e2a800e01680000010a000e016880083
:1022ec00e11680000002200000807000e0168800db
:1022fc00e01680000020a000e0168800e0168000a8
:10230c000030a000e0168800e01680000040a0001d
:10231c00e0168800e11680000004200000807000a8
:10232c00e0168800e1168000000820000080700094
:10233c00e01688000080fa00000006000200fa0097
:10234c00000f78001e00780040128800000000008a
:10235c000012800061006000e00f5000fcff3200b2
:10236c00401280000080fa00000006000600fa000f
:10237c001007980021079800110020001e00900003
:10238c000008dd000080ea0080007800d016800094
:10239c0000806000d01688002e009000e7ff070038
:1023ac00000f7800110020001e0090000008dd00d6
:1023bc0080007800d016800000807000d016880055
:1023cc001e0078000080fa00000006000600fa00eb
:1023dc00000f780011079800220798007105200063
:1023ec001e007800e1ff07004001200052000700aa
:1023fc009e0090001e007800dcff070040012000ca
:10240c004d000700ae0090001e007800d7ff0700bb
:10241c000080fa00000006000600fa001007980081
:10242c00210798000000eb00000f78004104200009
:10243c001e009000cdff0700400120003e00070069
:10244c00ae0090001e009000c8ff07004001200065
:10245c0039000700210520001e009000c3ff070073
:10246c00000f78001e0078000080fa0000000600c3
:10247c000000fa000000eb00001988000000eb00df
:10248c00101988000000eb002019880021e3a90036
:10249c0021a3a90001198000f0cf2f00008060005b
:1024ac000019880001198000000e200000807000c7
:1024bc00001988002043a9002119800000f0210098
:1024cc0000807000201988004119800000fe2f0048
:1024dc00008060004019880021e3a8000080fa0009
:1024ec00000006000200fa00004f78001e40780041
:1024fc007f4060000080fb007f006000421980007c
:10250c0001fe2f00810061000080700040198800de
:10251c002023a8000000000000198000610060006a
:10252c00e00f5000fcff32002003a90000188000cf
:10253c000080fa00000006000600fa002007980050
:10254c002e0090000000e800010020004213200043
:10255c000289b900020178006002b9008401780098
:10256c0003014100431320000300b80001014100a6
:10257c0082007800008fbe00008fbe00050037007f
:10258c00000000000080eb008080eb001e0f40007c
:10259c005e9748001e00be00e00f5000e08f580010
:1025ac00f7ff3a000080fa00000006000400fa0071
:1025bc00204798002e4090000080fb006d00b90071
:1025cc0000007800000f7800010037001e0fe900b2
:1025dc001e007800e10f5000fcff3c0000000000e2
:0825ec000080fa000000060067
:020000040000fa
:1025f400400800000200000000000000380800004d
:1026040004000000020000000000000000000000c0
:10261400000800001a000000000000003c08000050
:1026240004000000020000000000000000000000a0
:102634004208000002000000020000000000000048
:102644001a0800001600000002000000000000004c
:102654000000000000000000000000000000000076
:10266400000000000000000000000000440800001a
:102674000200000000000000300800000800000014
:102684000200000000000000000000000000000044
:042694000000000042
:020000040000fa
:020000040002f8
:04aff400ffff00005b
:020000040000fa
:020000040002f8
:04aff8009f70000046
:020000040000fa
:020000040002f8
:04affc007f3f000093
:00000001FF
