:020000040000fa
:080000000002040000000000f2
:020000040000fa
:10000800c2030000c2030000c2030000c2030000d4
:10001800c2030000c2030000c2030000c2030000c4
:10002800c2030000ee0c0000c2030000c20300007f
:10003800c2030000540d0000c2030000c203000008
:10004800c2030000c2030000c8020000c20300008f
:10005800c2030000c2030000c2030000c203000084
:10006800c2030000c2030000c2030000c203000074
:10007800c2030000c2030000c2030000c203000064
:10008800c2030000c2030000c2030000c203000054
:10009800c2030000c2030000c2030000c203000044
:1000a800c2030000c2030000c2030000c203000034
:1000b800c2030000ba0d0000200e0000c2030000b9
:1000c800c2030000c2030000c2030000c203000014
:1000d800c2030000c2030000c2030000c203000004
:1000e800c2030000c2030000c2030000c2030000f4
:1000f800c2030000c2030000c2030000c2030000e4
:10010800c2030000c2030000c2030000c2030000d3
:10011800c2030000c2030000c2030000c2030000c3
:10012800c2030000c2030000c2030000c2030000b3
:10013800c2030000c2030000c2030000c2030000a3
:10014800c2030000c2030000c2030000c203000093
:10015800c2030000c2030000c2030000c203000083
:10016800c2030000c2030000c2030000c203000073
:10017800c2030000c2030000c2030000c203000063
:10018800c2030000c2030000c2030000c203000053
:10019800c2030000c2030000c2030000c203000043
:1001a800c2030000c2030000c2030000c203000033
:1001b800c2030000c2030000c2030000c203000023
:1001c800c2030000c2030000c2030000c203000013
:1001d800c2030000c2030000c2030000c203000003
:1001e800c2030000c2030000c2030000c2030000f3
:1001f800c2030000c2030000c2030000c2030000e3
:10020800c2030000c2030000c2030000c2030000d2
:10021800c2030000c2030000c2030000c2030000c2
:10022800c2030000c2030000c2030000c2030000b2
:10023800c2030000c2030000c2030000c2030000a2
:10024800c2030000c2030000c2030000c203000092
:10025800c2030000c2030000c2030000c203000082
:10026800c2030000c2030000c2030000c203000072
:0c027800c2030000c2030000c20300002b
:020000040000fa
:10040000af4421000eff21000e0188000000000013
:100410000c00070080ef2000010020000f00070003
:10042000000020000000e000020032000000020096
:1004300000000000860e0200000000000040da000c
:100440000000fe00000020000000e000020032007a
:10045000000020009001880000000600a102880032
:10046000800078000000eb001a003700e2804000b6
:1004700054a0b4009101ba00e280400054a0b4003e
:100480009102ba00e280400054a0b4000002eb00e8
:10049000472bde00f507b200a6018800602ce100c2
:1004a00008003a000049eb000201e80002003900b0
:1004b0003420ec0002f0a0008301e900f9ff3e00c7
:1004c000040037006128e100010032000082eb00e7
:1004d000040007001101ba000200e000e3ff3a0047
:1004e0000000060004d0a300e20f49001c00390000
:1004f000810278003549ba000201e80002003900a3
:100500003420ec0002f0a0008301e9000f0032006b
:100510002549ba000201e800020039003420ec004d
:1005200002f0a0008301e900080032000400e000ae
:100530000600320015c9ba000201e80002003900c5
:100540003420ec0002f0a0008301e9008180e80083
:1005500054a0b4000300e000e2ff3a0000000600ef
:100560009102ba00055978008301e900f7ff3200d3
:10057000c82ade00055978008301e900f3ff320044
:100580000400e000f1ff320011d9ba00eeff37009d
:10059000809fbe00829fbe003200f8000000200055
:1005a00090018800000000000000fa004112800065
:1005b0004000210031009800400021001000780028
:1005c000010020004200200003002000820f5000a4
:1005d000838f58004e003e000006010004003700e3
:1005e000220037002b003700380037004200370068
:1005f000400021003000900071052000810f500064
:100600000700320051552500810f500010003200c4
:1006100041042000810f5000070032000f00370016
:100620004000210011002000010878007005200022
:10063000401288000c0037004000210031002000eb
:1006400001087800400420004012880006003700ae
:100650008081210040128800030037000080eb00f9
:10066000401288002a00370029003700400021008e
:100670003000900030a2880040002100300090003f
:10068000401288004000210021002000010878006d
:100690001f00370030a2800041002100b10090000f
:1006a000f00fb00000014000c00021000000410038
:1006b00001087800900520004012880040002100c9
:1006c0008000eb0001087800110037004000210095
:1006d0003000900080004000c000210000804000f9
:1006e00010007800401288004000210041002000e6
:1006f00001087800060037009005200040128800ad
:10070000400021008000eb0001087800000000009c
:100710000148a9000080fa003200f9004f01be0034
:100720004f00be00004006000000fa001e0ea900a7
:10073000100ea8000000eb00401288000148a9003c
:100740002148a9004382a9004362a9004342a800ae
:100750004322a9004302a80042e2a80042c2a90025
:1007600042a2a90040c2a90041e2a80090052000d1
:10077000401288000148a9002148a8000080fa0022
:10078000000006000040da000000fe0032002000f9
:100790005e00370003f0a200889fbe008a9fbe0063
:1007a0008c1f7800650107006c0133006450e10084
:1007b0004f0032006420e1005200320003826c00de
:1007c00007003b000905d0000306d000820f54004b
:1007d0000c065d0002003900020032008901780039
:1007e000030678008582550004003d000003fd00eb
:1007f0008103fd008502ea008b854200840f7200b0
:1008000002003b0060001000e08018006011b8009a
:100810000005eb007a28e1000a00390006007800a4
:10082000c75ddd00f707b200878075002d00370037
:10083000828171000a017800610560008180d10029
:100840000080d3008502e900f9ff3b000604400068
:100850008784480002003b0060041400e0841c0010
:100860000988a300070032008a817100828171002b
:10087000610164008904d1000884d3008b05e8007d
:10088000170037000978a30013003a000b00e000be
:10089000130034008b05e9000804440089844c00ef
:1008a0000a4474000978a3000d003a000b00e00030
:1008b000070034008b05e9000804440089844c00db
:1008c00001003a000b0020000978a300f7ff320076
:1008d0000001eb0002003700828171000a017800fc
:1008e000db0007000cf0a70001f0a0002401370096
:1008f0006420e10002003a00838f6c002401330081
:100900000801be000200be001d013700889fbe0026
:100910008a9fbe008c9fbe000206780001f0a700ef
:100920000cf0a0000004be00ef0007000800be00ad
:100930006420e1000700390002003a00f1ff2700bf
:10094000f0ff2f000160a0001202200042a28800e8
:100950005100370009f0a1000800be00020020008d
:1009600003f8230094000700f4ff3c000800be00d9
:1009700002002000039823008d0007000800be003d
:10098000300035000200200003f023008a00070039
:1009900005003c000800be000801be00ff00070083
:1009a0000005be000e0037000c10a2000000200061
:1009b00001f823000801be0076ff070002002000b6
:1009c00003f02300f50007000005be002901070021
:1009d0000200200003002c00f00007000004be000d
:1009e0000a00be00b2d02800130b2c006aff0700db
:1009f0000a01be00e9000700020f2500330b2400a6
:100a000065ff0700809fbe000a00be00520622005c
:100a100013f02b00e1000700b2662100f3f623007b
:100a20005dff07000a01be00dc0007004f01be00a9
:100a30001d0007000801be00d80007000801be0025
:100a400055ff07000c00a70007003700b2fd20008b
:100a500093fc23000c10a7004fff07000cf0a70029
:100a600001f0a2000c0037000cf0a70002003700d4
:100a700001f0a20004003700b2fd2000930424001e
:100a80000c10a60003003700b2fd200093fc2300e9
:100a90000c10a70040ff07004f06be004f05be0028
:100aa0004f04be0000000600889fbe008a9fbe0063
:100ab0008c1f7800a1000700a800330003866c009b
:100ac0006450e1002e0032006420e1003300320067
:100ad0006150e1002f0032006120e100310032005e
:100ae00085855500eb07b0000900200008042000b0
:100af000050037000804440089844c000a003100d6
:100b00000603430087834b000001530081815b0093
:100b1000f8ff33000203be000800a00008044400f0
:100b200089844c00f6ff3900c639dd00830173006b
:100b300001003200130020008904d1000884d30092
:100b40000998a300050032000800a7000300a000d8
:100b50008904d1000884d3008b05e8008904d10002
:100b60000884d3000001eb000281d20038000700a6
:100b700001f0a1000cf0a70001f0a00080003700f8
:100b80006420e100820032000801be000200be00c5
:100b9000f7ff37006120e1007d0032006000b800ff
:100ba000f3ff37000000200001f82700f0ff3700b6
:100bb00014002000e4003700f4ff2f00e2003700ab
:100bc0000001be00480007000470a70003f0a10068
:100bd0006509b100160032000d0035006828e100fb
:100be00006003500f0ff2f00f1ff27000300e000b2
:100bf00013003b0001002800000005000000400039
:100c0000818048008502e900fcff3a0008003700b7
:100c1000f88f420002003c008000eb00000005005d
:100c20008100d1000080d3008502e800fcff3a007b
:100c30000300e00002003b0060001000e0801800ac
:100c4000000006004f89de0082017800d9003700dd
:100c500081002000618055000b003d000b0020004a
:100c600061fe2f000100e1001d003400828171004f
:100c7000610164008904d1000884d3000000e80009
:100c8000faff3a0071002000610064000300700068
:100c9000020060000900320061044400e0844c005e
:100ca0000988a500050032008b05e8006808e1000e
:100cb00002003a008904d1000884d300f20f20001a
:100cc0000258e10005003d00c75ddd00f907b200f4
:100cd0008980750008007800000006000bf82700e6
:100ce0008b00780000000500c70ade00f107b200a3
:100cf000f50fb20008003200e1cf420002003200de
:100d00000170a00024000500810f70000100320076
:100d10000408050044000500810f700002003a003d
:100d2000140005008502e9000000400081c0480071
:100d3000fcff3b000170a000240005000004be0081
:100d4000e9ff07000003be000405be000200be006c
:100d5000e5ff0700844f7500000006000200be009a
:100d60006450e100050036006420e1000200360016
:100d70000968a30001003a000800be000160a0005d
:100d80004f0678004f05be004f04be00000006006d
:100d9000f0ff2f00f1ff2700f9ff3700889fbe000a
:100da0008a9fbe008c1f7800e4ff0700ebff330032
:100db00003866c006450e100240032006420e100ee
:100dc000270032006150e100220032006120e10082
:100dd000210032008b854200eb07b1000134b800de
:100de000003ab8000804420089844a00013ab80079
:100df0000030b8008880400009014a000400330038
:100e00000000400081804800020149008b05e90094
:100e1000c909dd00830170000100320013002000c9
:100e2000c814de004814dd004709de001200b200dd
:100e3000c808de000884700085ff070001f0a100eb
:100e40000cf0a70001f0a000cdff37006120e10009
:100e5000cfff32000801be000200be00f7ff3700de
:100e60006150e100fcff3a00c9ff37000001eb00d0
:100e70008f003700889fbe008a9fbe008c1f7800bd
:100e80000004be0098ff07000478a30026003a0083
:100e90006120e1002500320009f8a30025003a0096
:100ea0006420e10021003200f507b1000508a3002d
:100eb0000200320000004000818048006044b80019
:100ec0000310200002002000000040008180480044
:100ed0000805440089854c000a0541008b854900be
:100ee0000a0550008b855800030033000a00be003d
:100ef00002047400838474008301d1000281d30052
:100f0000830f7100f0ff3a008904d1000884d300f8
:100f10006001490082017800c1adde00fb07b0002e
:100f20004bff070096ff37000960a0000800be00d5
:100f300093ff37001202200042a28800f0ff2f002a
:100f4000f1ff27008eff3700889fbe008a9fbe00fa
:100f5000841f780079ff07004f00780011003300ec
:100f6000f0ff2f00838f6c0006003b000405650036
:100f70000a00a7000800370009f0a60010002000b2
:100f800008003700820f5400838f5c000300390093
:100f90001000200001003e000000200009f0a70022
:100fa0000000ea004f05be004f04be000000e00054
:100fb00000000600881f7800030478000300e000aa
:100fc00007003d0060001000e0801800600119007b
:100fd000e081190002003b0001f02d000300370002
:100fe0000400070008f0a70001f0a0004f047800fb
:100ff00000000600889fbe008a9fbe00008270002d
:101000000402710004827100260032000004be0058
:101010000200be006011b8006b092000950220009c
:101020000182cf000a0039000541b1000082cf00e3
:10103000070039000541b1000982cf0004003900e2
:101040000541b1000882cf00010039000541b1001f
:1010500005425200120032000a003b0082817100fa
:10106000610164008100d1000080d3008984d30035
:101070000884d3008b05e8000442e800f7ff3a003b
:10108000070037000804440089844c000000480031
:10109000818048008b05e9000442e900f9ff3a002d
:1010a000ebfe07004f05be004f04be000000060027
:1010b000889fbe008a9fbe008c9fbe00820578007c
:1010c0000004be0008ff07000800be006420e10025
:1010d0000700390002003a00f1ff2700f0ff2f005f
:1010e0000160a0001202200042a2880055003700d3
:1010f0006120e10003003a000b00a70001f8230083
:101100005000370001f0a100020021009364240088
:10111000a7fe07000800be0004003500b2fd200055
:10112000930c24004b0007000004be000005eb00f8
:101130000b00a6004f0dde0001f0a1000004be0070
:1011400032982f0023ea230014ff07000001eb0070
:1011500003f023000b00a70003f823008efd070017
:1011600097fe07000000a7000a00a200b5fe0700d6
:101170000b00e000030032000200200003f0230017
:1011800084fd070001f0a2000006be00020020005e
:101190009304240001ff07000801be007efd070044
:1011a000809fbe000c00be0022a22a00d3a723000d
:1011b000fafe07004f01be0077fd07000004be00e5
:1011c00001f0a100020020000398230078fe070030
:1011d0000800be00190035000001be00effe070048
:1011e0000006be00b2c52900e3622300ebfe070043
:1011f00022222b00f3942b0067fd07000c01be0098
:10120000e6fe0700e273280083c0230062fd0700aa
:101210000c01be00e1fe070042aa2a00a3e22b0057
:101220005dfd07000c01be00dcfe07000801be00ea
:10123000dafe07000801be0057fd07000a00a700fc
:1012400001f0a2004f06be004f05be004f04be00d5
:10125000000006000400200000003700889fbe0048
:101260008a9fbe008c1f78004f26dd00b3fe07006a
:10127000bafe33006120e100430032006250e10019
:1012800041003e003e0039006420e1003c00320095
:10129000058255000f003b000402e80038003a00c8
:1012a000800f5300818f5b00350034000800be00c2
:1012b00003f0a10001f0a60003f0a0000cf0a700cd
:1012c00035fd0700aefe37000603430087834b0061
:1012d0000c4646000005530081855b000200330088
:1012e0000a03be000c00a0000402e900f6ff3b0068
:1012f000850578000602430087824b0004003a000f
:101300006000b80009f0a70001f0a0009cfe3700c3
:101310000002520081825a000704e00004003300fa
:101320000603430087834b008b05e900faff370073
:10133000090578000604be000203be006011b80073
:1013400043fe0700e00f5200e08f5a00070035000f
:1013500002003c000c08a300040032000601be009d
:1013600003f0a0000cf0a7000bfd07000a85680041
:1013700001f0a1000af0a70001f0a00080fe3700f4
:101380000800be007efe3700100220000cf0a60010
:0813900040a288007efe370038
:020000040000fa
:101398000000fa0041348000f00f2c0080806000cb
:1013a8000000210000807000403488004134800033
:1013b80000fc2f00008060001001b300403488005a
:1013c8001134800000fc2f00008060000040a00065
:1013d8001034880011348000f00f2c0080806000e9
:1013e80000102100008070001034880011eea80061
:1013f80011cea80011aea800118ea800713580008a
:1014080000f82f0080806000f0022000008070004b
:101418007035880071358000f00f280080806000ea
:1014280000e022000080700070358800813580005f
:1014380000f82f0080806000d0022000008070003b
:101448008035880081358000f00f2800808060009a
:1014580000c0220000807000803588000000eb008a
:101468005008880013e1a90091088000f0fc2f00c3
:10147800008060000040a000900888000000eb0099
:10148800004888000000eb001048880001488000f0
:10149800f03f2e0080806000004020000080700037
:1014a800004888000148800080ff2f00008060000d
:1014b8006000b3000048880010488000f001b300c5
:1014c8001048880000352c0020488800803821000a
:1014d800304888000000eb00504888000000eb000e
:1014e8006048880051488000f03f2e0080806000ee
:1014f800004020000080700050488800514880005b
:1015080080ff2f00008060006000b3005048880012
:1015180060488000f001b3006048880000b22c00e9
:10152800704888008038210080488800010a8000bf
:1015380080ff2f0000806000000a88000000eb0098
:10154800300a88000000eb00000a88000000eb0069
:10155800100a880001428000f0f82f000080600027
:101568000040a000004288000028a900010a80006d
:10157800f03f2e0000806000000a8800010a800009
:10158800f0f92f0000806000000a8800410a8000fe
:1015980080ff2f0000806000400a88000000eb00f8
:1015a800700a88000000eb00400a88000000eb0089
:1015b800500a880011428000f0f82f000080600077
:1015c8000040a0001042880000a8a900410a80003d
:1015d800f03f2e0000806000400a8800410a800029
:1015e800f0f92f0000806000400a8800810a80001e
:1015f80080ff2f0000806000800a88000000eb0058
:10160800b00a88000000eb00800a88000000eb00a8
:10161800900a880091428000f0f82f000080600056
:101628000040a0009042880004a8a900810a800018
:10163800f03f2e0000806000800a8800810a800048
:10164800f0f92f0000806000800a8800c10a80003d
:1016580080ff2f0000806000c00a88000000eb00b7
:10166800f00a88000000eb00c00a88000000eb00c8
:10167800d00a880091428000f08f2f00808060009f
:1016880000102000008070009042880004c8a90063
:10169800c10a8000f03f2e0000806000c00a880068
:1016a800c10a8000f0f92f0000806000c00a88009d
:1016b800010a800080ff2f00008060000000a00069
:1016c800000a88002028a800410a800080ff2f0017
:1016d800008060000000a000400a880020a8a80040
:1016e800810a800080ff2f00008060000000a000b9
:1016f800800a880024a8a800c10a800080ff2f0063
:10170800008060000000a000c00a880024c8a8006b
:1017180013e1a8000080fa00000006000600fa00a5
:10172800889fbe00200798006000b800008fbe00a8
:101738002e009000cf80de0040fd07000200200050
:10174800833c240093fd07000004be00a0a0800095
:10175800cf80de0039fd07000001be000800be0092
:10176800cffc0700008fbe001e00be0012fd070060
:10177800000078004f04be000080fa000000060058
:101788002000fa00889fbe00400f9800510f980073
:10179800620f9800730f98006e099000fe09900080
:1017a8006e089000fe0890007afd07000004be0055
:1017b800f4a0800005a18000f0a0800001a18000b5
:1017c8000001be000400be0072fd07000001be005b
:1017d8000800be00eefb07000004be004e099000a2
:1017e800de0990004e089000de08900069fd0700b1
:1017f8000001be000800be00e4fb07000004be00b4
:101808006e089000fe0890000001be00e0fb070093
:101818000002be00f0a0800001a180000001be000f
:101828000400be005bfd07000001be000800be000a
:101838009bfc0700008fbe001e00be00d1fb070006
:10184800020020004333240052fd0700b2fd2000af
:101858009304240092fc07002007980031079800a1
:101868004e099000de0990004e089000de089000b6
:1018780048fd07000004be00f4a0800005a1800018
:10188800f0a0800001a180000001be000400be009d
:1018980040fd07000001be000800be00bcfb0700b9
:1018a8000004be006e099000fe0990006e089000ca
:1018b800fe08900037fd07000001be000800be00ca
:1018c800b2fb07000004be004e089000de0890003e
:1018d8000001be00aefb07000002be00f0a08000c1
:1018e80001a180000001be000400be0029fd070020
:1018f8000001be000800be0069fc07004007980010
:10190800510798004e009000de0090009dfb0700f4
:1019180002002000433324001efd0700b2fd200012
:10192800930424005efc0700600798007107980084
:101938006e019000fe0190002e009000be00900005
:1019480092fb0700000f9800110f9800b2fd2000cd
:10195800930424002e009000be0090000dfd0700a7
:1019680002002000433324004dfc07003dfd070022
:101978004e099000de09900006fd0700200f980030
:10198800310f98000e0890009e08900001f0a10009
:1019980018c0b30002002000030a240082fc0700dc
:1019a800e00f5000010034000044eb00e04f540009
:1019b8000300320000002000412324000200370009
:1019c8000e0890009e0890004f04be000080fa00a8
:1019d800000006003600f800809fbe00829fbe000f
:1019e800849fbe00869fbe003200f80000002000e1
:1019f80090018800000000000000fa000028a900fb
:101a080030a18000e10f50000e003a009170800074
:101a18000000280000806000e00f5000090032003c
:101a2800200a8000b0a188000000eb0030a18800e7
:101a38000000eb00808088000040eb0024f4b70031
:101a48000f003700200a8000c0a188001000200085
:101a580030a18800c1a18000b0a1800000805000a2
:101a680040a1880040a180002cff0700d0a088007a
:101a7800d0a080008080880010c0b30024f4b70094
:101a88000080fa003200f9004f03be004f02be008a
:101a98004f01be004f00be003600f90000400600ae
:101aa8003600f800809fbe00829fbe00849fbe0063
:101ab800869fbe003200f8000000200090018800d8
:101ac800000000000000fa0000a8a90050a1800052
:101ad800e10f50000e003a009170800000002400d1
:101ae80000806000e00f500009003200600a8000aa
:101af800d0a188000000eb0050a188000000eb0096
:101b0800908088000040eb0025f4b7000f003700f4
:101b1800600a8000e0a188001000200050a1880021
:101b2800e1a18000d0a180000080500060a1880061
:101b380060a18000f9fe0700e0a08800e0a0800016
:101b48009080880010c0b30025f4b7000080fa0028
:101b58003200f9004f03be004f02be004f01be0025
:101b68004f00be003600f900004006003600f800bd
:101b7800809fbe00829fbe00849fbe00869fbe00dd
:101b88003200f800000020009001880000000000ea
:101b98000000fa0004a8a90070a18000e10f50001d
:101ba8000e003a0091708000000022000080600062
:101bb800e00f500009003200a00a8000f0a1880060
:101bc8000000eb0070a188000000eb006080880036
:101bd8000040eb0023f4b7000f003700a00a800094
:101be80000a288001000200070a1880001a28000d7
:101bf800f0a180000080500080a1880080a18000b2
:101c0800c6fe0700c0a08800c0a0800060808800d1
:101c180010c0b30023f4b7000080fa003200f900c6
:101c28004f03be004f02be004f01be004f00be0072
:101c38003600f900004006003600f800809fbe001c
:101c4800829fbe00849fbe00869fbe003200f800bf
:101c58000000200090018800000000000000fa0049
:101c680004c8a90090a18000e10f50000e003a00be
:101c7800917080000000210000806000e00f50009b
:101c880009003200e00a800010a288000000eb0082
:101c980090a188000000eb00708088000040eb00f5
:101ca80022f4b7000f003700e00a800020a2880065
:101cb8001000200090a1880021a2800010a28000be
:101cc80000805000a0a18800a0a1800093fe07001a
:101cd800b0a08800b0a080007080880010c0b30059
:101ce80022f4b7000080fa003200f9004f03be006a
:101cf8004f02be004f01be004f00be003600f90083
:101d0800004006000000fa00889fbe00a0fd070002
:101d180083fa070040a0800051a080000200200044
:101d2800032724001bfc070002e02700137024008f
:101d380097fa070060a0880071a0880003003700a8
:101d480000000000010037000000000022d4bf009e
:101d5800e04f50001000320023d4bf00e04f500085
:101d68000d003200c0a08000cf80de00b3fb07006a
:101d78000004be00b0a08000cf80de00affb0700eb
:101d88000801be007efe07000040eb0022f4b70009
:101d98000040eb0023f4b70024d4bf00e04f50000c
:101da800e7ff320025d4bf00e04f5000e6ff3200c5
:101db800e0a08000cf80de00a0fb07000004be008a
:101dc800d0a08000cf80de009cfb07000801be0089
:101dd8006bfe07000040eb0024f4b7000040eb0066
:081de80025f4b700d9ff370014
:020000040000fa
:101df000081400002e000000820000000000a8006f
:101e0000410000000000bd0037063600d43000005d
:101e10000000000000000000009a9900314100001d
:101e200000000000010000000001000000000100af
:101e30000000000001000000000000003614000057
:101e400010000000800000000010000008040000e6
:101e50008000000046140000020000008200000024
:101e60000000000048140000020000008000000094
:041e7000000000006e
:020000040000fa
:04afe000cfff00009f
:020000040000fa
:04afe400dfff00008b
:020000040000fa
:04afe8007fff0000e7
:020000040000fa
:04afec00bfff0000a3
:020000040000fa
:04aff000bfff00009f
:020000040000fa
:04aff400ffff00005b
:00000001FF
