:020000040000fa
:080000000002040000000000f2
:020000040000fa
:10000800d2090000d2090000d2090000d20900007c
:10001800d2090000d2090000d2090000d20900006c
:10002800d2090000ea110000d2090000d20900003c
:10003800d209000046120000d2090000d2090000cf
:10004800d2090000d2090000e6080000d209000029
:10005800d2090000d2090000d2090000d20900002c
:10006800d2090000d2090000d2090000d20900001c
:10007800d2090000d2090000d2090000d20900000c
:10008800d2090000d2090000d2090000c80200000d
:10009800d2090000d2090000d2090000d2090000ec
:1000a800d2090000d2090000d2090000d2090000dc
:1000b800d2090000d2090000d2090000d2090000cc
:1000c800d2090000d2090000d2090000d2090000bc
:1000d800d2090000d2090000d2090000d2090000ac
:1000e800d2090000d2090000d2090000d20900009c
:1000f800d2090000d2090000d2090000d20900008c
:10010800d2090000d2090000d2090000d20900007b
:10011800d2090000d2090000d2090000d20900006b
:10012800d2090000d2090000d2090000d20900005b
:10013800d2090000d2090000d2090000d20900004b
:10014800d2090000d2090000d2090000d20900003b
:10015800d2090000d2090000d2090000d20900002b
:10016800d2090000d2090000d2090000d20900001b
:10017800d2090000d2090000d2090000d20900000b
:10018800d2090000d2090000d2090000d2090000fb
:10019800d2090000d2090000d2090000d2090000eb
:1001a800d2090000d2090000d2090000d2090000db
:1001b800d2090000d2090000d2090000d2090000cb
:1001c800d2090000d2090000d2090000d2090000bb
:1001d800d2090000d2090000d2090000d2090000ab
:1001e800d2090000d2090000d2090000d20900009b
:1001f800d2090000d2090000d2090000d20900008b
:10020800d2090000d2090000d2090000d20900007a
:10021800d2090000d2090000d2090000d20900006a
:10022800d2090000d2090000d2090000d20900005a
:10023800d2090000d2090000d2090000d20900004a
:10024800d2090000d2090000d2090000d20900003a
:10025800d2090000d2090000d2090000d20900002a
:10026800d2090000d2090000d2090000d20900001a
:0c027800d2090000d2090000d2090000e9
:020000040000fa
:100400004f4421000eff21000e0188000000000073
:100410000c000700a0502100010020000f00070081
:10042000000020000000e000020032000000020096
:1004300000000000bc150200000000000040da00cf
:100440000000fe00000020000000e000020032007a
:10045000000020009001880000000600a102880032
:10046000800078000000eb001a003700e2804000b6
:1004700054a0b4009101ba00e280400054a0b4003e
:100480009102ba00e280400054a0b4000002eb00e8
:10049000472bde00f507b200a6018800602ce100c2
:1004a00008003a000049eb000201e80002003900b0
:1004b0003420ec0002f0a0008301e900f9ff3e00c7
:1004c000040037006128e100010032000082eb00e7
:1004d000040007001101ba000200e000e3ff3a0047
:1004e0000000060004d0a300e20f49001c00390000
:1004f000810278003549ba000201e80002003900a3
:100500003420ec0002f0a0008301e9000f0032006b
:100510002549ba000201e800020039003420ec004d
:1005200002f0a0008301e900080032000400e000ae
:100530000600320015c9ba000201e80002003900c5
:100540003420ec0002f0a0008301e9008180e80083
:1005500054a0b4000300e000e2ff3a0000000600ef
:100560009102ba00055978008301e900f7ff3200d3
:10057000c82ade00055978008301e900f3ff320044
:100580000400e000f1ff320011d9ba00eeff37009d
:10059000801f78000000fa000368a9001000200006
:1005a000c0a188000080fa004f00780000400600db
:1005b0000000fa00860807009a0807008040eb0058
:1005c00000c3b300c108070000c2b300ab080700b6
:1005d000f0c2b300a9080700920807008040eb00b2
:1005e000c0c3b300b90807000040eb00a308070030
:1005f00080c0b300a10807008a0807008040eb0014
:10060000c0c3b300b108070010c0b3009b080700c7
:1006100000c6b30099080700820807008040eb007d
:10062000c0c3b300a908070020c0b30093080700a7
:100630000040eb00910807007a0807008040eb00bb
:1006400000cdb300a108070060c1b3008b0807000c
:1006500080c1b30089080700720807000000eb00a2
:10066000a00888000000eb00f0088800f108800076
:100670000003200000807000f008880061428000c4
:10068000f0ff2800808060000000210000807000e2
:10069000604288000368a9002368a8001fe1a80041
:1006a0000080fa00000006000e00fa0060079800c3
:1006b0008040eb00c0c3b3008408070030c0b30023
:1006c0006e08070011c0b300c0c3b300b108070033
:1006d000a50807000080fb00000f78005108070004
:1006e0008040eb00c0c3b3007808070040c0b300ef
:1006f0006208070011c0b300c0c3b300a50807001b
:10070000990807000080fb001007980045080700c3
:100710008040eb00c0c3b3006c08070050c0b300ba
:100720005608070011c0b300c0c3b3009908070002
:100730008d0807000080fb0020079800390807009b
:100740008040eb00c0c3b3006008070060c0b30086
:100750004a08070011c0b300c0c3b3008d080700ea
:10076000810807000080fb00300798002d08070073
:100770008040eb00c0c3b3005408070070c0b30052
:100780003e08070011c0b300c0c3b30081080700d2
:10079000750807000080fb0040079800210807004b
:1007a0008040eb00c0c3b3004808070080c0b3001e
:1007b0003208070011c0b300c0c3b30075080700ba
:1007c000690807000080fb00500798001508070023
:1007d0001e007800c800dd001e0090000080700040
:1007e000800078006e009000010878006e00900094
:1007f0000080e800ae0090004809dd00be009000d7
:1008000081007100010878006e00900064004000d3
:10081000ce0090004809dd00de00900081007100ec
:10082000010878000080fa00000006000e00fa00bf
:10083000600798008040eb0000c3b3002308070066
:1008400090c2b3000d08070011c0b30000c3b3008d
:1008500050080700440807000080fb00000f7800e4
:10086000f00707008040eb0000c3b3001708070043
:1008700080c2b3000108070011c0b30000c3b30079
:1008800044080700380807000080fb0010079800a4
:10089000e40707008040eb0000c3b3000b0807002b
:1008a000b0c2b300f507070011c0b30000c3b30026
:1008b000380807002c0807000080fb00200798007c
:1008c000d80707008040eb0000c3b300ff07070014
:1008d000a0c2b300e907070011c0b30000c3b30012
:1008e0002c080700200807000080fb003007980054
:1008f000cc0707008040eb0000c3b300f3070700fc
:10090000d0c2b300dd07070011c0b30000c3b300bd
:1009100020080700140807000080fb00400798002b
:10092000c00707008040eb0000c3b300e7070700e3
:10093000c0c2b300d107070011c0b30000c3b300a9
:1009400014080700080807000080fb005007980003
:10095000b40707001e007800c800dd001e009000ec
:1009600000804000800078006e0090000108780050
:100970006e0090000080e800ae0090004809dd00a5
:10098000be00900081004100010878006e009000d8
:1009900064004000ce0090004809dd00de009000b9
:1009a00081004100010878000080fa000000060084
:1009b0000e00fa00600798008040eb0000cdb30005
:1009c000c2070700d0c1b300ac07070011c0b300d5
:1009d00000cdb300ef070700e30707000080fb002e
:1009e000000f78008f0707008040eb0000cdb300b8
:1009f000b6070700e0c1b300a007070011c0b300ad
:100a000000cdb300e3070700d70707000080fb0015
:100a100010079800830707008040eb0000cdb3006b
:100a2000aa070700f0c1b3009407070011c0b30084
:100a300000cdb300d7070700cb0707000080fb00fd
:100a400020079800770707008040eb0000cdb30037
:100a50009e07070000c2b3008807070011c0b3005b
:100a600000cdb300cb070700bf0707000080fb00e5
:100a7000300798006b0707008040eb0000cdb30003
:100a80009207070010c2b3007c07070011c0b30033
:100a900000cdb300bf070700b30707000080fb00cd
:100aa000400798005f0707008040eb0000cdb300cf
:100ab0008607070020c2b3007007070011c0b3000b
:100ac00000cdb300b3070700a70707000080fb00b5
:100ad00050079800530707001e007800c800dd008b
:100ae0001e00900000807000800078006e00900072
:100af000010878006e0090000080e800ae009000d1
:100b00004809dd00be0090008100710001087800f6
:100b10006e00900064004000ce0090004809dd00a7
:100b2000de00900081007100010878000080fa006a
:100b3000000006004400fa00889fbe00100020005c
:100b4000b0a1880071a08000000220000e004000cb
:100b50000108780081a08000000220000e00400003
:100b60001100980091a08000000220000e004000bb
:100b70002100980041a08000600220000e0040008b
:100b80000108780051a08000600220000e004000a3
:100b90001100980061a08000600220000e0040005b
:100ba00021009800000220000e0040001000780094
:100bb000cf80de0034030700020020000370240011
:100bc000de0207000001be00f9010700c20220009a
:100bd0000e0141000089be00000220000e0040000e
:100be00010009000cf80de002703070002002000e5
:100bf00003702400d10207000001be00ec010700d1
:100c0000c20220000e01410020019800310198002d
:100c1000000220000e00400020009000cf80de0087
:100c2000190307000200200003702400c30207001c
:100c30000001be00de010700c20220000e014100db
:100c40004001980051019800600220000e00400011
:100c500010007800cf80de000b03070002002000a8
:100c600003702400b50207000200200003022400e4
:100c700086030700820320000e0141000089be00a8
:100c8000600220000e00400010009000cf80de00c7
:100c9000fd0207000200200003702400a7020700e5
:100ca00002002000030224007803070082032000d2
:100cb0000e014100200198003101980060022000df
:100cc0000e00400020009000cf80de00ee02070002
:100cd0000200200003702400980207000200200098
:100ce0000302240069030700820320000e01410073
:100cf0004001980051019800c00220000e00400001
:100d00001000be0007020700008fbe00c0022000d6
:100d10000e004000b000900020009000010207008b
:100d200020079800310798002e009000be00900028
:100d30008002070040079800510798002e0090009d
:100d4000be009000ee03070060079800710798004e
:100d50001e00be0077020700000f9800110f9800d8
:100d60001e00be00e6030700200f9800310f980018
:100d7000800320000e0040001000be000e0990000d
:100d80009e099000410307000004be00800320007c
:100d90000e004000d0009000400090002e0990000e
:100da000be099000390307000001be000800be0024
:100db0007f010700400f9800510f9800800320002a
:100dc0000e0040001000be006e019000fe01900079
:100dd0002e0307002e099000be0990002b03070088
:100de0000004be00800320000e004000b000900010
:100df000200090004e019000de01900023030700c8
:100e00000001be000800be00690107000004be002a
:100e1000800320000e004000d000900040009000b1
:100e20006e019000fe019000180307000e0990006b
:100e30009e099000150307000001be000800be00d7
:100e40005a010700600f9800710f98000000eb0036
:100e5000b0a188004e099000de0990006e08900055
:100e6000fe089000b10107004f04be000080fa00a8
:100e7000000006004400fa00889fbe001000200019
:100e8000b0a188008040210007fe0700e04021005b
:100e900066fe070040412100c5fe070071a08000ea
:100ea000000220000e0040000108780081a08000b0
:100eb000000220000e0040001100980091a0800068
:100ec000000220000e0040002100980041a0800098
:100ed000600220000e0040000108780051a0800050
:100ee000600220000e0040001100980061a0800008
:100ef000600220000e004000210098000002200047
:100f00000e00400010007800cf80de005e02070077
:100f10000200200003702400080207000001be0048
:100f200023010700c20220000e0141000089be001b
:100f3000000220000e00400010009000cf80de0074
:100f4000510207000200200003702400fb0107008b
:100f50000001be0016010700c20220000e01410080
:100f60002001980031019800000220000e0040008e
:100f700020009000cf80de00430207000200200026
:100f800003702400ed0107000001be000801070006
:100f9000c20220000e01410040019800510198005a
:100fa000600220000e00400010007800cf80de00bc
:100fb000350207000200200003702400df01070053
:100fc0000200200003022400b00207008203200078
:100fd0000e0141000089be00600220000e004000aa
:100fe00010009000cf80de002702070002002000e2
:100ff00003702400d1010700020020000302240036
:10100000a2020700820320000e0141002001980087
:1010100031019800600220000e0040002000900086
:10102000cf80de00180207000200200003702400b9
:10103000c2010700020020000302240093020700ff
:10104000820320000e0141004001980051019800e8
:10105000c00220000e0040001000be003101070059
:10106000008fbe00c00220000e004000b0009000c3
:10107000200090002b0107002007980031079800fe
:101080002e009000be009000aa01070040079800c3
:10109000510798002e009000be0090001803070032
:1010a00060079800710798001e00be00a1010700ac
:1010b000000f9800110f98001e00be0010030700db
:1010c000200f9800310f9800800320000e00400090
:1010d0001000be000e0990009e0990006b020700f0
:1010e0000004be00800320000e004000d0009000ed
:1010f000400090002e099000be0990006302070096
:101100000001be000800be00a9000700400f9800c3
:10111000510f9800800320000e0040001000be0018
:101120006e019000fe019000580207002e09900009
:10113000be099000550207000004be008003200095
:101140000e004000b0009000200090004e01900082
:10115000de0190004d0207000001be000800be0045
:10116000930007000004be00800320000e00400032
:10117000d0009000400090006e019000fe019000b1
:10118000420207000e0990009e0990003f020700ee
:101190000001be000800be0084000700600f980038
:1011a000710f98000000eb00b0a188004e0990007c
:1011b000de0990006e089000fe089000db0007003a
:1011c0004f04be000080fa0000000600809fbe00b1
:1011d000829fbe003200f8000000200090018800cd
:1011e000000000000000fa0040128000800078003b
:1011f00040002100310098004000210010007800dc
:10120000010020004200200003002000820f500057
:10121000838f580047003e0000060100040037009d
:101220001b00370024003700310037003b00370037
:10123000400021003000900041042000810f500048
:101240000900320071052000810f50000c003a00a7
:1012500040002100110020000108780070052000e6
:1012600040128800090037004000210031002000b2
:101270000108780040042000401288000300370075
:101280005004200040128800000000002a003700af
:10129000400021003000900000a2880040002100a2
:1012a0003000900040128800400021002100200002
:1012b000010878002000370000a2800041002100d2
:1012c000b1009000f00fb00000014000c00021000c
:1012d00000004100010878009005200040128800bd
:1012e000400021008000eb00010878001200370068
:1012f000400021003000900080004000c00021002c
:10130000008040001000780040128800400021005a
:1013100041002000010878000700370090052000f8
:1013200040128800400021008000eb000108780096
:1013300001003700000000000148a9000080fa0009
:101340003200f9004f01be004f00be000040060011
:101350000000fa000000eb00401288000148a900dc
:101360002148a9004382a9004362a9004342a90081
:101370004322a9004302a80042e2a80042c2a900f9
:1013800042a2a90040c2a90041e2a80090052000a5
:10139000401288000148a9002148a8000080fa00f6
:1013a000000006000040da000000fe0003f0a2008a
:1013b000889fbe008a9fbe008c1f78009b0107009b
:1013c000a20133006450e1004f0032006420e100cc
:1013d0005200320003826c0007003b000905d00078
:1013e0000306d000820f54000c065d000200390095
:1013f00002003200890178000306780085825500da
:1014000004003d000003fd008103fd008502ea00a9
:101410008b854200840f720002003b0060001000c8
:10142000e08018006011b8000005eb007a28e100a8
:101430000a00390006007800c75ddd00f707b2003a
:10144000878075002d003700828171000a017800c5
:10145000610560008180d1000080d3008502e90031
:10146000f9ff3b00060440008784480002003b006f
:1014700060041400e0841c000988a3000700320007
:101480008a81710082817100610164008904d10048
:101490000884d3008b05e800170037000978a30003
:1014a00013003a000b00e000130034008b05e90044
:1014b0000804440089844c000a4474000978a3009d
:1014c0000d003a000b00e000070034008b05e90036
:1014d0000804440089844c0001003a000b002000fd
:1014e0000978a300f7ff32000001eb00020037008b
:1014f000828171000a017800110107000cf0a70039
:1015000001f0a0005a0137006420e10002003a0017
:10151000838f6c005a0133000801be000200be0038
:10152000530137000001eb0007023700889fbe001f
:101530008a9fbe008c1f78003c010700100220002b
:1015400002003b0010a28800400137008a006200c0
:101550006408e10002003a0010a288004801370048
:101560006108e100fcff32000800be0003047800bf
:101570007200070001f0a1000900070008f0a600b2
:10158000040037000001be0091042400b0fd2000db
:1015900086ff070009f0a70001f0a2003401370020
:1015a000889fbe008a9fbe008c9fbe000004be00c4
:1015b000090107000800be00890678006420e100e8
:1015c00008003900040032000160a000120220006f
:1015d00012a288005300370091fc2300b0fd2000c8
:1015e0004e0037000006eb0009f0a10003f82300cd
:1015f000020020000800be00a10007000600340021
:1016000001f82300000020000801be004b00070085
:101610000004be002c0020000800be0093e8230058
:10162000320a230096000700120034000801be00b1
:10163000d1fd2300703d2b005dff07000005be00bb
:10164000b3f32300f27a26000800be000f01070062
:1016500003f823000200200054ff07000801be0029
:1016600053ff07000a01be00340007000004be005b
:101670000c06e8000800be0001f0a10002002000f6
:10168000039823007e0007000800be001600350006
:101690000801be00fd0007000005be0032cd2c0091
:1016a00043fb230042ff0700809fbe001269280011
:1016b00003d52b000a00be00f4000700620f2100d2
:1016c00013ef2b003aff07000a01be00ef000700ee
:1016d0004f01be00190007000801be00eb00070023
:1016e0000801be0032ff07000c00e0000b003200d2
:1016f0000c10a70001f0a200b2fd200093fc230013
:101700006260e1000400320022a9200063f023009f
:101710000c10a70063f8230025ff07000df0a700b9
:1017200001f0a2004f06be004f05be004f04be00f0
:10173000000006000081eb0008013700889fbe0012
:101740008a9fbe008c1f7800b8000700bf003300de
:1017500003866c006450e1002e0032006420e1003a
:10176000330032006150e1002f0032006120e100bf
:101770003100320085855500eb07b00009002000dc
:1017800008042000050037000804440089844c0048
:101790000a0031000603430087834b000001530019
:1017a00081815b00f8ff33000203be000800a00047
:1017b0000804440089844c00f6ff3900c639dd0076
:1017c0008301730001003200130020008904d1005e
:1017d0000884d3000998a300050032000800a70080
:1017e0000300a0008904d1000884d3008b05e80021
:1017f0008904d1000884d3000001eb000281d200eb
:101800004f00070001f0a1000cf0a70001f0a000bc
:10181000970037006420e100990032000801be0003
:101820000200be00f7ff37006120e10094003200a3
:101830006000b800f3ff37000000200001f8270027
:10184000f0ff3700839f68000100e00002003d00c8
:1018500060001000e08018000300e00002003d007e
:1018600060011100e0811900270107004f00e0002e
:1018700002003b0060001000e0801800000006003d
:101880001400200097013700881f780001047800b9
:101890000100e00005003d0060001000e08018003d
:1018a00002003b0001f02c00030037000400070099
:1018b00008f0a70001f0a0004f0478000000060027
:1018c000889fbe008a9fbe00010578000000e000ee
:1018d000180032000004be006011b8006b0920003f
:1018e0000982cf00020039000882cf000441b00015
:1018f000694252000e00320008003b0082817100f4
:10190000610164008904d1000884d3008b05e800dc
:101910000442e800f9ff3a000500370008044400db
:1019200089844c008b05e9000442e900fbff3a0082
:10193000030007004f05be004f04be000000060074
:1019400081002000618055000b003d000b0020004d
:1019500061fe2f000100e1001d0034008281710052
:10196000610164008904d1000884d3000000e8000c
:10197000faff3a007100200061006400030070006b
:10198000020060000900320061044400e0844c0061
:101990000988a500050032008b05e8006808e10011
:1019a00002003a008904d1000884d300f20f20001d
:1019b0000258e10005003d00c75ddd00f907b200f7
:1019c0008980750008007800000006000bf82700e9
:1019d0008b00780000000500c70ade00f107b200a6
:1019e000f50fb20008003200e1cf420002003200e1
:1019f0000170a00024000500810f7000010032007a
:101a00000408050044000500810f700002003a0040
:101a1000140005008502e9000000400081c0480074
:101a2000fcff3b000170a000240005000004be0084
:101a3000e9ff07000003be000405be000200be006f
:101a4000e5ff0700844f7500000006000200be009d
:101a50006450e100050036006420e1000200360019
:101a60000968a30001003a000800be000160a00060
:101a70004f0678004f05be004f04be000000060070
:101a8000f0ff2f00f1ff2700f9ff3700889fbe000d
:101a90008a9fbe008c1f7800e4ff0700ebff330035
:101aa00003866c006450e100240032006420e100f1
:101ab000270032006150e100220032006120e10085
:101ac000210032008b854200eb07b1000134b800e1
:101ad000003ab8000804420089844a00013ab8007c
:101ae0000030b8008880400009014a00040033003b
:101af0000000400081804800020149008b05e90098
:101b0000c909dd00830170000100320013002000cc
:101b1000c814de004814dd004709de001200b200e0
:101b2000c808de000884700085ff070001f0a100ee
:101b30000cf0a70001f0a000cdff37006120e1000c
:101b4000cfff32000801be000200be00f7ff3700e1
:101b50006150e100fcff3a00c9ff3700889fbe00da
:101b60008a9fbe008c9fbe00820578000004be00e4
:101b700099ff07000800be006420e100070039005b
:101b800002003a00f1ff2700f0ff2f000160a000e3
:101b90001202200012a28800550037006120e100e7
:101ba00003003a000b00a70001f8230050003700a3
:101bb00001f0a100020021009364240030ff07001f
:101bc0000800be0004003500b2fd2000930c240084
:101bd000020107000004be000005eb000b00a60098
:101be0004f0dde0001f0a1000004be0032982f006e
:101bf00023ea2300a5ff07000001eb0003f0230008
:101c00000b00a70003f82300e9fd0700d20007003e
:101c10000000a7000a00a2001bff07000b00e00065
:101c2000030032000200200003f02300dffd070064
:101c300001f0a2000006be00020020009304240070
:101c400092ff07000801be00d9fd0700809fbe007b
:101c50000c00be0022a22a00d3a723008bff07009e
:101c60004f01be00d2fd07000004be0001f0a1003c
:101c7000020020000398230001ff07000800be00b7
:101c8000190035000001be0080ff07000006be00fd
:101c9000b2c52900e36223007cff070022222b004b
:101ca000f3942b00c2fd07000c01be0077ff070074
:101cb000e273280083c02300bdfd07000c01be00b5
:101cc00072ff070042aa2a00a3e22b00b8fd07001a
:101cd0000c01be006dff07000801be006bff07008e
:101ce0000801be00b2fd07000a00a70001f0a20033
:101cf0004f06be004f05be004f04be0000000600a8
:101d00000001eb0095ff37006022b80006022000ba
:101d10000000d0008180d2000482d2008582d200ef
:101d20000000a0000202520083825a00030031002a
:101d30000202420083824a000000a1000603e9007b
:101d4000f3ff3a0000000600889fbe008a9fbe0095
:101d50008c9fbe000206780001f0a7000cf0a000e6
:101d60000004be001cff07000800be006420e10064
:101d70000700390002003a00f1ff2700f0ff2f00b2
:101d80000160a0001202200012a28800510037005a
:101d900009f0a1000800be000200200003f82300a3
:101da0006b000700f4ff3c000800be0002002000aa
:101db00003982300b2fe07000800be003000350083
:101dc0000200200003f023006100070005003c0032
:101dd0000800be000801be002cff07000005be0081
:101de0000e0037000c10a2000000200001f82300b4
:101df0000801be006dfd07000200200003f0230073
:101e000022ff07000005be00c500070002002000f9
:101e100003002c001dff07000004be000a00be00e6
:101e2000b2d02800130b2c0061fd07000a01be0090
:101e300016ff0700020f2500330b24005cfd07008e
:101e4000809fbe000a00be005206220013f02b0045
:101e50000eff0700b2662100f3f6230054fd0700d1
:101e60000a01be0009ff07004f01be0033fe070054
:101e70000801be0005ff07000801be004cfd070079
:101e80000c00a70007003700b2fd200093fc2300e0
:101e90000c10a70046fd07000cf0a70001f0a200ff
:101ea0000c0037000cf0a7000200370001f0a20080
:101eb00004003700b2fd2000930424000c10a6009b
:101ec00003003700b2fd200093fc23000c10a70094
:101ed00037fd07004f06be004f05be004f04be0091
:101ee00000000600889fbe008a9fbe00841f780005
:101ef000cefe07004f00780011003300f0ff2f00e6
:101f0000838f6c0006003b00040565000a00a700f3
:101f10000800370009f0a600100020000800370074
:101f2000820f5400838f5c000300390010002000f2
:101f300001003e000000200009f0a7000000ea00b8
:101f40004f05be004f04be000000e0000000060088
:101f5000f4ff2f00e3ff37000001be009efe0700e4
:101f60000470a70003f0a1006509b100160032005b
:101f70000d0035006828e10006003500f0ff2f0055
:101f8000f1ff27000300e00013003b0001002800e0
:101f90000000050000004000818048008502e90043
:101fa000fcff3a0008003700f88f420002003c00b6
:101fb0008000eb00000005008100d1000080d3000c
:101fc0008502e800fcff3a000300e00002003b004d
:101fd00060001000e08018000000060004002000ef
:101fe00000003700889fbe008a9fbe008c1f7800cb
:101ff0004f26dd008dfe070094fe33006120e100d6
:10200000430032006250e10041003e003e003900d2
:102010006420e1003c003200058255000f003b00c7
:102020000402e80038003a00800f5300818f5b0003
:10203000350034000800be0003f0a10001f0a60046
:1020400003f0a0000cf0a700d9fc070088fe3700c1
:102050000603430087834b000c46460000055300ef
:1020600081855b00020033000a03be000c00a00063
:102070000402e900f6ff3b008505780006024300f4
:1020800087824b0004003a006000b80009f0a70006
:1020900001f0a00076fe37000002520081825a0053
:1020a0000704e000040033000603430087834b006d
:1020b0008b05e900faff3700090578000604be0029
:1020c0000203be006011b8001dfe0700e00f5200c1
:1020d000e08f5a000700350002003c000c08a30006
:1020e000040032000601be0003f0a0000cf0a700bf
:1020f000affc07000a85680001f0a1000af0a70004
:1021000001f0a0005afe37000800be0058fe37005c
:10211000100220000cf0a60010a2880058fe370024
:10212000889fbe008a9fbe008c1f78000004be00fe
:1021300029fe07000478a30026003a006120e10090
:102140002500320009f8a30025003a006420e100d0
:1021500021003200f507b1000508a300020032009b
:1021600000004000818048006044b8000310200057
:102170000200200000004000818048000805440063
:1021800089854c000a0541008b8549000a055000ed
:102190008b855800030033000a00be00020474005f
:1021a000838474008301d1000281d300830f710006
:1021b000f0ff3a008904d1000884d300600149008f
:1021c00082017800c1adde00fb07b000dcfd070036
:1021d00027fe37000960a0000800be0024fe37007b
:1021e0001202200012a28800f0ff2f00f1ff27004a
:0421f0001ffe370097
:020000040000fa
:1021f4000000fa0010eea900110ea90001348000bd
:1022040000fc2f00008060000040a0000034880023
:102214002134800000fc2f00008060000040a000fa
:102224002034880011eea80011cea800713580007a
:1022340000f82f0080806000f00220000080700011
:102244007035880071358000f00f280080806000b0
:1022540000e0220000807000703588000000eb0070
:102264005008880013e1a90091088000f0fc2f00b9
:10227400008060000040a000900888000000eb008f
:10228400004888000000eb001048880001488000e6
:10229400f03f2e008080600000402000008070002d
:1022a400004888000148800080ff2f000080600003
:1022b4006000b3000048880010488000f001b300bb
:1022c4001048880000352c00204888008038210000
:1022d40030488800010a800080ff2f0000806000e1
:1022e400000a88000000eb00300a88000000eb00c0
:1022f400000a88000000eb00100a880001428000f8
:10230400f0f82f00008060000040a0000042880028
:102314000028a900010a8000f03f2e000080600020
:10232400000a8800010a8000f0f92f000080600094
:10233400000a8800410a800080ff2f0000806000ae
:10234400400a88000000eb00700a88000000eb00df
:10235400400a88000000eb00500a88001142800007
:10236400f0f82f00008060000040a00010428800b8
:1023740000a8a900410a8000f03f2e000080600000
:10238400400a8800410a8000f0f92f0000806000b4
:10239400400a8800010a800080ff2f00008060004e
:1023a4000000a000000a88002028a800410a80003c
:1023b40080ff2f00008060000000a000400a880019
:1023c40020a8a80013e1a8000080fa00000006007d
:1023d400809fbe00829fbe003200f80000002000f3
:1023e40090018800000000000000fa000028a90005
:1023f400d0a08000e10f50000a003a0091708000e4
:102404000000280000806000e00f5000050032004a
:10241400200a800070a188000000eb00d0a0880092
:102424000a003700200a800080a1880010002000e4
:10243400d0a0880081a1800070a18000008050009d
:10244400cf80de00e0a08800f1a08800e2a0800038
:10245400f3a08000b012200001002000800f510082
:10246400818f590002003c0012eea80001003700e1
:1024740012eea9000080fa003200f9004f01be00fc
:102484004f00be0000400600809fbe00829fbe0039
:102494003200f800000020009001880000000000d5
:1024a4000000fa0000a8a90000a18000e10f50007c
:1024b4000a003a009170800000002400008060004f
:1024c400e00f500005003200600a800090a18800ef
:1024d4000000eb0000a188000a003700600a8000b9
:1024e400a0a188001000200000a18800a1a1800004
:1024f40090a1800000805000cf80de0010a18800f1
:1025040021a1880012a1800023a18000b012200024
:1025140001002000800f5100818f590002003c000f
:10252400130ea80001003700130ea9000080fa0062
:102534003200f9004f01be004f00be00004006000b
:102544000000fa000e0ea8000000eb00001988003d
:102554000000eb00101988000000eb00201988002f
:102564000000eb009019880021e3a90021a3a90031
:102574002143a90001198000f0cf2f0000806000e2
:102584000019880001198000000e200000807000ee
:10259400001988002043a9002119800000f02100bf
:1025a40000807000201988004119800000fe2f006f
:1025b400008060004019880021e3a8000080fa0030
:1025c400000006000800fa00604798002023a800d5
:1025d400000000000019800061006000e00f50005e
:1025e400fcff32002003a90000188000000f7800cf
:1025f4006e4090000000fb0061042000810f500039
:1026040007003200b1042000810f5000370032006f
:1026140031042000810f50001300320056003700af
:102624001e007800cf80de00a21420008209b800ca
:10263400e002b8008401780003014100a3142000e3
:102644000300b8000101410082007800f23f20003d
:10265400030020007afc0700100798002107980067
:102664001e009000450037001e007800cf80de0079
:10267400a21420008209b800e002b80084017800a6
:1026840003014100a31420000300b800010141002c
:1026940082007800f23f20000300200068fc07005d
:1026a400e509b800e002b8008401780003014100a4
:1026b400530020000300b8000101410082007800ab
:1026c40002f62f00f3ff2f00000041008180490033
:1026d400920020000300200059fc07001007980016
:1026e400210798001e009000240037001e00780087
:1026f400cf80de00a21420008209b800e002b800f6
:102704008401780003014100a31420000300b800f1
:102714000101410082007800f23f20000300200004
:1027240047fc0700e509b800e002b800840178001e
:1027340003014100530020000300b80001014100df
:102744008200780002f62f00f3ff2f000000410002
:1027540081804900920020000300200038fc07001b
:10276400f010b0000180b000100798002107980015
:102774001e00900001003700001880000080fa005d
:10278400000006000000fa0060c4b3008dff0700db
:10279400e0a188000080fa00000006000200fa00b0
:1027a400000f78001e007800e500b80001f62f0045
:1027b4008080400090002000000178001100090092
:1027c4008200d8000080fa00000006000400fa002d
:1027d40017e2a900e0012000a01088001722a80039
:1027e4000648a90017e2a8001742a900801080003b
:1027f400100798000000eb00000f7800020037007b
:10280400000000001e0fe800703821009e007800d0
:10281400808f5000faff34000080fa0000000600a8
:102824000200fa001642a80000000000b010800068
:1028340064006000e00f5000fcff3a001662a9003b
:102844000648a90018e2a9001942a9000000eb00fb
:10285400000f780002003700000000001e0fe8009f
:10286400703821009e007800808f5000faff3400f9
:102874000080fa00000006000200fa00004f780011
:1028840000000000c010800061006000e00f5000f4
:10289400fcff3a000648a9001e00fb0090108800c7
:1028a40000000000c11080000000240000806000cf
:1028b400e00f5000fbff3a000000000000000000a1
:1028c4000080fa00000006000400fa002047980087
:1028d4003147980016a2a9000000eb00000f780011
:1028e4000000eb00000f7800020037000000000039
:1028f4001e0fe800703e20009e007800808f50007c
:10290400faff34001602a80000000000b010800096
:1029140061006000e00f5000fcff3a00ae40900000
:102924003e40900000c07000d3ff07000080fa0012
:10293400000006000000fa001662a8000000000073
:10294400c010800062006000e00f5000fcff320005
:102954001682a80080108000004078000080fa00f1
:10296400000006000000fa001662a8000000000043
:10297400c010800062006000e00f5000fcff3200d5
:1029840080108000004078000080fa0000000600fb
:102994000200fa00004f7800114798001622a800a0
:1029a4000000000000000000b01080006200600021
:1029b400e00f5000fcff3a0000000000c01080004f
:1029c40061006000e00f5000fcff3a000648a900d7
:1029d4001e4090001e4070000000fb009010880014
:1029e40000000000c110800000002400008060008e
:1029f400e00f5000fbff3a000080fa0000000600e0
:102a04000000fa001682a8000080fa000000060008
:020000040000fa
:102a14003a140000020000008000000026140000a8
:102a24000800000082000000000000000000000018
:102a3400000000001a1400000c00000082000000d6
:102a44000100000000000000010000000000000080
:102a54002e14000008000000800000003c14000058
:102a64000200000082000000000000003e1400008c
:102a740002000000800000000814000012000000a2
:102a840080000000361400000400000082000000f2
:102a94000000000000000000001000000804000016
:102aa40080000000401400000200000082000000ca
:102ab400000000004214000002000000800000003a
:042ac400000000000e
:020000040000fa
:102ac8000000fa0011aea90001eca900012ca90030
:102ad800010ca800300020001060880000e22400eb
:102ae800206088000000eb00106288000000eb0006
:102af8001061880043cca800438ca9000000eb00bb
:102b080000628800404ca9000000eb004062880089
:102b180000652400306288000000eb0050628800e5
:102b280001eca8000080fa00000006000200fa008c
:102b3800000f7800807020009e007800808f500081
:102b480007003c001e007800e00f5000040035002c
:102b5800405224001e004000306288000200370006
:102b6800c0c22400306288000080fa00000006001d
:102b78000000fa00f4f9070070fe0700108ea900a3
:102b8800128ea80060c4b3008dfe07000081880083
:102b9800c093800000407800614060000080fb0026
:102ba800610060004400dd0092708000f1fe2f009b
:102bb800810061000080700090708800f1ff37008c
:020000040000fa
:04afe000cfff00009f
:020000040000fa
:04afe400dfff00008b
:020000040000fa
:04afe8007fff0000e7
:020000040000fa
:04afec00bfff0000a3
:020000040000fa
:04aff000bfff00009f
:020000040000fa
:04aff400ffff00005b
:00000001FF
